{
  "_format": "hh-sol-artifact-1",
  "contractName": "ExeToken",
  "sourceName": "contracts/token/ExeToken.sol",
  "abi": [
    {
      "anonymous": false,
      "inputs": [
        {
          "indexed": true,
          "internalType": "address",
          "name": "owner",
          "type": "address"
        },
        {
          "indexed": true,
          "internalType": "address",
          "name": "approved",
          "type": "address"
        },
        {
          "indexed": true,
          "internalType": "uint256",
          "name": "tokenId",
          "type": "uint256"
        }
      ],
      "name": "Approval",
      "type": "event"
    },
    {
      "anonymous": false,
      "inputs": [
        {
          "indexed": true,
          "internalType": "address",
          "name": "owner",
          "type": "address"
        },
        {
          "indexed": true,
          "internalType": "address",
          "name": "operator",
          "type": "address"
        },
        {
          "indexed": false,
          "internalType": "bool",
          "name": "approved",
          "type": "bool"
        }
      ],
      "name": "ApprovalForAll",
      "type": "event"
    },
    {
      "anonymous": false,
      "inputs": [
        {
          "indexed": true,
          "internalType": "uint256",
          "name": "tokenId",
          "type": "uint256"
        },
        {
          "indexed": true,
          "internalType": "address",
          "name": "creator",
          "type": "address"
        },
        {
          "indexed": true,
          "internalType": "address",
          "name": "owner",
          "type": "address"
        },
        {
          "indexed": false,
          "internalType": "uint256",
          "name": "timestamp",
          "type": "uint256"
        }
      ],
      "name": "Executed",
      "type": "event"
    },
    {
      "anonymous": false,
      "inputs": [
        {
          "indexed": false,
          "internalType": "uint8",
          "name": "version",
          "type": "uint8"
        }
      ],
      "name": "Initialized",
      "type": "event"
    },
    {
      "anonymous": false,
      "inputs": [
        {
          "indexed": true,
          "internalType": "address",
          "name": "creator",
          "type": "address"
        },
        {
          "indexed": true,
          "internalType": "uint256",
          "name": "tokenId",
          "type": "uint256"
        },
        {
          "indexed": true,
          "internalType": "bytes32",
          "name": "name",
          "type": "bytes32"
        }
      ],
      "name": "Minted",
      "type": "event"
    },
    {
      "anonymous": false,
      "inputs": [
        {
          "indexed": true,
          "internalType": "address",
          "name": "previousOwner",
          "type": "address"
        },
        {
          "indexed": true,
          "internalType": "address",
          "name": "newOwner",
          "type": "address"
        }
      ],
      "name": "OwnershipTransferred",
      "type": "event"
    },
    {
      "anonymous": false,
      "inputs": [
        {
          "indexed": true,
          "internalType": "uint256",
          "name": "tokenId",
          "type": "uint256"
        },
        {
          "indexed": true,
          "internalType": "address",
          "name": "seller",
          "type": "address"
        },
        {
          "indexed": true,
          "internalType": "address",
          "name": "buyer",
          "type": "address"
        },
        {
          "indexed": false,
          "internalType": "uint256",
          "name": "price",
          "type": "uint256"
        }
      ],
      "name": "Purchased",
      "type": "event"
    },
    {
      "anonymous": false,
      "inputs": [
        {
          "indexed": true,
          "internalType": "uint256",
          "name": "tokenId",
          "type": "uint256"
        },
        {
          "indexed": true,
          "internalType": "address",
          "name": "owner",
          "type": "address"
        },
        {
          "indexed": false,
          "internalType": "uint256",
          "name": "price",
          "type": "uint256"
        }
      ],
      "name": "SetPrice",
      "type": "event"
    },
    {
      "anonymous": false,
      "inputs": [
        {
          "indexed": true,
          "internalType": "uint256",
          "name": "tokenId",
          "type": "uint256"
        },
        {
          "indexed": true,
          "internalType": "bool",
          "name": "disabled",
          "type": "bool"
        }
      ],
      "name": "TokenDisabled",
      "type": "event"
    },
    {
      "anonymous": false,
      "inputs": [
        {
          "indexed": true,
          "internalType": "address",
          "name": "from",
          "type": "address"
        },
        {
          "indexed": true,
          "internalType": "address",
          "name": "to",
          "type": "address"
        },
        {
          "indexed": true,
          "internalType": "uint256",
          "name": "tokenId",
          "type": "uint256"
        }
      ],
      "name": "Transfer",
      "type": "event"
    },
    {
      "inputs": [],
      "name": "admin",
      "outputs": [
        {
          "internalType": "address",
          "name": "",
          "type": "address"
        }
      ],
      "stateMutability": "view",
      "type": "function"
    },
    {
      "inputs": [
        {
          "internalType": "address",
          "name": "to",
          "type": "address"
        },
        {
          "internalType": "uint256",
          "name": "tokenId",
          "type": "uint256"
        }
      ],
      "name": "approve",
      "outputs": [],
      "stateMutability": "nonpayable",
      "type": "function"
    },
    {
      "inputs": [
        {
          "internalType": "address",
          "name": "owner",
          "type": "address"
        }
      ],
      "name": "balanceOf",
      "outputs": [
        {
          "internalType": "uint256",
          "name": "",
          "type": "uint256"
        }
      ],
      "stateMutability": "view",
      "type": "function"
    },
    {
      "inputs": [],
      "name": "categoryStore",
      "outputs": [
        {
          "internalType": "contract ITokenCategoryStore",
          "name": "",
          "type": "address"
        }
      ],
      "stateMutability": "view",
      "type": "function"
    },
    {
      "inputs": [
        {
          "internalType": "uint256",
          "name": "_tokenId",
          "type": "uint256"
        },
        {
          "components": [
            {
              "internalType": "bytes",
              "name": "value",
              "type": "bytes"
            },
            {
              "internalType": "uint256",
              "name": "identifierIndex",
              "type": "uint256"
            },
            {
              "internalType": "bool",
              "name": "numberSign",
              "type": "bool"
            },
            {
              "internalType": "enum IJSInterpreter.JSValueType",
              "name": "valueType",
              "type": "uint8"
            }
          ],
          "internalType": "struct IJSInterpreter.JSValue[]",
          "name": "_args",
          "type": "tuple[]"
        }
      ],
      "name": "execute",
      "outputs": [
        {
          "components": [
            {
              "internalType": "bytes",
              "name": "value",
              "type": "bytes"
            },
            {
              "internalType": "uint256",
              "name": "identifierIndex",
              "type": "uint256"
            },
            {
              "internalType": "bool",
              "name": "numberSign",
              "type": "bool"
            },
            {
              "internalType": "enum IJSInterpreter.JSValueType",
              "name": "valueType",
              "type": "uint8"
            }
          ],
          "internalType": "struct IJSInterpreter.JSValue",
          "name": "",
          "type": "tuple"
        }
      ],
      "stateMutability": "view",
      "type": "function"
    },
    {
      "inputs": [
        {
          "internalType": "uint256",
          "name": "_tokenId",
          "type": "uint256"
        },
        {
          "components": [
            {
              "internalType": "bytes",
              "name": "value",
              "type": "bytes"
            },
            {
              "internalType": "uint256",
              "name": "identifierIndex",
              "type": "uint256"
            },
            {
              "internalType": "bool",
              "name": "numberSign",
              "type": "bool"
            },
            {
              "internalType": "enum IJSInterpreter.JSValueType",
              "name": "valueType",
              "type": "uint8"
            }
          ],
          "internalType": "struct IJSInterpreter.JSValue[]",
          "name": "_args",
          "type": "tuple[]"
        }
      ],
      "name": "executeToString",
      "outputs": [
        {
          "internalType": "string",
          "name": "",
          "type": "string"
        }
      ],
      "stateMutability": "view",
      "type": "function"
    },
    {
      "inputs": [],
      "name": "fontProvider",
      "outputs": [
        {
          "internalType": "contract IFontProvider",
          "name": "",
          "type": "address"
        }
      ],
      "stateMutability": "view",
      "type": "function"
    },
    {
      "inputs": [
        {
          "internalType": "uint256",
          "name": "tokenId",
          "type": "uint256"
        }
      ],
      "name": "getApproved",
      "outputs": [
        {
          "internalType": "address",
          "name": "",
          "type": "address"
        }
      ],
      "stateMutability": "view",
      "type": "function"
    },
    {
      "inputs": [
        {
          "internalType": "uint256",
          "name": "_tokenId",
          "type": "uint256"
        }
      ],
      "name": "getCreator",
      "outputs": [
        {
          "internalType": "address",
          "name": "",
          "type": "address"
        }
      ],
      "stateMutability": "view",
      "type": "function"
    },
    {
      "inputs": [
        {
          "internalType": "uint256",
          "name": "_tokenId",
          "type": "uint256"
        }
      ],
      "name": "getExecutedCount",
      "outputs": [
        {
          "internalType": "uint256",
          "name": "",
          "type": "uint256"
        }
      ],
      "stateMutability": "view",
      "type": "function"
    },
    {
      "inputs": [
        {
          "internalType": "uint256",
          "name": "_tokenId",
          "type": "uint256"
        }
      ],
      "name": "getPriceOf",
      "outputs": [
        {
          "internalType": "uint256",
          "name": "",
          "type": "uint256"
        }
      ],
      "stateMutability": "view",
      "type": "function"
    },
    {
      "inputs": [
        {
          "internalType": "address",
          "name": "_creator",
          "type": "address"
        }
      ],
      "name": "getTokenIdsByCreator",
      "outputs": [
        {
          "internalType": "uint256[]",
          "name": "",
          "type": "uint256[]"
        }
      ],
      "stateMutability": "view",
      "type": "function"
    },
    {
      "inputs": [
        {
          "internalType": "address",
          "name": "_owner",
          "type": "address"
        }
      ],
      "name": "getTokenIdsByOwner",
      "outputs": [
        {
          "internalType": "uint256[]",
          "name": "",
          "type": "uint256[]"
        }
      ],
      "stateMutability": "view",
      "type": "function"
    },
    {
      "inputs": [
        {
          "internalType": "uint256",
          "name": "_tokenId",
          "type": "uint256"
        }
      ],
      "name": "incrementExecutedCount",
      "outputs": [],
      "stateMutability": "nonpayable",
      "type": "function"
    },
    {
      "inputs": [
        {
          "internalType": "contract ISnippetJS",
          "name": "_snippetJs",
          "type": "address"
        },
        {
          "internalType": "contract IFontProvider",
          "name": "_fontProvider",
          "type": "address"
        },
        {
          "internalType": "contract ITokenCategoryStore",
          "name": "_categoryStore",
          "type": "address"
        },
        {
          "internalType": "contract IPayoutHandler",
          "name": "_payoutHandler",
          "type": "address"
        }
      ],
      "name": "initialize",
      "outputs": [],
      "stateMutability": "nonpayable",
      "type": "function"
    },
    {
      "inputs": [
        {
          "internalType": "address",
          "name": "owner",
          "type": "address"
        },
        {
          "internalType": "address",
          "name": "operator",
          "type": "address"
        }
      ],
      "name": "isApprovedForAll",
      "outputs": [
        {
          "internalType": "bool",
          "name": "",
          "type": "bool"
        }
      ],
      "stateMutability": "view",
      "type": "function"
    },
    {
      "inputs": [
        {
          "internalType": "uint256",
          "name": "_tokenId",
          "type": "uint256"
        }
      ],
      "name": "isDisabled",
      "outputs": [
        {
          "internalType": "bool",
          "name": "",
          "type": "bool"
        }
      ],
      "stateMutability": "view",
      "type": "function"
    },
    {
      "inputs": [
        {
          "components": [
            {
              "internalType": "address",
              "name": "creator",
              "type": "address"
            },
            {
              "internalType": "string",
              "name": "code",
              "type": "string"
            },
            {
              "internalType": "string",
              "name": "lang",
              "type": "string"
            },
            {
              "internalType": "string",
              "name": "name",
              "type": "string"
            },
            {
              "internalType": "string",
              "name": "description",
              "type": "string"
            },
            {
              "internalType": "string",
              "name": "content",
              "type": "string"
            },
            {
              "internalType": "string",
              "name": "contentColor",
              "type": "string"
            },
            {
              "internalType": "string",
              "name": "contentOpacity",
              "type": "string"
            },
            {
              "internalType": "string",
              "name": "backgroundColor",
              "type": "string"
            },
            {
              "internalType": "uint32",
              "name": "contentOffsetX",
              "type": "uint32"
            },
            {
              "internalType": "uint32",
              "name": "contentOffsetY",
              "type": "uint32"
            }
          ],
          "internalType": "struct IExeToken.TokenAttributes",
          "name": "_attrs",
          "type": "tuple"
        },
        {
          "internalType": "uint32[]",
          "name": "_categories",
          "type": "uint32[]"
        },
        {
          "components": [
            {
              "internalType": "address[]",
              "name": "contractAddresses",
              "type": "address[]"
            },
            {
              "internalType": "uint256[]",
              "name": "exeTokenIds",
              "type": "uint256[]"
            }
          ],
          "internalType": "struct IExeToken.Dependencies",
          "name": "dependencies",
          "type": "tuple"
        }
      ],
      "name": "mint",
      "outputs": [
        {
          "internalType": "uint256",
          "name": "",
          "type": "uint256"
        }
      ],
      "stateMutability": "nonpayable",
      "type": "function"
    },
    {
      "inputs": [],
      "name": "name",
      "outputs": [
        {
          "internalType": "string",
          "name": "",
          "type": "string"
        }
      ],
      "stateMutability": "view",
      "type": "function"
    },
    {
      "inputs": [],
      "name": "owner",
      "outputs": [
        {
          "internalType": "address",
          "name": "",
          "type": "address"
        }
      ],
      "stateMutability": "view",
      "type": "function"
    },
    {
      "inputs": [
        {
          "internalType": "uint256",
          "name": "tokenId",
          "type": "uint256"
        }
      ],
      "name": "ownerOf",
      "outputs": [
        {
          "internalType": "address",
          "name": "",
          "type": "address"
        }
      ],
      "stateMutability": "view",
      "type": "function"
    },
    {
      "inputs": [],
      "name": "payoutHandler",
      "outputs": [
        {
          "internalType": "contract IPayoutHandler",
          "name": "",
          "type": "address"
        }
      ],
      "stateMutability": "view",
      "type": "function"
    },
    {
      "inputs": [
        {
          "components": [
            {
              "internalType": "address",
              "name": "creator",
              "type": "address"
            },
            {
              "internalType": "string",
              "name": "code",
              "type": "string"
            },
            {
              "internalType": "string",
              "name": "lang",
              "type": "string"
            },
            {
              "internalType": "string",
              "name": "name",
              "type": "string"
            },
            {
              "internalType": "string",
              "name": "description",
              "type": "string"
            },
            {
              "internalType": "string",
              "name": "content",
              "type": "string"
            },
            {
              "internalType": "string",
              "name": "contentColor",
              "type": "string"
            },
            {
              "internalType": "string",
              "name": "contentOpacity",
              "type": "string"
            },
            {
              "internalType": "string",
              "name": "backgroundColor",
              "type": "string"
            },
            {
              "internalType": "uint32",
              "name": "contentOffsetX",
              "type": "uint32"
            },
            {
              "internalType": "uint32",
              "name": "contentOffsetY",
              "type": "uint32"
            }
          ],
          "internalType": "struct IExeToken.TokenAttributes",
          "name": "_attrs",
          "type": "tuple"
        },
        {
          "components": [
            {
              "internalType": "bytes",
              "name": "value",
              "type": "bytes"
            },
            {
              "internalType": "uint256",
              "name": "identifierIndex",
              "type": "uint256"
            },
            {
              "internalType": "bool",
              "name": "numberSign",
              "type": "bool"
            },
            {
              "internalType": "enum IJSInterpreter.JSValueType",
              "name": "valueType",
              "type": "uint8"
            }
          ],
          "internalType": "struct IJSInterpreter.JSValue[]",
          "name": "_args",
          "type": "tuple[]"
        }
      ],
      "name": "preview",
      "outputs": [
        {
          "internalType": "string",
          "name": "",
          "type": "string"
        }
      ],
      "stateMutability": "view",
      "type": "function"
    },
    {
      "inputs": [
        {
          "internalType": "uint256",
          "name": "_tokenId",
          "type": "uint256"
        },
        {
          "internalType": "address",
          "name": "_buyer",
          "type": "address"
        }
      ],
      "name": "purchase",
      "outputs": [],
      "stateMutability": "payable",
      "type": "function"
    },
    {
      "inputs": [],
      "name": "renounceOwnership",
      "outputs": [],
      "stateMutability": "nonpayable",
      "type": "function"
    },
    {
      "inputs": [
        {
          "internalType": "address",
          "name": "from",
          "type": "address"
        },
        {
          "internalType": "address",
          "name": "to",
          "type": "address"
        },
        {
          "internalType": "uint256",
          "name": "tokenId",
          "type": "uint256"
        }
      ],
      "name": "safeTransferFrom",
      "outputs": [],
      "stateMutability": "nonpayable",
      "type": "function"
    },
    {
      "inputs": [
        {
          "internalType": "address",
          "name": "from",
          "type": "address"
        },
        {
          "internalType": "address",
          "name": "to",
          "type": "address"
        },
        {
          "internalType": "uint256",
          "name": "tokenId",
          "type": "uint256"
        },
        {
          "internalType": "bytes",
          "name": "data",
          "type": "bytes"
        }
      ],
      "name": "safeTransferFrom",
      "outputs": [],
      "stateMutability": "nonpayable",
      "type": "function"
    },
    {
      "inputs": [
        {
          "internalType": "address",
          "name": "_admin",
          "type": "address"
        }
      ],
      "name": "setAdmin",
      "outputs": [],
      "stateMutability": "nonpayable",
      "type": "function"
    },
    {
      "inputs": [
        {
          "internalType": "address",
          "name": "operator",
          "type": "address"
        },
        {
          "internalType": "bool",
          "name": "approved",
          "type": "bool"
        }
      ],
      "name": "setApprovalForAll",
      "outputs": [],
      "stateMutability": "nonpayable",
      "type": "function"
    },
    {
      "inputs": [
        {
          "internalType": "contract ITokenCategoryStore",
          "name": "_categoryStore",
          "type": "address"
        }
      ],
      "name": "setCategoryStore",
      "outputs": [],
      "stateMutability": "nonpayable",
      "type": "function"
    },
    {
      "inputs": [
        {
          "internalType": "uint256",
          "name": "_tokenId",
          "type": "uint256"
        },
        {
          "internalType": "bool",
          "name": "disabled",
          "type": "bool"
        }
      ],
      "name": "setDisabled",
      "outputs": [],
      "stateMutability": "nonpayable",
      "type": "function"
    },
    {
      "inputs": [
        {
          "internalType": "contract IFontProvider",
          "name": "_fontProvider",
          "type": "address"
        }
      ],
      "name": "setFontProvider",
      "outputs": [],
      "stateMutability": "nonpayable",
      "type": "function"
    },
    {
      "inputs": [
        {
          "internalType": "contract IPayoutHandler",
          "name": "_payoutHandler",
          "type": "address"
        }
      ],
      "name": "setPayoutHandler",
      "outputs": [],
      "stateMutability": "nonpayable",
      "type": "function"
    },
    {
      "inputs": [
        {
          "internalType": "uint256",
          "name": "_tokenId",
          "type": "uint256"
        },
        {
          "internalType": "uint256",
          "name": "_price",
          "type": "uint256"
        }
      ],
      "name": "setPriceOf",
      "outputs": [],
      "stateMutability": "nonpayable",
      "type": "function"
    },
    {
      "inputs": [
        {
          "internalType": "contract ISnippetJS",
          "name": "_snippetJs",
          "type": "address"
        }
      ],
      "name": "setSnippetJs",
      "outputs": [],
      "stateMutability": "nonpayable",
      "type": "function"
    },
    {
      "inputs": [],
      "name": "snippetJs",
      "outputs": [
        {
          "internalType": "contract ISnippetJS",
          "name": "",
          "type": "address"
        }
      ],
      "stateMutability": "view",
      "type": "function"
    },
    {
      "inputs": [
        {
          "internalType": "bytes4",
          "name": "interfaceId",
          "type": "bytes4"
        }
      ],
      "name": "supportsInterface",
      "outputs": [
        {
          "internalType": "bool",
          "name": "",
          "type": "bool"
        }
      ],
      "stateMutability": "view",
      "type": "function"
    },
    {
      "inputs": [],
      "name": "symbol",
      "outputs": [
        {
          "internalType": "string",
          "name": "",
          "type": "string"
        }
      ],
      "stateMutability": "view",
      "type": "function"
    },
    {
      "inputs": [
        {
          "internalType": "string",
          "name": "_code",
          "type": "string"
        },
        {
          "components": [
            {
              "internalType": "bytes",
              "name": "value",
              "type": "bytes"
            },
            {
              "internalType": "uint256",
              "name": "identifierIndex",
              "type": "uint256"
            },
            {
              "internalType": "bool",
              "name": "numberSign",
              "type": "bool"
            },
            {
              "internalType": "enum IJSInterpreter.JSValueType",
              "name": "valueType",
              "type": "uint8"
            }
          ],
          "internalType": "struct IJSInterpreter.JSValue[]",
          "name": "_args",
          "type": "tuple[]"
        }
      ],
      "name": "test",
      "outputs": [
        {
          "internalType": "string",
          "name": "",
          "type": "string"
        }
      ],
      "stateMutability": "view",
      "type": "function"
    },
    {
      "inputs": [
        {
          "internalType": "uint256",
          "name": "index",
          "type": "uint256"
        }
      ],
      "name": "tokenByIndex",
      "outputs": [
        {
          "internalType": "uint256",
          "name": "",
          "type": "uint256"
        }
      ],
      "stateMutability": "view",
      "type": "function"
    },
    {
      "inputs": [
        {
          "internalType": "address",
          "name": "owner",
          "type": "address"
        },
        {
          "internalType": "uint256",
          "name": "index",
          "type": "uint256"
        }
      ],
      "name": "tokenOfOwnerByIndex",
      "outputs": [
        {
          "internalType": "uint256",
          "name": "",
          "type": "uint256"
        }
      ],
      "stateMutability": "view",
      "type": "function"
    },
    {
      "inputs": [
        {
          "internalType": "uint256",
          "name": "_tokenId",
          "type": "uint256"
        }
      ],
      "name": "tokenURI",
      "outputs": [
        {
          "internalType": "string",
          "name": "",
          "type": "string"
        }
      ],
      "stateMutability": "view",
      "type": "function"
    },
    {
      "inputs": [],
      "name": "totalSupply",
      "outputs": [
        {
          "internalType": "uint256",
          "name": "",
          "type": "uint256"
        }
      ],
      "stateMutability": "view",
      "type": "function"
    },
    {
      "inputs": [
        {
          "internalType": "string",
          "name": "_code",
          "type": "string"
        },
        {
          "components": [
            {
              "internalType": "bytes",
              "name": "value",
              "type": "bytes"
            },
            {
              "internalType": "uint256",
              "name": "identifierIndex",
              "type": "uint256"
            },
            {
              "internalType": "bool",
              "name": "numberSign",
              "type": "bool"
            },
            {
              "internalType": "enum IJSInterpreter.JSValueType",
              "name": "valueType",
              "type": "uint8"
            }
          ],
          "internalType": "struct IJSInterpreter.JSValue[]",
          "name": "_args",
          "type": "tuple[]"
        }
      ],
      "name": "traceDependencies",
      "outputs": [
        {
          "components": [
            {
              "internalType": "address[]",
              "name": "contractDependees",
              "type": "address[]"
            },
            {
              "internalType": "uint256[]",
              "name": "exeTokenDependees",
              "type": "uint256[]"
            }
          ],
          "internalType": "struct IJSInterpreter.Dependencies",
          "name": "dependencies",
          "type": "tuple"
        }
      ],
      "stateMutability": "view",
      "type": "function"
    },
    {
      "inputs": [
        {
          "internalType": "address",
          "name": "from",
          "type": "address"
        },
        {
          "internalType": "address",
          "name": "to",
          "type": "address"
        },
        {
          "internalType": "uint256",
          "name": "tokenId",
          "type": "uint256"
        }
      ],
      "name": "transferFrom",
      "outputs": [],
      "stateMutability": "nonpayable",
      "type": "function"
    },
    {
      "inputs": [
        {
          "internalType": "address",
          "name": "newOwner",
          "type": "address"
        }
      ],
      "name": "transferOwnership",
      "outputs": [],
      "stateMutability": "nonpayable",
      "type": "function"
    }
  ],
  "bytecode": "0x60808060405234610017576159cb90816200001d8239f35b600080fdfe60806040526004361015610013575b600080fd5b60003560e01c806301ffc9a7146103ab57806306fdde03146103a2578063081812fc14610399578063095ea7b31461039057806311eadb851461038757806315ea29be1461037e57806318160ddd146103755780631fd19eba1461036c57806323b872dd146103635780632f745c591461035a578063392ad8f31461035157806342842e0e146103485780634c4181d91461033f5780634f6ccce71461033657806356a1c2391461032d5780636352211e1461032457806364fb83b11461031b578063675cb4e5146103125780636970bb0a146103095780636c40ea4b14610300578063704b6c02146102f757806370a08231146102ee578063715018a6146102e55780637b12246b146102dc57806382801191146102d357806385a7185e146102ca5780638da5cb5b146102c157806395d89b41146102b8578063a22cb465146102af578063a498f4f4146102a6578063ad25ca291461029d578063ae77c23714610294578063b0ec0c021461028b578063b54b4fb914610282578063b88d4fde14610279578063c87b56dd14610270578063ca7e89dc14610267578063cdf416801461025e578063d48e638a14610255578063e985e9c51461024c578063ea84bbaf14610243578063f2fde38b1461023a578063f851a44014610231578063f8c8765e14610228578063fba49e4f1461021f5763fedd0f001461021757600080fd5b61000e612266565b5061000e6121f6565b5061000e6120e3565b5061000e6120bb565b5061000e612013565b5061000e611fea565b5061000e611f7f565b5061000e611e64565b5061000e611dad565b5061000e611d4a565b5061000e611bf5565b5061000e611b9d565b5061000e611afd565b5061000e611a9a565b5061000e61195c565b5061000e61191d565b5061000e61183e565b5061000e6116dd565b5061000e611635565b5061000e61160d565b5061000e611555565b5061000e611466565b5061000e6113ad565b5061000e611350565b5061000e611328565b5061000e6112e3565b5061000e6112ba565b5061000e611223565b5061000e6111af565b5061000e611174565b5061000e611155565b5061000e61102e565b5061000e610df0565b5061000e610cc5565b5061000e610b75565b5061000e610b4c565b5061000e610b18565b5061000e610aee565b5061000e610928565b5061000e6108c9565b5061000e610800565b5061000e610793565b5061000e61067f565b5061000e610631565b5061000e61054b565b5061000e6103de565b7fffffffff0000000000000000000000000000000000000000000000000000000081160361000e57565b503461000e57602036600319011261000e5760207fffffffff0000000000000000000000000000000000000000000000000000000060043561041f816103b4565b167f780e9d63000000000000000000000000000000000000000000000000000000008114908115610456575b506040519015158152f35b7f80ac58cd000000000000000000000000000000000000000000000000000000008114915081156104ba575b8115610490575b503861044b565b7f01ffc9a70000000000000000000000000000000000000000000000000000000091501438610489565b7f5b5e139f0000000000000000000000000000000000000000000000000000000081149150610482565b600091031261000e57565b60005b8381106105025750506000910152565b81810151838201526020016104f2565b9060209161052b815180928185528580860191016104ef565b601f01601f1916010190565b906020610548928181520190610512565b90565b503461000e5760008060031936011261062e57604051908060975461056f81612426565b8085529160019180831690811561060457506001146105a9575b6105a58561059981870382610f38565b60405191829182610537565b0390f35b9250609783527f354a83ed9988f79f6038d4c7a7dadbad8af32f4ad6df893e0e5807a1b1944ff95b8284106105ec575050508101602001610599826105a5610589565b805460208587018101919091529093019281016105d1565b8695506105a59693506020925061059994915060ff191682840152151560051b8201019293610589565b80fd5b503461000e57602036600319011261000e576020610650600435612575565b6001600160a01b0360405191168152f35b6001600160a01b0381160361000e57565b359061067d82610661565b565b503461000e57604036600319011261000e5760043561069d81610661565b6024356106a981612404565b916001600160a01b038084168091831614610729576106db936106d69133149081156106dd575b50612504565b612962565b005b610723915061071c9061070433916001600160a01b0316600052609c602052604060002090565b906001600160a01b0316600052602052604060002090565b5460ff1690565b386106d0565b608460405162461bcd60e51b815260206004820152602160248201527f4552433732313a20617070726f76616c20746f2063757272656e74206f776e6560448201527f72000000000000000000000000000000000000000000000000000000000000006064820152fd5b503461000e57602036600319011261000e576004356107b181610661565b6001600160a01b038060335416331480156107e9575b6107d0906134e8565b61010291166001600160a01b0319825416179055600080f35b5060fb54811633146107c7565b8015150361000e57565b503461000e57604036600319011261000e57602435600435610821826107f6565b6108606001600160a01b03806033541633149081821592836108bc575b610847906134e8565b6108548560fe5411613533565b916108ae575b506134e8565b60009181835260ff60205261088481604085209060ff801983541691151516179055565b1515907f13723d113cacd273de1c6a40fd31f530c1868b6bf42f5833f70350ff78d79ad28380a380f35b60fb5416331490503861085a565b5060fb548216331461083e565b503461000e57600036600319011261000e57602060cb54604051908152f35b908161016091031261000e5790565b9181601f8401121561000e5782359167ffffffffffffffff831161000e576020808501948460051b01011161000e57565b503461000e57604036600319011261000e5767ffffffffffffffff60043581811161000e5761095b9036906004016108e8565b9060243581811161000e576109749036906004016108f7565b916101608436031261000e57610988610f5a565b9161099285610672565b8352602085013582811161000e576109ad9036908701611b56565b6020840152604085013582811161000e576109cb9036908701611b56565b6040840152606085013582811161000e576109e99036908701611b56565b6060840152608085013582811161000e57610a079036908701611b56565b608084015260a085013582811161000e57610a259036908701611b56565b60a084015260c085013582811161000e57610a439036908701611b56565b60c084015260e085013582811161000e57610a619036908701611b56565b60e0840152610100938486013592831161000e576105a59561059995610a8d610abc9536908401611b56565b90860152610120610a9f81830161361d565b90860152610ab161014080920161361d565b908501523691613632565b906143eb565b606090600319011261000e57600435610ada81610661565b90602435610ae781610661565b9060443590565b503461000e576106db610b0036610ac2565b91610b13610b0e84336126f0565b6125b7565b6127e2565b503461000e57604036600319011261000e576020610b44600435610b3b81610661565b60243590612b93565b604051908152f35b503461000e57600036600319011261000e5760206001600160a01b036101045416604051908152f35b503461000e576106db610b8736610ac2565b90604051926020840184811067ffffffffffffffff821117610bb0575b6040526000845261265a565b610bb8610eac565b610ba4565b604060031982011261000e576004359167ffffffffffffffff80841161000e578260238501121561000e5783600401359381851161000e57836024868301011161000e57602401939260243591821161000e57610c1c916004016108f7565b9091565b90815180825260208080930193019160005b828110610c40575050505090565b835185529381019392810192600101610c32565b9190916040830192815190604081528151809552606081019260208093016000965b808810610c9457505061054894955082015191818403910152610c20565b909484806001926001600160a01b03895116815201960197019690610c76565b906020610548928181520190610c54565b503461000e57610cf9610d5a6000610cdc36610bbd565b92919590610ce86136f5565b50610cf16136f5565b933691613632565b9460209586840152610d23610d17610100546001600160a01b031690565b6001600160a01b031690565b91604051958694859384937f8336b54900000000000000000000000000000000000000000000000000000000855260048501613951565b03915afa908115610de3575b600091610dc2575b5060fc54919060005b82820180518051831015610db45785610da3848094610d9c610daf97610daa966135ed565b50516135ed565b51106142f0565b613599565b610d77565b604051806105a58682610cb4565b610ddd913d8091833e610dd58183610f38565b810190614228565b38610d6e565b610deb612a10565b610d66565b503461000e57602036600319011261000e5760043560cb54811015610e425760cb6000527fa7ce836d032b2bf62b7e2097a8e0a6d8aeb35405ad15271e96d3b0188a1d06fb0154604051908152602090f35b608460405162461bcd60e51b815260206004820152602c60248201527f455243373231456e756d657261626c653a20676c6f62616c20696e646578206f60448201527f7574206f6620626f756e647300000000000000000000000000000000000000006064820152fd5b50634e487b7160e01b600052604160045260246000fd5b6040810190811067ffffffffffffffff821117610edf57604052565b610ee7610eac565b604052565b6080810190811067ffffffffffffffff821117610edf57604052565b67ffffffffffffffff8111610edf57604052565b6060810190811067ffffffffffffffff821117610edf57604052565b90601f8019910116810190811067ffffffffffffffff821117610edf57604052565b60405190610160820182811067ffffffffffffffff821117610edf57604052565b60405190610120820182811067ffffffffffffffff821117610edf57604052565b6040519061067d82610ec3565b60209067ffffffffffffffff8111610fc3575b60051b0190565b610fcb610eac565b610fbc565b81601f8201121561000e57803591610fe783610fa9565b92610ff56040519485610f38565b808452602092838086019260051b82010192831161000e578301905b82821061101f575050505090565b81358152908301908301611011565b503461000e5760031960603682011261000e57600467ffffffffffffffff813581811161000e5761106290369084016108e8565b60243582811161000e5761107990369085016108f7565b916044359584871161000e57604090873603011261000e576040519361109e85610ec3565b8686013581811161000e578701903660238301121561000e5786820135916110c583610fa9565b906110d36040519283610f38565b83825260209360248584019160051b8301019136831161000e576024869101915b83831061113b57505050508652602488013590811161000e576105a59761112b976111229236920101610fd0565b908501526139be565b6040519081529081906020820190565b8190833561114881610661565b81520191019085906110f4565b503461000e57602036600319011261000e576020610650600435612404565b503461000e57602036600319011261000e576004356111968160fe5411613533565b6000526101036020526020604060002054604051908152f35b503461000e57602036600319011261000e576004356111cd81610661565b6001600160a01b03806033541633148015611205575b6111ec906134e8565b61010491166001600160a01b0319825416179055600080f35b5060fb54811633146111e3565b906020610548928181520190610c20565b503461000e57602036600319011261000e5760043561124181610661565b61124a8161232f565b61125381610fa9565b916112616040519384610f38565b818352601f1961127083610fa9565b0136602085013760005b82811061129757604051602080825281906105a590820187610c20565b806112a56112b59284612b93565b6112af82876135ed565b52613599565b61127a565b503461000e57600036600319011261000e5760206001600160a01b036101015416604051908152f35b503461000e57602036600319011261000e576001600160a01b0360043561130981610661565b61131161228f565b166001600160a01b031960fb54161760fb55600080f35b503461000e57602036600319011261000e576020610b4460043561134b81610661565b61232f565b503461000e5760008060031936011261062e5761136b61228f565b806001600160a01b036033546001600160a01b03198116603355167f8be0079c531659141344cd1fd0a4f28419497f9722a3daafe3b4186f6b6457e08280a380f35b503461000e5760208060031936011261000e576001600160a01b036004356113d481610661565b1660005260fd8152604060002090604051908181845491828152019360005281600020916000905b82821061141f576105a58561141381890382610f38565b60405191829182611212565b8354865294850194600193840193909101906113fc565b90604060031983011261000e57600435916024359067ffffffffffffffff821161000e57610c1c916004016108f7565b503461000e576105a561150660006114d36114af61148336611436565b939180869492945260ff6020526114a160ff604088205416156140bf565b6114a9615773565b506157e5565b916114b86136f5565b936114c1613752565b85526114cc856154e6565b3691613632565b602083015260206001600160a01b036101005416910151604051809581948293635a5c64ef60e11b8452600484016141a5565b03915afa908115611548575b600091611527575b5060405191829182610537565b611542913d8091833e61153a8183610f38565b810190613827565b3861151a565b611550612a10565b611512565b503461000e57602036600319011261000e576004356001600160a01b0390816033541633148015611600575b61158a906134e8565b6115978160fe5411613533565b8060005261010360205260406000206115b08154613599565b90556115ba615773565b50816115c5826157e5565b5116907f95474fc50506241409126520ce4036ede1ce133514e0e746730e5ab426cf8f7160206115f483612404565b604051428152951694a4005b5060fb5482163314611581565b503461000e57600036600319011261000e5760206001600160a01b0360335416604051908152f35b503461000e5760008060031936011261062e57604051908060985461165981612426565b808552916001918083169081156106045750600114611682576105a58561059981870382610f38565b9250609883527f2237a976fa961f5921fd19f2b03c925c725d77b20ce8f790c19709c03de4d8145b8284106116c5575050508101602001610599826105a5610589565b805460208587018101919091529093019281016116aa565b503461000e57604036600319011261000e576004356116fb81610661565b602435611707816107f6565b6001600160a01b0382169182331461178a57816117476117589233600052609c6020526040600020906001600160a01b0316600052602052604060002090565b9060ff801983541691151516179055565b604051901515815233907f17307eab39ab6107e8899845ad3d59bd9653f200f220920489ca2b5937696c3190602090a3005b606460405162461bcd60e51b815260206004820152601960248201527f4552433732313a20617070726f766520746f2063616c6c6572000000000000006044820152fd5b90600f8210156117db5752565b634e487b7160e01b600052602160045260246000fd5b906105489060608061180c8551608085526080850190610512565b946020810151602085015260408101511515604085015201519101906117ce565b9060206105489281815201906117f1565b503461000e576105a56118ce60006118826114af61185b36611436565b939161186893919361370e565b5080865260ff6020526114a160ff604088205416156140bf565b602083015260206001600160a01b0361010054169101516040518095819482937f72dcce11000000000000000000000000000000000000000000000000000000008452600484016141a5565b03915afa908115611910575b6000916118ef575b506040519182918261182d565b61190a913d8091833e6119028183610f38565b810190614115565b386118e2565b611918612a10565b6118da565b503461000e57602036600319011261000e5760043561193f8160fe5411613533565b60005260ff602052602060ff604060002054166040519015158152f35b50604036600319011261000e5760243560043561197882610661565b61198d81600052610105602052604060002090565b549061199a82151561433b565b6119a682341015614386565b611a2e600080604051602081017f3935f7bf000000000000000000000000000000000000000000000000000000008152611a03826119f588602483016020600191939293604081019481520152565b03601f198101845283610f38565b611a19610d17610104546001600160a01b031690565b91519134905af1611a28612a1d565b506143d1565b600081815261010560205260408120557f3fb02bfbf01f7dc3a4c6903acc6b06ca1d9af7647282593f46cbacefc288b602611a95611a6b83612404565b94611a778482886127e2565b6040519485526001600160a01b039081169516939081906020820190565b0390a4005b503461000e57602036600319011261000e57600435611ab881610661565b6001600160a01b03806033541633148015611af0575b611ad7906134e8565b61010191166001600160a01b0319825416179055600080f35b5060fb5481163314611ace565b503461000e57602036600319011261000e576004356000526101056020526020604060002054604051908152f35b60209067ffffffffffffffff8111611b49575b601f01601f19160190565b611b51610eac565b611b3e565b81601f8201121561000e57803590611b6d82611b2b565b92611b7b6040519485610f38565b8284526020838301011161000e57816000926020809301838601378301015290565b503461000e57608036600319011261000e57600435611bbb81610661565b602435611bc781610661565b6064359167ffffffffffffffff831161000e57611beb6106db933690600401611b56565b916044359161265a565b503461000e5760208060031936011261000e576105996105a591600435908160005260ff8152611c2d60ff60406000205416156140bf565b611c35615773565b50611c438260fe5411613533565b611c4c82613bf0565b5091611d216009611c5b610f5a565b94611c7d611c7082546001600160a01b031690565b6001600160a01b03168752565b611c8960018201612460565b85870152611c9960028201612460565b6040870152611caa60038201612460565b6060870152611cbb60048201612460565b6080870152611ccc60058201612460565b60a0870152611cdd60068201612460565b60c0870152611cee60078201612460565b60e0870152611cff60088201612460565b610100870152015463ffffffff80821661012087015290841c16610140850152565b611d2a81612404565b906000526101038252610105604060002054925260406000205492614736565b503461000e57602036600319011261000e57600435611d6881610661565b6001600160a01b03806033541633148015611da0575b611d87906134e8565b61010091166001600160a01b0319825416179055600080f35b5060fb5481163314611d7e565b503461000e576105a5611e156000611de5611dc736610bbd565b9390611dd16136f5565b94611dda613752565b86526114cc866154e6565b60208401526001600160a01b0361010054169160405195869485938493635a5c64ef60e11b855260048501613951565b03915afa908115611e57575b600091611e3e575b50604051918291602083526020830190610512565b611e51913d8091833e61153a8183610f38565b38611e29565b611e5f612a10565b611e21565b503461000e57602036600319011261000e5760206001600160a01b03611ea1600435611e8e615773565b50611e9c8160fe5411613533565b613bf0565b50611f756009611eaf610f5a565b92611ed1611ec482546001600160a01b031690565b6001600160a01b03168552565b611edd60018201612460565b86850152611eed60028201612460565b6040850152611efe60038201612460565b6060850152611f0f60048201612460565b6080850152611f2060058201612460565b60a0850152611f3160068201612460565b60c0850152611f4260078201612460565b60e0850152611f5360088201612460565b610100850152015463ffffffff80821661012085015290851c16610140830152565b5116604051908152f35b503461000e57604036600319011261000e57602060ff611fde600435611fa481610661565b6001600160a01b0360243591611fb983610661565b16600052609c84526040600020906001600160a01b0316600052602052604060002090565b54166040519015158152f35b503461000e57600036600319011261000e5760206001600160a01b036101005416604051908152f35b503461000e57602036600319011261000e5760043561203181610661565b61203961228f565b6001600160a01b03811615612051576106db906122e7565b608460405162461bcd60e51b815260206004820152602660248201527f4f776e61626c653a206e6577206f776e657220697320746865207a65726f206160448201527f64647265737300000000000000000000000000000000000000000000000000006064820152fd5b503461000e57600036600319011261000e5760206001600160a01b0360fb5416604051908152f35b503461000e57608036600319011261000e5760043561210181610661565b61216a60243561211081610661565b60443561211c81610661565b6064359161212983610661565b6000549461214e60ff8760081c1615809781986121e8575b81156121c8575b50612f9f565b85612161600160ff196000541617600055565b6121af57613049565b61217057005b61218061ff001960005416600055565b604051600181527f7f26b83ff96e1f2b6a682f133852f6798a09c465da95921460cefb384740249890602090a1005b6121c361010061ff00196000541617600055565b613049565b303b159150816121da575b5038612148565b6001915060ff1614386121d3565b600160ff8216109150612141565b503461000e57604036600319011261000e5760243560043561221661228f565b80600052610105602052816040600020557f63f8df81c89cbb917aad21e139d1b9f316c4b2794de827ecf75b2802bb30ad7260206001600160a01b0361225b84612404565b1693604051908152a3005b503461000e57600036600319011261000e5760206001600160a01b036101025416604051908152f35b6001600160a01b036033541633036122a357565b606460405162461bcd60e51b815260206004820152602060248201527f4f776e61626c653a2063616c6c6572206973206e6f7420746865206f776e65726044820152fd5b603354906001600160a01b0380911691826001600160a01b0319821617603355167f8be0079c531659141344cd1fd0a4f28419497f9722a3daafe3b4186f6b6457e0600080a3565b6001600160a01b0316801561234f57600052609a60205260406000205490565b608460405162461bcd60e51b815260206004820152602960248201527f4552433732313a2061646472657373207a65726f206973206e6f74206120766160448201527f6c6964206f776e657200000000000000000000000000000000000000000000006064820152fd5b156123c057565b606460405162461bcd60e51b815260206004820152601860248201527f4552433732313a20696e76616c696420746f6b656e20494400000000000000006044820152fd5b60005260996020526001600160a01b03604060002054166105488115156123b9565b90600182811c92168015612456575b602083101461244057565b634e487b7160e01b600052602260045260246000fd5b91607f1691612435565b906040519182600082549261247484612426565b9081845260019485811690816000146124e1575060011461249e575b505061067d92500383610f38565b9093915060005260209081600020936000915b8183106124c957505061067d93508201013880612490565b855488840185015294850194879450918301916124b1565b91505061067d94506020925060ff191682840152151560051b8201013880612490565b1561250b57565b608460405162461bcd60e51b815260206004820152603d60248201527f4552433732313a20617070726f76652063616c6c6572206973206e6f7420746f60448201527f6b656e206f776e6572206f7220617070726f76656420666f7220616c6c0000006064820152fd5b61259d6125988260005260996020526001600160a01b0360406000205416151590565b6123b9565b600052609b6020526001600160a01b036040600020541690565b156125be57565b608460405162461bcd60e51b815260206004820152602d60248201527f4552433732313a2063616c6c6572206973206e6f7420746f6b656e206f776e6560448201527f72206f7220617070726f766564000000000000000000000000000000000000006064820152fd5b604051906020820182811067ffffffffffffffff82111761264d575b60405260008252565b612655610eac565b612644565b9061267e93929161266e610b0e84336126f0565b6126798383836127e2565b612a4d565b1561268557565b60405162461bcd60e51b815260206004820152603260248201527f4552433732313a207472616e7366657220746f206e6f6e20455243373231526560448201527f63656976657220696d706c656d656e74657200000000000000000000000000006064820152608490fd5b6001600160a01b038061270284612404565b169281831692848414948515612738575b50508315612722575b50505090565b61272e91929350612575565b161438808061271c565b60ff9295509061276791600052609c6020526040600020906001600160a01b0316600052602052604060002090565b5416923880612713565b1561277857565b608460405162461bcd60e51b815260206004820152602560248201527f4552433732313a207472616e736665722066726f6d20696e636f72726563742060448201527f6f776e65720000000000000000000000000000000000000000000000000000006064820152fd5b612806906127ef84612404565b6001600160a01b0382811693909182168414612771565b83169283156128f9576128778261282187846128d296612c4a565b61283785612831610d178a612404565b14612771565b61285e61284e88600052609b602052604060002090565b6001600160a01b03198154169055565b6001600160a01b0316600052609a602052604060002090565b600019815401905561289c816001600160a01b0316600052609a602052604060002090565b600181540190556128b7856000526099602052604060002090565b906001600160a01b03166001600160a01b0319825416179055565b7fddf252ad1be2c89b69c2b068fc378daa952ba7f163c4a11628f55a4df523b3ef600080a4565b608460405162461bcd60e51b8152602060048201526024808201527f4552433732313a207472616e7366657220746f20746865207a65726f2061646460448201527f72657373000000000000000000000000000000000000000000000000000000006064820152fd5b81600052609b60205261298f816040600020906001600160a01b03166001600160a01b0319825416179055565b6001600160a01b03806129a184612404565b169116907f8c5be1e5ebec7d5bd14f71427d1e84f3dd0314c0f7b2291e5b200ac8c7c3b925600080a4565b9081602091031261000e5751610548816103b4565b909261054894936080936001600160a01b03809216845216602083015260408201528160608201520190610512565b506040513d6000823e3d90fd5b3d15612a48573d90612a2e82611b2b565b91612a3c6040519384610f38565b82523d6000602084013e565b606090565b92909190823b15612b8a57612aa19260209260006001600160a01b036040518097819682957f150b7a02000000000000000000000000000000000000000000000000000000009b8c855233600486016129e1565b0393165af160009181612b5a575b50612b3457612abc612a1d565b80519081612b2f5760405162461bcd60e51b815260206004820152603260248201527f4552433732313a207472616e7366657220746f206e6f6e20455243373231526560448201527f63656976657220696d706c656d656e74657200000000000000000000000000006064820152608490fd5b602001fd5b7fffffffff00000000000000000000000000000000000000000000000000000000161490565b612b7c91925060203d8111612b83575b612b748183610f38565b8101906129cc565b9038612aaf565b503d612b6a565b50505050600190565b612b9c8161232f565b821015612bc9576001600160a01b031660005260c960205260406000209060005260205260406000205490565b608460405162461bcd60e51b815260206004820152602b60248201527f455243373231456e756d657261626c653a206f776e657220696e646578206f7560448201527f74206f6620626f756e64730000000000000000000000000000000000000000006064820152fd5b50634e487b7160e01b600052603260045260246000fd5b9091906001600160a01b038082169182612c8d5750612c6883612df9565b831680612c7b57505061067d9150612e89565b03612c84575050565b61067d91612d76565b8185168303612c9d575b50612c68565b612ca68161232f565b6000198101908111612d69575b612cfe60009286845260ca6020526040842054838103612d0f575b5083612ce48860005260ca602052604060002090565b556001600160a01b031660005260c9602052604060002090565b908252602052604081205538612c97565b86855260c960205260408520848652602052612d626040862054612d46846001600160a01b031660005260c9602052604060002090565b83885260205280604088205560005260ca602052604060002090565b5538612cce565b612d71612e72565b612cb3565b604090612d828161232f565b926001600160a01b0360009216825260c96020528282208483526020528083832055815260ca6020522055565b80549068010000000000000000821015612dec575b60018201808255821015612ddf575b60005260206000200155565b612de7612c33565b612dd3565b612df4610eac565b612dc4565b60cb548160005260cc6020528060406000205568010000000000000000811015612e65575b600181018060cb55811015612e58575b60cb6000527fa7ce836d032b2bf62b7e2097a8e0a6d8aeb35405ad15271e96d3b0188a1d06fb0155565b612e60612c33565b612e2e565b612e6d610eac565b612e1e565b50634e487b7160e01b600052601160045260246000fd5b60cb80546000199290838101818111612f92575b612f39600093849281845260cc602052846040852054911015612f85575b868452612f287fa7ce836d032b2bf62b7e2097a8e0a6d8aeb35405ad15271e96d3b0188a1d06fa958681015490831015612f78575b88865280837fa7ce836d032b2bf62b7e2097a8e0a6d8aeb35405ad15271e96d3b0188a1d06fb015560005260cc602052604060002090565b5560005260cc602052604060002090565b558254938415612f645784019380851015612f57575b838352015555565b612f5f612c33565b612f4f565b602483634e487b7160e01b81526031600452fd5b612f80612c33565b612ef0565b612f8d612c33565b612ebb565b612f9a612e72565b612e9d565b15612fa657565b608460405162461bcd60e51b815260206004820152602e60248201527f496e697469616c697a61626c653a20636f6e747261637420697320616c72656160448201527f647920696e697469616c697a65640000000000000000000000000000000000006064820152fd5b6040519061301d82610ec3565b600382527f45584500000000000000000000000000000000000000000000000000000000006020830152565b916001600160a01b03916001600160a01b0319938361010091168582541617905582610101911684825416179055816101029116838254161790556101049216908254161790556130aa60ff60005460081c166130a58161312b565b61312b565b6130b3336122e7565b6130fa6040516130c281610ec3565b600881527f457865546f6b656e00000000000000000000000000000000000000000000000060208201526130f4613010565b9061319c565b61067d61310f6033546001600160a01b031690565b6001600160a01b03166001600160a01b031960fb54161760fb55565b1561313257565b608460405162461bcd60e51b815260206004820152602b60248201527f496e697469616c697a61626c653a20636f6e7472616374206973206e6f74206960448201527f6e697469616c697a696e670000000000000000000000000000000000000000006064820152fd5b906131b260ff60005460081c166130a58161312b565b815167ffffffffffffffff81116132ad575b6131d8816131d3609754612426565b6132ba565b602080601f831160011461321a5750819061067d9460009261320f575b50508160011b916000199060031b1c1916176097556133f0565b0151905038806131f5565b919293601f19841661324e60976000527f354a83ed9988f79f6038d4c7a7dadbad8af32f4ad6df893e0e5807a1b1944ff990565b936000905b82821061329557505091600193918561067d9796941061327c575b505050811b016097556133f0565b015160001960f88460031b161c1916905538808061326e565b80600186978294978701518155019601940190613253565b6132b5610eac565b6131c4565b601f81116132c6575050565b600090609782527f354a83ed9988f79f6038d4c7a7dadbad8af32f4ad6df893e0e5807a1b1944ff9906020601f850160051c83019410613321575b601f0160051c01915b82811061331657505050565b81815560010161330a565b9092508290613301565b601f8111613337575050565b600090609882527f2237a976fa961f5921fd19f2b03c925c725d77b20ce8f790c19709c03de4d814906020601f850160051c83019410613392575b601f0160051c01915b82811061338757505050565b81815560010161337b565b9092508290613372565b90601f81116133aa57505050565b600091825260208220906020601f850160051c830194106133e6575b601f0160051c01915b8281106133db57505050565b8181556001016133cf565b90925082906133c6565b90815167ffffffffffffffff81116134db575b61341781613412609854612426565b61332b565b602080601f83116001146134535750819293600092613448575b50508160011b916000199060031b1c191617609855565b015190503880613431565b90601f1983169461348660986000527f2237a976fa961f5921fd19f2b03c925c725d77b20ce8f790c19709c03de4d81490565b926000905b8782106134c35750508360019596106134aa575b505050811b01609855565b015160001960f88460031b161c1916905538808061349f565b8060018596829496860151815501950193019061348b565b6134e3610eac565b613403565b156134ef57565b606460405162461bcd60e51b815260206004820152600a60248201527f6f6e6c792061646d696e000000000000000000000000000000000000000000006044820152fd5b1561353a57565b606460405162461bcd60e51b815260206004820152601060248201527f746f6b656e206e6f7420657869737473000000000000000000000000000000006044820152fd5b6040519061358b82610f1c565b600282526040366020840137565b60019060001981146135a9570190565b6135b1612e72565b0190565b6020908051156135c3570190565b6135b1612c33565b6040908051600110156135c3570190565b6060908051600210156135c3570190565b6020918151811015613602575b60051b010190565b61360a612c33565b6135fa565b63ffffffff81160361000e57565b359061067d8261360f565b600f111561000e57565b92919061363e81610fa9565b9160409161364e83519485610f38565b839581855260208095019160051b81019383851161000e5781925b8584106136795750505050505050565b67ffffffffffffffff843581811161000e5784019160808388031261000e5783516136a381610eec565b833592831161000e57836136bc898c9695879601611b56565b82528381013584830152858101356136d3816107f6565b86830152606080910135906136e782613628565b820152815201930192613669565b6040519061370282610ec3565b60606020838281520152565b604051906080820182811067ffffffffffffffff821117613745575b60405260006060838181528260208201528260408201520152565b61374d610eac565b61372a565b604090815161376081610ec3565b60018152809160005b60208082101561379d5785516020929161378282610ec3565b6060825261378e61370e565b81830152828601015201613769565b505091925050565b6040908151916137b483610f1c565b600283528260005b8281106137c857505050565b60209083516137d681610ec3565b606081526137e261370e565b81840152838201830152016137bc565b909291926137ff81611b2b565b9161380d6040519384610f38565b82948284528282011161000e57602061067d9301906104ef565b60208183031261000e5780519067ffffffffffffffff821161000e57019080601f8301121561000e578151610548926020016137f2565b908082519081815260208091019281808460051b8301019501936000915b84831061388c5750505050505090565b90919293949584806138aa600193601f198682030187528a516117f1565b980193019301919493929061387c565b9190604090818101908451918382528251809152606082019060608160051b840101946020809501926000915b83831061390757505050505081610548949501519181840391015261385e565b90919293968680613942600193605f198a82030187528b519083613932835189845289840190610512565b92015190848184039101526117f1565b990193019301919392906138e7565b82610548949360609360408452816040850152848401376000838284010152601f80199101168101906020838284030191015201906138ba565b903590601e198136030182121561000e570180359067ffffffffffffffff821161000e5760200191813603831361000e57565b919092606083019060206139d2838661398b565b905011613bac5760fc54946139ee6139e987613599565b60fc55565b6139f88633613fa7565b613a0185613d23565b613a2f86613a2a613a1188613c39565b6001600160a01b031660005260fd602052604060002090565b612daf565b613a45610d17610102546001600160a01b031690565b90813b1561000e5760405180927fc5f4121e000000000000000000000000000000000000000000000000000000008252818981613a8b60009a8b97889460048501613ec5565b03925af18015613b9f575b613b8c575b50613ab2610d17610104546001600160a01b031690565b803b15613b8857613b5a613b54613b4e613b458796613b2e887fc263b302aec62d29105026245f19e16f8e0137066ccd4a8bd941f716bd4096bb986001600160a01b03988e809d6040518096819582947f42e9cb8800000000000000000000000000000000000000000000000000000000845260048401613f1a565b03925af18015613b7b575b613b62575b508961398b565b91829199613c39565b98613f31565b90613f3f565b94169180a490565b80613b6f613b7592610f08565b806104e4565b38613b3e565b613b83612a10565b613b39565b8380fd5b80613b6f613b9992610f08565b38613a9b565b613ba7612a10565b613a96565b606460405162461bcd60e51b815260206004820152601460248201527f6e616d65206c656e67746820757020746f2033320000000000000000000000006044820152fd5b600a9060fe54811015613c2c575b60fe600052027f54075df80ec1ae6ac9100e1fd0ebf3246c17f5c933137af392011f4c5f61513a0190600090565b613c34612c33565b613bfe565b3561054881610661565b90929167ffffffffffffffff8111613d0c575b613c6a81613c648454612426565b8461339c565b6000601f8211600114613ca45781929394600092613c99575b50508160011b916000199060031b1c1916179055565b013590503880613c83565b601f19821694613cb984600052602060002090565b91805b878110613cf4575083600195969710613cda575b505050811b019055565b0135600019600384901b60f8161c19169055388080613cd0565b90926020600181928686013581550194019101613cbc565b613d14610eac565b613c56565b356105488161360f565b613d4760fe5468010000000000000000811015613eb8575b6001810160fe55613bf0565b919091613ea257613e81610140600961067d94613d82613d6686613c39565b82906001600160a01b03166001600160a01b0319825416179055565b613d9c613d92602087018761398b565b9060018401613c43565b613db6613dac604087018761398b565b9060028401613c43565b613dd0613dc6606087018761398b565b9060038401613c43565b613dea613de0608087018761398b565b9060048401613c43565b613e04613dfa60a087018761398b565b9060058401613c43565b613e1e613e1460c087018761398b565b9060068401613c43565b613e38613e2e60e087018761398b565b9060078401613c43565b613e53613e4961010087018761398b565b9060088401613c43565b0192613e7b613e656101208301613d19565b855463ffffffff191663ffffffff909116178555565b01613d19565b67ffffffff0000000082549160201b169067ffffffff000000001916179055565b634e487b7160e01b600052600060045260246000fd5b613ec0610eac565b613d3b565b6060909391929360408101938152826020946040868401525201929160005b828110613ef2575050505090565b90919293828060019263ffffffff8835613f0b8161360f565b16815201950193929101613ee4565b604090610548939281528160208201520190610c54565b90929192831161000e579190565b359060208110613f4d575090565b6000199060200360031b1b1690565b15613f6357565b606460405162461bcd60e51b815260206004820152601c60248201527f4552433732313a20746f6b656e20616c7265616479206d696e746564000000006044820152fd5b6001600160a01b03811690811561407b5761405390613fe5613fdf8560005260996020526001600160a01b0360406000205416151590565b15613f5c565b613fee84612df9565b613ff88482612d76565b61401b613fdf8560005260996020526001600160a01b0360406000205416151590565b614038816001600160a01b0316600052609a602052604060002090565b600181540190556128b7846000526099602052604060002090565b60007fddf252ad1be2c89b69c2b068fc378daa952ba7f163c4a11628f55a4df523b3ef8180a4565b606460405162461bcd60e51b815260206004820152602060248201527f4552433732313a206d696e7420746f20746865207a65726f20616464726573736044820152fd5b156140c657565b606460405162461bcd60e51b815260206004820152600e60248201527f746f6b656e2064697361626c65640000000000000000000000000000000000006044820152fd5b519061067d82613628565b9060208282031261000e57815167ffffffffffffffff9283821161000e57019060808282031261000e576040519261414c84610eec565b825190811161000e5782019181601f8401121561000e5761417860609284602061419d965191016137f2565b8452602081015160208501526040810151614192816107f6565b60408501520161410a565b606082015290565b90916141bc61054893604084526040840190610512565b9160208184039101526138ba565b81601f8201121561000e578051916141e183610fa9565b926141ef6040519485610f38565b808452602092838086019260051b82010192831161000e578301905b828210614219575050505090565b8151815290830190830161420b565b90602090818382031261000e57825167ffffffffffffffff9384821161000e57019060408282031261000e576040519361426185610ec3565b825181811161000e57830182601f8201121561000e5780519061428382610fa9565b916142916040519384610f38565b808352868084019160051b8301019185831161000e5787809101915b8383106142d6575050505085528383015190811161000e576142cf92016141ca565b9082015290565b819083516142e381610661565b81520191019087906142ad565b156142f757565b606460405162461bcd60e51b815260206004820152601260248201527f696e76616c696420746f6b656e207573656400000000000000000000000000006044820152fd5b1561434257565b606460405162461bcd60e51b815260206004820152601460248201527f546f6b656e206973206e6f74206f6e2073616c650000000000000000000000006044820152fd5b1561438d57565b606460405162461bcd60e51b815260206004820152600f60248201527f4e6f7420656e6f7567682066756e6400000000000000000000000000000000006044820152fd5b1561000e57565b906135b1602092828151948592016104ef565b906143f69082615199565b606082015190608083015192604081015190602081015161441690614b69565b905161442a906001600160a01b0316614a8f565b6144326149fa565b9061443b61484d565b9261444461484d565b6040517f7b226e616d65223a220000000000000000000000000000000000000000000000602082015298899891969160298a01614480916143d8565b7f222c226465736372697074696f6e223a2200000000000000000000000000000081526011016144af916143d8565b7f222c2261747472696275746573223a5b0000000000000000000000000000000081526010017f7b2274726169745f74797065223a20226c616e67222c2276616c7565223a22008152601f01614504916143d8565b7f227d2c7b2274726169745f74797065223a2022636f6465222c2276616c75652281527f3a220000000000000000000000000000000000000000000000000000000000006020820152602201614559916143d8565b7f227d2c7b2274726169745f74797065223a202263726561746f72222c2276616c81527f7565223a2200000000000000000000000000000000000000000000000000000060208201526025016145ae916143d8565b7f227d2c7b2274726169745f74797065223a20226f776e6572222c2276616c7565815262111d1160e91b60208201526023016145e9916143d8565b7f227d2c7b2274726169745f74797065223a20226578656375746564436f756e7481527f222c2276616c7565223a220000000000000000000000000000000000000000006020820152602b0161463e916143d8565b7f227d2c7b2274726169745f74797065223a20227072696365222c2276616c7565815262111d1160e91b6020820152602301614679916143d8565b7f227d5d2c22696d616765223a22000000000000000000000000000000000000008152600d016146a8916143d8565b7f227d00000000000000000000000000000000000000000000000000000000000081526002010390601f199182810182526146e39082610f38565b6146ec90614b69565b6040517f646174613a6170706c69636174696f6e2f6a736f6e3b6261736536342c000000602082015291908290603d8201614726916143d8565b0390810182526105489082610f38565b92909261474281614f07565b91606082015193608083015195604084015193602081015161476390614b69565b9051614777906001600160a01b0316614a8f565b916001600160a01b031661478a90614a8f565b9261479490614886565b9361444490614886565b604051906147ab82610f1c565b602a82526040366020840137565b906147c382611b2b565b6147d06040519182610f38565b82815280926147e1601f1991611b2b565b0190602036910137565b90600282018092116147f957565b61067d612e72565b90600182018092116147f957565b90602082018092116147f957565b6021908051600110156135c3570190565b90602091805182101561484057010190565b614848612c33565b010190565b60405161485981610ec3565b600181527f3000000000000000000000000000000000000000000000000000000000000000602082015290565b801561493a576000818181805b61492257506148a1816147b9565b935b6148ad5750505090565b6000198101908111614915575b8091600a916148ff7fff0000000000000000000000000000000000000000000000000000000000000060308585068101809111614908575b60f81b16861a918761482e565b530490816148a3565b614910612e72565b6148f2565b61491d612e72565b6148ba565b915061492f600a91613599565b910480849291614893565b5060405161485981610ec3565b908160021b917f3fffffffffffffffffffffffffffffffffffffffffffffffffffffffffffffff8116036147f957565b90670de0b6b3a7640000918281029281840414901517156147f957565b80156149a2575b6000190190565b6149aa612e72565b61499b565b156149b657565b606460405162461bcd60e51b815260206004820152602060248201527f537472696e67733a20686578206c656e67746820696e73756666696369656e746044820152fd5b6000614a0461479e565b906030614a10836135b5565b536078614a1c8361481d565b536029905b60018211614a34576105489150156149af565b807f3031323334353637383961626364656600000000000000000000000000000000600f614a7c93166010811015614a82575b1a614a72848661482e565b5360041c91614994565b90614a21565b614a8a612c33565b614a67565b614a9761479e565b906030614aa3836135b5565b536078614aaf8361481d565b536029905b60018211614ac7576105489150156149af565b807f3031323334353637383961626364656600000000000000000000000000000000600f614b0493166010811015614a82571a614a72848661482e565b90614ab4565b60405190614b1782610f1c565b604082527f6768696a6b6c6d6e6f707172737475767778797a303132333435363738392b2f6040837f4142434445464748494a4b4c4d4e4f505152535455565758595a61626364656660208201520152565b805115614c8857614b78614b0a565b614b94614b8f614b8884516147eb565b6003900490565b614947565b91614ba6614ba18461480f565b6147b9565b92835280815182019060208501935b828210614c2c57505050600390510680600114614c0157600214614bd7575090565b7f3d0000000000000000000000000000000000000000000000000000000000000090600019015290565b507f3d3d00000000000000000000000000000000000000000000000000000000000090600119015290565b90919360049060038094019384516001603f81818460121c16880101519260f893841b8652828282600c1c1689010151841b8387015282828260061c1689010151841b60028701521686010151901b9082015201939190614bb5565b50610548612628565b60405190614c9e82610ec3565b600a82527f646174613a696d616765000000000000000000000000000000000000000000006020830152565b60405190614cd782610ec3565b600482527f6e616d65000000000000000000000000000000000000000000000000000000006020830152565b60405190614d1082610ec3565b600b82527f6465736372697074696f6e0000000000000000000000000000000000000000006020830152565b60405190614d4982610ec3565b600482527f636f6465000000000000000000000000000000000000000000000000000000006020830152565b60405190614d8282610ec3565b600682527f726573756c7400000000000000000000000000000000000000000000000000006020830152565b6000915b60028310614dbf57505050565b60019063ffffffff83511681526020809101920192019190614db2565b9291606061067d9261015e808752602087015260806040870152614e0e815161014060808901526101c0880190610512565b614e71614e5b614e48614e34602086015194607f19958c60a08882850301910152610512565b6040860151858c83030160c08d0152610512565b85850151848b83030160e08c0152610512565b6080840151610100938a830301848b0152610512565b91614e8560a08201516101208a0190614dae565b60c081015161016089015260e081015161018089015201516101a08701529401906001600160a01b03169052565b9061067d603a60405180947f646174613a696d6167652f7376672b786d6c3b6261736536342c0000000000006020830152614ef781518092602086860191016104ef565b810103601a810185520183610f38565b60a0810190614f27614f1983516158c1565b614f21614c91565b90615941565b15614f3157505190565b61503c60006105489361506b93606090614f4e8351614f21614cca565b84146150965761020091506060810151925b519060c08101519160e0820151610100938484015192614fbf614fb2610140614f87610f9c565b97614fa7614f9d61012083015163ffffffff1690565b63ffffffff168a52565b015163ffffffff1690565b63ffffffff166020870152565b614fc7610f7b565b978852602088015260408701526060860152608085015260a084015261015e8060c085015260e0840152820152615007610101546001600160a01b031690565b9060405193849283927f58c92ec000000000000000000000000000000000000000000000000000000000845260048401614ddc565b038173__$a9cfc77082101db5ccef86be7790d8b987$__5af4908115615089575b600091615070575b50614b69565b614eb3565b615083913d8091833e61153a8183610f38565b38615065565b615091612a10565b61505d565b6150a38351614f21614d03565b84146150b9576102009150608081015192614f60565b6150c68351614f21614d3c565b84146150dc576102009150602081015192614f60565b6150e98351614f21614d75565b6150f8575b6102009192614f60565b61515884610200936151086136f5565b9060208201526151166137a5565b8152615121816156ce565b615137610d17610100546001600160a01b031690565b6020850151604051809581948293635a5c64ef60e11b8452600484016141a5565b03915afa90811561518c575b8591615173575b5091506150ee565b615186913d8091833e61153a8183610f38565b3861516b565b615194612a10565b615164565b9060a08201916151ac614f1984516158c1565b156151b75750505190565b60006105489361506b9361503c936060916151d58451614f21614cca565b851461520e57506102009150606081015192519060c08101519160e0820151610100938484015192614fbf614fb2610140614f87610f9c565b61521b8451614f21614d03565b851461523257506102009150608081015192614f60565b61523f8451614f21614d3c565b851461525657506102009150602081015192614f60565b6152638451614f21614d75565b615273575b506102009192614f60565b610200925084615285916151086136f5565b03915afa9081156152b8575b859161529f575b5091615268565b6152b2913d8091833e61153a8183610f38565b38615298565b6152c0612a10565b615291565b6040519060a0820182811067ffffffffffffffff821117615304575b604052600060808360608152606060208201528260408201528260608201520152565b61530c610eac565b6152e1565b6040519061531e82610ec3565b600b82527f626c6f636b4e756d6265720000000000000000000000000000000000000000006020830152565b6040519061535782610ec3565b600982527f74696d657374616d7000000000000000000000000000000000000000000000006020830152565b6040519061539082610ec3565b6000602083606081520152565b604051906080820182811067ffffffffffffffff8211176153e7575b604052600382528160005b606081106153d0575050565b6020906153db6152c5565b828285010152016153c4565b6153ef610eac565b6153b9565b602091828252606092838301918051946040938484870152865180915260809182870185848460051b8a01019901936000925b84841061543c57505050505050015191015290565b90919293949987808a61549d6001948f8f89918291607f19908503018c5251615480615470825160a0808852870190610512565b888301518682038a880152610512565b9580820151908501528981015115158a85015201519101906117ce565b9c01940194019294939190615427565b604051906154ba82610ec3565b600d82527f657468657265756d426c6f636b000000000000000000000000000000000000006020830152565b906155386154f26152c5565b916154fb615311565b6020908082860152818151910120906040918286015261551e6080860160049052565b61552743614977565b825182810191825294859160200190565b039361554c601f1995868101835282610f38565b85526001606086015261555d6152c5565b9561556661534a565b8083890152828151910120838801526155826080880160049052565b6155a26155ae61559142614977565b855185810191825292839160200190565b03878101835282610f38565b8752600160608801526155bf6152c5565b60076080820152946155cf61357e565b9560005b87518110156155f857806155e96155f392614801565b6112af828b6135ed565b6155d3565b5061567d6156c9969961566a879a879a61562e6156a0996156226156ac9a9c519384928301611212565b03888101835282610f38565b855261565761563b615383565b9561564461539d565b90818852615651826135b5565b526135b5565b50845190615664826135cb565b526135cb565b50825190615677826135dc565b526135dc565b5060008782015261568c61370e565b6007606082015297519384918883016153f4565b03908101835282610f38565b84526156b881516135b5565b516156c16154ad565b9052516135b5565b510152565b906156da6154f26152c5565b03936156ee601f1995868101835282610f38565b8552600160608601526156ff6152c5565b9561570861534a565b8083890152828151910120838801526157246080880160049052565b6155a261573361559142614977565b8752600160608801526157446152c5565b600760808201529461575461357e565b9560005b87518110156155f857806155e961576e92614801565b615758565b60405190610160820182811067ffffffffffffffff8211176157d8575b604052600061014083828152606080602083015280604083015280808301528060808301528060a08301528060c08301528060e0830152610100820152826101208201520152565b6157e0610eac565b615790565b6157f690611e9c8160fe5411613533565b506105486009615804610f5a565b92615819611ec482546001600160a01b031690565b61582560018201612460565b602085015261583660028201612460565b604085015261584760038201612460565b606085015261585860048201612460565b608085015261586960058201612460565b60a085015261587a60068201612460565b60c085015261588b60078201612460565b60e085015261589c60088201612460565b610100850152015463ffffffff80821661012085015260209190911c16610140830152565b600a8082511061593d57604051916158d883610ec3565b81835260203681850137600090815b8381106158f5575050505090565b807fff00000000000000000000000000000000000000000000000000000000000000615924615938938561482e565b5116841a615932828861482e565b53613599565b6158e7565b5090565b91906000928051908251821461595657505050565b90919350600193601f60059301831c9260005b8685821016615979575050505050565b80821b838101602090810151918601015114965060010161596956fea2646970667358221220fb7bf495c31b0efa9b048b762e7a5414407b5afd2c22d6acb3913ccb477f627d64736f6c63430008110033",
  "linkReferences": {
    "contracts/token/TokenSvg.sol": {
      "TokenSvg": [
        {
          "length": 20,
          "start": 20573
        }
      ]
    }
  },
  "deployedLinkReferences": {
    "contracts/token/TokenSvg.sol": {
      "TokenSvg": [
        {
          "length": 20,
          "start": 20544
        }
      ]
    }
  }
}