{
  "_format": "hh-sol-artifact-1",
  "contractName": "SnippetJS",
  "sourceName": "contracts/snippetjs/SnippetJS.sol",
  "abi": [
    {
      "anonymous": false,
      "inputs": [
        {
          "indexed": false,
          "internalType": "uint8",
          "name": "version",
          "type": "uint8"
        }
      ],
      "name": "Initialized",
      "type": "event"
    },
    {
      "anonymous": false,
      "inputs": [
        {
          "indexed": true,
          "internalType": "address",
          "name": "previousOwner",
          "type": "address"
        },
        {
          "indexed": true,
          "internalType": "address",
          "name": "newOwner",
          "type": "address"
        }
      ],
      "name": "OwnershipTransferred",
      "type": "event"
    },
    {
      "inputs": [],
      "name": "admin",
      "outputs": [
        {
          "internalType": "address",
          "name": "",
          "type": "address"
        }
      ],
      "stateMutability": "view",
      "type": "function"
    },
    {
      "inputs": [],
      "name": "astBuilder",
      "outputs": [
        {
          "internalType": "contract IAstBuilder",
          "name": "",
          "type": "address"
        }
      ],
      "stateMutability": "view",
      "type": "function"
    },
    {
      "inputs": [
        {
          "components": [
            {
              "components": [
                {
                  "internalType": "bytes",
                  "name": "value",
                  "type": "bytes"
                },
                {
                  "internalType": "uint256",
                  "name": "tokenCode",
                  "type": "uint256"
                },
                {
                  "internalType": "uint256",
                  "name": "size",
                  "type": "uint256"
                },
                {
                  "internalType": "bool",
                  "name": "allowFollowingRegex",
                  "type": "bool"
                },
                {
                  "internalType": "enum IJSLexer.TokenType",
                  "name": "tokenType",
                  "type": "uint8"
                }
              ],
              "internalType": "struct IJSLexer.TokenAttrs",
              "name": "attrs",
              "type": "tuple"
            },
            {
              "internalType": "uint256",
              "name": "startPos",
              "type": "uint256"
            },
            {
              "internalType": "uint256",
              "name": "endPos",
              "type": "uint256"
            },
            {
              "internalType": "uint256",
              "name": "line",
              "type": "uint256"
            }
          ],
          "internalType": "struct IJSLexer.Token[]",
          "name": "tokens",
          "type": "tuple[]"
        }
      ],
      "name": "buildAst",
      "outputs": [
        {
          "components": [
            {
              "components": [
                {
                  "internalType": "enum IAstBuilder.NodeType",
                  "name": "nodeType",
                  "type": "uint8"
                },
                {
                  "internalType": "uint256",
                  "name": "nodeId",
                  "type": "uint256"
                },
                {
                  "internalType": "uint256",
                  "name": "minId",
                  "type": "uint256"
                },
                {
                  "internalType": "uint256",
                  "name": "maxId",
                  "type": "uint256"
                },
                {
                  "internalType": "uint256",
                  "name": "expId",
                  "type": "uint256"
                },
                {
                  "internalType": "uint256",
                  "name": "nodeDescriptor",
                  "type": "uint256"
                },
                {
                  "internalType": "bytes",
                  "name": "value",
                  "type": "bytes"
                },
                {
                  "internalType": "uint256[]",
                  "name": "nodeArray",
                  "type": "uint256[]"
                }
              ],
              "internalType": "struct IAstBuilder.AstNode[]",
              "name": "nodes",
              "type": "tuple[]"
            },
            {
              "components": [
                {
                  "internalType": "enum IAstBuilder.NodeType",
                  "name": "nodeType",
                  "type": "uint8"
                },
                {
                  "internalType": "uint256",
                  "name": "nodeId",
                  "type": "uint256"
                },
                {
                  "internalType": "uint256",
                  "name": "minId",
                  "type": "uint256"
                },
                {
                  "internalType": "uint256",
                  "name": "maxId",
                  "type": "uint256"
                },
                {
                  "internalType": "uint256",
                  "name": "expId",
                  "type": "uint256"
                },
                {
                  "internalType": "uint256",
                  "name": "nodeDescriptor",
                  "type": "uint256"
                },
                {
                  "internalType": "bytes",
                  "name": "value",
                  "type": "bytes"
                },
                {
                  "internalType": "uint256[]",
                  "name": "nodeArray",
                  "type": "uint256[]"
                }
              ],
              "internalType": "struct IAstBuilder.AstNode",
              "name": "programNode",
              "type": "tuple"
            },
            {
              "internalType": "uint256",
              "name": "expCount",
              "type": "uint256"
            }
          ],
          "internalType": "struct IAstBuilder.Ast",
          "name": "",
          "type": "tuple"
        }
      ],
      "stateMutability": "view",
      "type": "function"
    },
    {
      "inputs": [
        {
          "internalType": "contract IJSLexer",
          "name": "_lexer",
          "type": "address"
        },
        {
          "internalType": "contract IAstBuilder",
          "name": "_astBuilder",
          "type": "address"
        },
        {
          "internalType": "contract IJSInterpreter",
          "name": "_interpreter",
          "type": "address"
        }
      ],
      "name": "initialize",
      "outputs": [],
      "stateMutability": "nonpayable",
      "type": "function"
    },
    {
      "inputs": [
        {
          "internalType": "string",
          "name": "code",
          "type": "string"
        }
      ],
      "name": "interpret",
      "outputs": [
        {
          "components": [
            {
              "internalType": "bytes",
              "name": "value",
              "type": "bytes"
            },
            {
              "internalType": "uint256",
              "name": "identifierIndex",
              "type": "uint256"
            },
            {
              "internalType": "bool",
              "name": "numberSign",
              "type": "bool"
            },
            {
              "internalType": "enum IJSInterpreter.JSValueType",
              "name": "valueType",
              "type": "uint8"
            }
          ],
          "internalType": "struct IJSInterpreter.JSValue",
          "name": "",
          "type": "tuple"
        }
      ],
      "stateMutability": "view",
      "type": "function"
    },
    {
      "inputs": [
        {
          "components": [
            {
              "components": [
                {
                  "internalType": "enum IAstBuilder.NodeType",
                  "name": "nodeType",
                  "type": "uint8"
                },
                {
                  "internalType": "uint256",
                  "name": "nodeId",
                  "type": "uint256"
                },
                {
                  "internalType": "uint256",
                  "name": "minId",
                  "type": "uint256"
                },
                {
                  "internalType": "uint256",
                  "name": "maxId",
                  "type": "uint256"
                },
                {
                  "internalType": "uint256",
                  "name": "expId",
                  "type": "uint256"
                },
                {
                  "internalType": "uint256",
                  "name": "nodeDescriptor",
                  "type": "uint256"
                },
                {
                  "internalType": "bytes",
                  "name": "value",
                  "type": "bytes"
                },
                {
                  "internalType": "uint256[]",
                  "name": "nodeArray",
                  "type": "uint256[]"
                }
              ],
              "internalType": "struct IAstBuilder.AstNode[]",
              "name": "nodes",
              "type": "tuple[]"
            },
            {
              "components": [
                {
                  "internalType": "enum IAstBuilder.NodeType",
                  "name": "nodeType",
                  "type": "uint8"
                },
                {
                  "internalType": "uint256",
                  "name": "nodeId",
                  "type": "uint256"
                },
                {
                  "internalType": "uint256",
                  "name": "minId",
                  "type": "uint256"
                },
                {
                  "internalType": "uint256",
                  "name": "maxId",
                  "type": "uint256"
                },
                {
                  "internalType": "uint256",
                  "name": "expId",
                  "type": "uint256"
                },
                {
                  "internalType": "uint256",
                  "name": "nodeDescriptor",
                  "type": "uint256"
                },
                {
                  "internalType": "bytes",
                  "name": "value",
                  "type": "bytes"
                },
                {
                  "internalType": "uint256[]",
                  "name": "nodeArray",
                  "type": "uint256[]"
                }
              ],
              "internalType": "struct IAstBuilder.AstNode",
              "name": "programNode",
              "type": "tuple"
            },
            {
              "internalType": "uint256",
              "name": "expCount",
              "type": "uint256"
            }
          ],
          "internalType": "struct IAstBuilder.Ast",
          "name": "ast",
          "type": "tuple"
        },
        {
          "components": [
            {
              "components": [
                {
                  "internalType": "string",
                  "name": "name",
                  "type": "string"
                },
                {
                  "components": [
                    {
                      "internalType": "bytes",
                      "name": "value",
                      "type": "bytes"
                    },
                    {
                      "internalType": "uint256",
                      "name": "identifierIndex",
                      "type": "uint256"
                    },
                    {
                      "internalType": "bool",
                      "name": "numberSign",
                      "type": "bool"
                    },
                    {
                      "internalType": "enum IJSInterpreter.JSValueType",
                      "name": "valueType",
                      "type": "uint8"
                    }
                  ],
                  "internalType": "struct IJSInterpreter.JSValue",
                  "name": "value",
                  "type": "tuple"
                }
              ],
              "internalType": "struct IJSInterpreter.Identifier[]",
              "name": "identifiers",
              "type": "tuple[]"
            },
            {
              "components": [
                {
                  "internalType": "bytes",
                  "name": "value",
                  "type": "bytes"
                },
                {
                  "internalType": "uint256",
                  "name": "identifierIndex",
                  "type": "uint256"
                },
                {
                  "internalType": "bool",
                  "name": "numberSign",
                  "type": "bool"
                },
                {
                  "internalType": "enum IJSInterpreter.JSValueType",
                  "name": "valueType",
                  "type": "uint8"
                }
              ],
              "internalType": "struct IJSInterpreter.JSValue[]",
              "name": "args",
              "type": "tuple[]"
            }
          ],
          "internalType": "struct IJSInterpreter.InitialState",
          "name": "initialState",
          "type": "tuple"
        }
      ],
      "name": "interpretAst",
      "outputs": [
        {
          "components": [
            {
              "internalType": "bytes",
              "name": "value",
              "type": "bytes"
            },
            {
              "internalType": "uint256",
              "name": "identifierIndex",
              "type": "uint256"
            },
            {
              "internalType": "bool",
              "name": "numberSign",
              "type": "bool"
            },
            {
              "internalType": "enum IJSInterpreter.JSValueType",
              "name": "valueType",
              "type": "uint8"
            }
          ],
          "internalType": "struct IJSInterpreter.JSValue",
          "name": "",
          "type": "tuple"
        }
      ],
      "stateMutability": "view",
      "type": "function"
    },
    {
      "inputs": [
        {
          "internalType": "string",
          "name": "code",
          "type": "string"
        }
      ],
      "name": "interpretToString",
      "outputs": [
        {
          "internalType": "string",
          "name": "",
          "type": "string"
        }
      ],
      "stateMutability": "view",
      "type": "function"
    },
    {
      "inputs": [
        {
          "internalType": "string",
          "name": "code",
          "type": "string"
        },
        {
          "components": [
            {
              "components": [
                {
                  "internalType": "string",
                  "name": "name",
                  "type": "string"
                },
                {
                  "components": [
                    {
                      "internalType": "bytes",
                      "name": "value",
                      "type": "bytes"
                    },
                    {
                      "internalType": "uint256",
                      "name": "identifierIndex",
                      "type": "uint256"
                    },
                    {
                      "internalType": "bool",
                      "name": "numberSign",
                      "type": "bool"
                    },
                    {
                      "internalType": "enum IJSInterpreter.JSValueType",
                      "name": "valueType",
                      "type": "uint8"
                    }
                  ],
                  "internalType": "struct IJSInterpreter.JSValue",
                  "name": "value",
                  "type": "tuple"
                }
              ],
              "internalType": "struct IJSInterpreter.Identifier[]",
              "name": "identifiers",
              "type": "tuple[]"
            },
            {
              "components": [
                {
                  "internalType": "bytes",
                  "name": "value",
                  "type": "bytes"
                },
                {
                  "internalType": "uint256",
                  "name": "identifierIndex",
                  "type": "uint256"
                },
                {
                  "internalType": "bool",
                  "name": "numberSign",
                  "type": "bool"
                },
                {
                  "internalType": "enum IJSInterpreter.JSValueType",
                  "name": "valueType",
                  "type": "uint8"
                }
              ],
              "internalType": "struct IJSInterpreter.JSValue[]",
              "name": "args",
              "type": "tuple[]"
            }
          ],
          "internalType": "struct IJSInterpreter.InitialState",
          "name": "initialState",
          "type": "tuple"
        }
      ],
      "name": "interpretWithState",
      "outputs": [
        {
          "components": [
            {
              "internalType": "bytes",
              "name": "value",
              "type": "bytes"
            },
            {
              "internalType": "uint256",
              "name": "identifierIndex",
              "type": "uint256"
            },
            {
              "internalType": "bool",
              "name": "numberSign",
              "type": "bool"
            },
            {
              "internalType": "enum IJSInterpreter.JSValueType",
              "name": "valueType",
              "type": "uint8"
            }
          ],
          "internalType": "struct IJSInterpreter.JSValue",
          "name": "",
          "type": "tuple"
        }
      ],
      "stateMutability": "view",
      "type": "function"
    },
    {
      "inputs": [
        {
          "internalType": "string",
          "name": "code",
          "type": "string"
        },
        {
          "components": [
            {
              "components": [
                {
                  "internalType": "string",
                  "name": "name",
                  "type": "string"
                },
                {
                  "components": [
                    {
                      "internalType": "bytes",
                      "name": "value",
                      "type": "bytes"
                    },
                    {
                      "internalType": "uint256",
                      "name": "identifierIndex",
                      "type": "uint256"
                    },
                    {
                      "internalType": "bool",
                      "name": "numberSign",
                      "type": "bool"
                    },
                    {
                      "internalType": "enum IJSInterpreter.JSValueType",
                      "name": "valueType",
                      "type": "uint8"
                    }
                  ],
                  "internalType": "struct IJSInterpreter.JSValue",
                  "name": "value",
                  "type": "tuple"
                }
              ],
              "internalType": "struct IJSInterpreter.Identifier[]",
              "name": "identifiers",
              "type": "tuple[]"
            },
            {
              "components": [
                {
                  "internalType": "bytes",
                  "name": "value",
                  "type": "bytes"
                },
                {
                  "internalType": "uint256",
                  "name": "identifierIndex",
                  "type": "uint256"
                },
                {
                  "internalType": "bool",
                  "name": "numberSign",
                  "type": "bool"
                },
                {
                  "internalType": "enum IJSInterpreter.JSValueType",
                  "name": "valueType",
                  "type": "uint8"
                }
              ],
              "internalType": "struct IJSInterpreter.JSValue[]",
              "name": "args",
              "type": "tuple[]"
            }
          ],
          "internalType": "struct IJSInterpreter.InitialState",
          "name": "initialState",
          "type": "tuple"
        }
      ],
      "name": "interpretWithStateToString",
      "outputs": [
        {
          "internalType": "string",
          "name": "",
          "type": "string"
        }
      ],
      "stateMutability": "view",
      "type": "function"
    },
    {
      "inputs": [],
      "name": "interpreter",
      "outputs": [
        {
          "internalType": "contract IJSInterpreter",
          "name": "",
          "type": "address"
        }
      ],
      "stateMutability": "view",
      "type": "function"
    },
    {
      "inputs": [],
      "name": "lexer",
      "outputs": [
        {
          "internalType": "contract IJSLexer",
          "name": "",
          "type": "address"
        }
      ],
      "stateMutability": "view",
      "type": "function"
    },
    {
      "inputs": [],
      "name": "owner",
      "outputs": [
        {
          "internalType": "address",
          "name": "",
          "type": "address"
        }
      ],
      "stateMutability": "view",
      "type": "function"
    },
    {
      "inputs": [
        {
          "internalType": "string",
          "name": "code",
          "type": "string"
        }
      ],
      "name": "parseSignature",
      "outputs": [
        {
          "components": [
            {
              "internalType": "string",
              "name": "name",
              "type": "string"
            },
            {
              "internalType": "string[]",
              "name": "args",
              "type": "string[]"
            },
            {
              "internalType": "enum IJSInterpreter.JSValueType[]",
              "name": "types",
              "type": "uint8[]"
            }
          ],
          "internalType": "struct ISnippetJS.Signature",
          "name": "",
          "type": "tuple"
        }
      ],
      "stateMutability": "view",
      "type": "function"
    },
    {
      "inputs": [],
      "name": "renounceOwnership",
      "outputs": [],
      "stateMutability": "nonpayable",
      "type": "function"
    },
    {
      "inputs": [
        {
          "internalType": "address",
          "name": "_admin",
          "type": "address"
        }
      ],
      "name": "setAdmin",
      "outputs": [],
      "stateMutability": "nonpayable",
      "type": "function"
    },
    {
      "inputs": [
        {
          "internalType": "contract IAstBuilder",
          "name": "_astBuilder",
          "type": "address"
        }
      ],
      "name": "setAstBuilder",
      "outputs": [],
      "stateMutability": "nonpayable",
      "type": "function"
    },
    {
      "inputs": [
        {
          "internalType": "contract IJSInterpreter",
          "name": "_interpreter",
          "type": "address"
        }
      ],
      "name": "setInterpreter",
      "outputs": [],
      "stateMutability": "nonpayable",
      "type": "function"
    },
    {
      "inputs": [
        {
          "internalType": "contract IJSLexer",
          "name": "_lexer",
          "type": "address"
        }
      ],
      "name": "setLexer",
      "outputs": [],
      "stateMutability": "nonpayable",
      "type": "function"
    },
    {
      "inputs": [
        {
          "internalType": "string",
          "name": "code",
          "type": "string"
        },
        {
          "components": [
            {
              "internalType": "bool",
              "name": "ignoreComment",
              "type": "bool"
            }
          ],
          "internalType": "struct IJSLexer.Config",
          "name": "config",
          "type": "tuple"
        }
      ],
      "name": "tokenize",
      "outputs": [
        {
          "components": [
            {
              "components": [
                {
                  "internalType": "bytes",
                  "name": "value",
                  "type": "bytes"
                },
                {
                  "internalType": "uint256",
                  "name": "tokenCode",
                  "type": "uint256"
                },
                {
                  "internalType": "uint256",
                  "name": "size",
                  "type": "uint256"
                },
                {
                  "internalType": "bool",
                  "name": "allowFollowingRegex",
                  "type": "bool"
                },
                {
                  "internalType": "enum IJSLexer.TokenType",
                  "name": "tokenType",
                  "type": "uint8"
                }
              ],
              "internalType": "struct IJSLexer.TokenAttrs",
              "name": "attrs",
              "type": "tuple"
            },
            {
              "internalType": "uint256",
              "name": "startPos",
              "type": "uint256"
            },
            {
              "internalType": "uint256",
              "name": "endPos",
              "type": "uint256"
            },
            {
              "internalType": "uint256",
              "name": "line",
              "type": "uint256"
            }
          ],
          "internalType": "struct IJSLexer.Token[]",
          "name": "",
          "type": "tuple[]"
        }
      ],
      "stateMutability": "view",
      "type": "function"
    },
    {
      "inputs": [
        {
          "internalType": "string",
          "name": "code",
          "type": "string"
        },
        {
          "components": [
            {
              "components": [
                {
                  "internalType": "string",
                  "name": "name",
                  "type": "string"
                },
                {
                  "components": [
                    {
                      "internalType": "bytes",
                      "name": "value",
                      "type": "bytes"
                    },
                    {
                      "internalType": "uint256",
                      "name": "identifierIndex",
                      "type": "uint256"
                    },
                    {
                      "internalType": "bool",
                      "name": "numberSign",
                      "type": "bool"
                    },
                    {
                      "internalType": "enum IJSInterpreter.JSValueType",
                      "name": "valueType",
                      "type": "uint8"
                    }
                  ],
                  "internalType": "struct IJSInterpreter.JSValue",
                  "name": "value",
                  "type": "tuple"
                }
              ],
              "internalType": "struct IJSInterpreter.Identifier[]",
              "name": "identifiers",
              "type": "tuple[]"
            },
            {
              "components": [
                {
                  "internalType": "bytes",
                  "name": "value",
                  "type": "bytes"
                },
                {
                  "internalType": "uint256",
                  "name": "identifierIndex",
                  "type": "uint256"
                },
                {
                  "internalType": "bool",
                  "name": "numberSign",
                  "type": "bool"
                },
                {
                  "internalType": "enum IJSInterpreter.JSValueType",
                  "name": "valueType",
                  "type": "uint8"
                }
              ],
              "internalType": "struct IJSInterpreter.JSValue[]",
              "name": "args",
              "type": "tuple[]"
            }
          ],
          "internalType": "struct IJSInterpreter.InitialState",
          "name": "initialState",
          "type": "tuple"
        }
      ],
      "name": "traceDependencies",
      "outputs": [
        {
          "components": [
            {
              "internalType": "address[]",
              "name": "contractDependees",
              "type": "address[]"
            },
            {
              "internalType": "uint256[]",
              "name": "exeTokenDependees",
              "type": "uint256[]"
            }
          ],
          "internalType": "struct IJSInterpreter.Dependencies",
          "name": "dependencies",
          "type": "tuple"
        }
      ],
      "stateMutability": "view",
      "type": "function"
    },
    {
      "inputs": [
        {
          "internalType": "address",
          "name": "newOwner",
          "type": "address"
        }
      ],
      "name": "transferOwnership",
      "outputs": [],
      "stateMutability": "nonpayable",
      "type": "function"
    }
  ],
  "bytecode": "0x6080806040523461001657612f54908161001c8239f35b600080fdfe60806040526004361015610013575b600080fd5b60003560e01c80630e35ad5a146101b75780632ed6018e146101ae5780632fd1bf66146101a55780633a35cf171461019c578063539f3d0b146101935780635c21468d1461018a578063674afde614610181578063695f4c7d14610178578063704b6c021461016f578063715018a61461016657806372dcce111461015d5780638336b549146101545780638da5cb5b1461014b578063a07582ab14610142578063b211fe9214610139578063b4b8c9de14610130578063c0c53b8b14610127578063e936052d1461011e578063f0d91a9314610115578063f2fde38b1461010c5763f851a4401461010457600080fd5b61000e611a1f565b5061000e611975565b5061000e61194d565b5061000e61189a565b5061000e611793565b5061000e6116e7565b5061000e611685565b5061000e6115b1565b5061000e6114b6565b5061000e610f86565b5061000e610dfd565b5061000e610d56565b5061000e610d11565b5061000e610caa565b5061000e610b3a565b5061000e610ad8565b5061000e6107c6565b5061000e6106c2565b5061000e610542565b5061000e6102ec565b5061000e6101d1565b6001600160a01b0381160361000e57565b503461000e57602036600319011261000e576004356101ef816101c0565b6001600160a01b0390816033541633148015610226575b61020f90611c32565b166001600160a01b03196067541617606755600080f35b5060655482163314610206565b9181601f8401121561000e5782359167ffffffffffffffff831161000e576020838186019501011161000e57565b602060031982011261000e576004359067ffffffffffffffff821161000e5761028c91600401610233565b9091565b60005b8381106102a35750506000910152565b8181015183820152602001610293565b906020916102cc81518092818552858086019101610290565b601f01601f1916010190565b9060206102e99281815201906102b3565b90565b503461000e5761041e61035c6103fd6103a061030736610261565b610312929192611d50565b600181529261033861032c6066546001600160a01b031690565b6001600160a01b031690565b90604051809263a07582ab60e01b8252818060009a8b998a98899760048501611fca565b03915afa9081156104a3575b8291610481575b5061038561032c6067546001600160a01b031690565b6040518080958194636daa8f0f60e01b8352600483016114eb565b03915afa908115610474575b8291610452575b506103c961032c6068546001600160a01b031690565b60405180809581947ff48e91ea00000000000000000000000000000000000000000000000000000000835260048301610c99565b03915afa918215610445575b8092610422575b5050604051918291826102d8565b0390f35b61043e92503d8091833e6104368183611d2e565b810190612493565b3880610410565b61044d611fec565b610409565b61046e91503d8084833e6104668183611d2e565b810190612104565b386103b3565b61047c611fec565b6103ac565b61049d91503d8084833e6104958183611d2e565b810190611e70565b3861036f565b6104ab611fec565b610368565b9081604091031261000e5790565b50634e487b7160e01b600052602160045260246000fd5b600f11156104df57565b6104e76104be565b565b90600f8210156104f65752565b6104fe6104be565b52565b6102e9906020815260806060610522855183602086015260a08501906102b3565b9460208101516040850152604081015115158285015201519101906104e9565b503461000e5760031960403682011261000e5767ffffffffffffffff60043581811161000e578060040191606084833603011261000e5760243590811161000e576105919036906004016104b0565b610599611d91565b506001600160a01b03606854169360405193632e60388d60e21b85526040600486015260a48501906105cb8180612268565b8093606060448a01525260c487019260c48160051b89010193826000905b83821061068e57505050505061063f85879561041e9995604461062989976106188998602460009e019061273d565b8882036043190160648a0152612681565b930135608486015284830301602485015261239b565b03915afa908115610681575b600091610660575b5060405191829182610501565b61067b913d8091833e6106738183611d2e565b8101906121e9565b38610653565b610689611fec565b61064b565b90919293956106b160019160c3198d82030186526106ac898561273d565b612681565b9660209081019594019201906105e9565b503461000e57600036600319011261000e5760206001600160a01b0360685416604051908152f35b90815180825260208080930193019160005b82811061070a575050505090565b9091929382808261071e60019489516104e9565b019501939291016106fc565b9190916020808252610747845160608385015260808401906102b3565b918185015192601f1992838383030160408401528451908183528083019281808460051b8301019701936000915b84831061079a57505050505050606060406102e99596015192828503019101526106ea565b90919293949784806107b6838b86600196030187528c516102b3565b9a01930193019194939290610775565b503461000e576108786107d836610261565b6107e3929192612751565b506107ec612751565b906108366107f8611d50565b6001815261081161032c6066546001600160a01b031690565b6040938451809263a07582ab60e01b825281806000978897889660049e8f8501611fca565b03915afa908115610acb575b8291610ab1575b5061085f61032c6067546001600160a01b031690565b84518080988194636daa8f0f60e01b83528b83016114eb565b03915afa938415610aa4575b8194610a88575b50805b60e0602090808288015101518051841015610a76576108ba906108b3858a51926127e1565b51906127e1565b518881516108c781610b62565b6108d081610b62565b146108e6575050506108e190612787565b61088e565b9092508691975061091b8361090a9697985192019160c09687916108b385516127ba565b510151898082518301019101612493565b8752610928815151612803565b976109328961281a565b918189019283526109428a612864565b95888a019687525b8a811061096957505050505050505061041e92505b519182918261072a565b610a1c9061098686516108b3855161098085612896565b906127e1565b51818a89896018855161099881610b62565b6109a181610b62565b03610a215760a0936109db6109fb946109ca610a1798956109ee95519601956108b387516127ba565b5101518b8082518301019101612493565b8b51906109e883836127e1565b526127e1565b506108b38a5191516127d0565b510151610a07816104d5565b610a12838b516127e1565b6128a4565b612787565b61094a565b50509160028151610a3181610b62565b610a3a81610b62565b14610a48575b505050612787565b610a6d92610a60910151878082518301019101612493565b8751906109e883836127e1565b50888138610a40565b505050505090915061041e925061095f565b610a9d9194503d8086833e6104668183611d2e565b923861088b565b610aac611fec565b610884565b610ac591503d8084833e6104958183611d2e565b38610849565b610ad3611fec565b610842565b503461000e57602036600319011261000e57600435610af6816101c0565b6001600160a01b0390816033541633148015610b2d575b610b1690611c32565b166001600160a01b03196066541617606655600080f35b5060655482163314610b0d565b503461000e57600036600319011261000e5760206001600160a01b0360675416604051908152f35b601b11156104df57565b90601b8210156104f65752565b90815180825260208080930193019160005b828110610b99575050505090565b835185529381019392810192600101610b8b565b6102e991610bbc818351610b6c565b6020820151602082015260408201516040820152606082015160608201526080820151608082015260a082015160a082015260e0610c0960c08401516101008060c08601528401906102b3565b9201519060e0818403910152610b79565b906060810182516060835280518092526080830160808360051b850101926020809301916000905b828210610c6f5750505050610c666040928284938701519086830390870152610bad565b93015191015290565b909192948480610c8b600193607f198b82030186528951610bad565b970192019201909291610c42565b9060206102e9928181520190610c1a565b503461000e57602036600319011261000e5767ffffffffffffffff60043581811161000e573660238201121561000e57806004013591821161000e573660248360051b8301011161000e5761041e916024610d0592016125b9565b60405191829182610c99565b503461000e57602036600319011261000e576001600160a01b03600435610d37816101c0565b610d3f611a47565b166001600160a01b03196065541617606555600080f35b503461000e57600080600319360112610db357610d71611a47565b806001600160a01b036033546001600160a01b03198116603355167f8be0079c531659141344cd1fd0a4f28419497f9722a3daafe3b4186f6b6457e08280a380f35b80fd5b604060031982011261000e5767ffffffffffffffff9160043583811161000e5782610de391600401610233565b9390939260243591821161000e576102e9916004016104b0565b503461000e5761041e61035c610eb0610e6a610e1836610db6565b919290610e23611d91565b50610e2c611d50565b6001815293610e4661032c6066546001600160a01b031690565b90604051809263a07582ab60e01b8252818060009b8c9a8b98899760048501611fca565b03915afa908115610f13575b8391610ef9575b50610e9361032c6068546001600160a01b031690565b90604051809581948293632e60388d60e21b84526004840161246e565b03915afa918215610eec575b8092610ed1575b505060405191829182610501565b610ee592503d8091833e6106738183611d2e565b3880610ec3565b610ef4611fec565b610ebc565b610f0d91503d8085833e6104668183611d2e565b38610e7d565b610f1b611fec565b610e76565b602080825282516040828401528051606084018190529394936080840193929182019060005b818110610f69575050506102e993940151906040601f1982850301910152610b79565b82516001600160a01b031686529483019491830191600101610f46565b503461000e5761102e610f9836610db6565b91610feb610fa46128b0565b92610fad611d50565b6001815290610fc761032c6066546001600160a01b031690565b90604051809263a07582ab60e01b825281806000978897889660049b8c8501611fca565b03915afa9081156114a9575b829161148f575b5061101461032c6067546001600160a01b031690565b6040518080998194636daa8f0f60e01b83528883016114eb565b03915afa948515611482575b8195611466575b508094606091805b82518051821015611209578161105e916127e1565b516017815161106c81610b62565b61107581610b62565b1461108a575b5061108590612787565b611049565b6110a76110a160e086519301926108b384516127ba565b51612bea565b6110b86110b26128e8565b82612d99565b1561115757506110ce906108b3855191516127d0565b51600381516110dc81610b62565b6110e581610b62565b148061114a575b1561113c57906110fe61108592612c01565b5050505050602088019061111a611116828451612d5d565b1590565b611128575b50505b9061107b565b611133908251612cc6565b9052388061111f565b509650611085600197611122565b508560a0820151146110ec565b61116990611163612921565b90612d99565b611178575b5061108590611122565b611188906108b3855191516127d0565b516003815161119681610b62565b61119f81610b62565b14806111fb575b156111ed576111b490612c4e565b5050505050506111c76111168287612d5d565b6111d8575b50611085905b9061116e565b6111e6906110859295612cc6565b93906111cc565b5096506110856001976111d2565b50600260a0820151146111a6565b50509491929086611280575b50505090916112248251612864565b83525b81518110156112725780610a1761125461032c61124761126d95876127e1565b516001600160a01b031690565b61125f8387516127e1565b906001600160a01b03169052565b611227565b6040518061041e8582610f20565b9185916112e2949361129861129361295a565b612ded565b6112ad61032c6068546001600160a01b031690565b91604051968794859384937ffeea6e1b000000000000000000000000000000000000000000000000000000008552840161246e565b03915afa918215611459575b8492611435575b50611301611293612a5b565b61131482515161130f612a94565b612e5d565b602082019361132785515161130f612acd565b805b835180518210156113c15761032c61032c61124784611347946127e1565b6113656113586112478488516127e1565b611360612b06565b612eb9565b6113718161130f612b3f565b61137e6111168286612d5d565b611392575b5061138d90612787565b611329565b6113ad90846113a861138d94965161130f612b78565b612cc6565b926113bb845161130f612bb1565b90611383565b50509390929150839160208101925b8251805182101561142557906113f9611116611402936113f2848951926127e1565b5190612d5d565b61140757612787565b6113d0565b61141e85516114178387516127e1565b5190612cc6565b8552612787565b5050939150509190838080611215565b6114529192503d8086833e61144a8183611d2e565b810190612993565b90846112f5565b611461611fec565b6112ee565b61147b9195503d8087833e6104668183611d2e565b9338611041565b61148a611fec565b61103a565b6114a391503d8084833e6104958183611d2e565b38610ffe565b6114b1611fec565b610ff7565b503461000e57600036600319011261000e5760206001600160a01b0360335416604051908152f35b90600c8210156104f65752565b602080820190808352835180925260409283810182858560051b8401019601946000925b858410611520575050505050505090565b909192939495968580600192603f198582030187528a5190815160809081835280519361155960a09586858701526101208601906102b3565b9486830151908501528982015160c085015261158b606093838580950151151560e088015201516101008601906114de565b8581015186850152898101518a850152015191015299019401940192959493919061150f565b503461000e57604036600319011261000e5760043567ffffffffffffffff811161000e576115e3903690600401610233565b90602036602319011261000e57600061162b9161041e936001600160a01b03606654169060405180958194829363a07582ab60e01b8452604060048501526044840191611fa9565b60243561163781611e5c565b1515602483015203915afa908115611678575b60009161165f575b50604051918291826114eb565b611672913d8091833e6104958183611d2e565b38611652565b611680611fec565b61164a565b503461000e57602036600319011261000e576004356116a3816101c0565b6001600160a01b03908160335416331480156116da575b6116c390611c32565b166001600160a01b03196068541617606855600080f35b50606554821633146116ba565b503461000e5761041e61035c6103fd61170d61170236610db6565b919290610e2c611d50565b03915afa908115611786575b839161176c575b5061173661032c6068546001600160a01b031690565b906040518095819482937f6414e7650000000000000000000000000000000000000000000000000000000084526004840161246e565b61178091503d8085833e6104668183611d2e565b38611720565b61178e611fec565b611719565b503461000e57606036600319011261000e576004356117b1816101c0565b61180e6024356117c0816101c0565b604435906117cd826101c0565b600054936117f260ff8660081c16158096819761188c575b811561186c575b50611ae7565b84611805600160ff196000541617600055565b61185357611b58565b61181457005b61182461ff001960005416600055565b604051600181527f7f26b83ff96e1f2b6a682f133852f6798a09c465da95921460cefb384740249890602090a1005b61186761010061ff00196000541617600055565b611b58565b303b1591508161187e575b50386117ec565b6001915060ff161438611877565b600160ff82161091506117e5565b503461000e5761041e61035c610eb06118c96118b536610261565b6118c0929192611d91565b50610312611d50565b03915afa908115611940575b8291611926575b506118f261032c6068546001600160a01b031690565b60405180809581947fe9aaf0bc00000000000000000000000000000000000000000000000000000000835260048301610c99565b61193a91503d8084833e6104668183611d2e565b386118dc565b611948611fec565b6118d5565b503461000e57600036600319011261000e5760206001600160a01b0360665416604051908152f35b503461000e57602036600319011261000e57600435611993816101c0565b61199b611a47565b6001600160a01b038116156119b5576119b390611a9f565b005b608460405162461bcd60e51b815260206004820152602660248201527f4f776e61626c653a206e6577206f776e657220697320746865207a65726f206160448201527f64647265737300000000000000000000000000000000000000000000000000006064820152fd5b503461000e57600036600319011261000e5760206001600160a01b0360655416604051908152f35b6001600160a01b03603354163303611a5b57565b606460405162461bcd60e51b815260206004820152602060248201527f4f776e61626c653a2063616c6c6572206973206e6f7420746865206f776e65726044820152fd5b603354906001600160a01b0380911691826001600160a01b0319821617603355167f8be0079c531659141344cd1fd0a4f28419497f9722a3daafe3b4186f6b6457e0600080a3565b15611aee57565b608460405162461bcd60e51b815260206004820152602e60248201527f496e697469616c697a61626c653a20636f6e747261637420697320616c72656160448201527f647920696e697469616c697a65640000000000000000000000000000000000006064820152fd5b91906001600160a01b0391828092816001600160a01b031996168660665416176066551684606754161760675516826068541617606855611ba960ff60005460081c16611ba481611bc1565b611bc1565b611bb233611a9f565b60335416906065541617606555565b15611bc857565b608460405162461bcd60e51b815260206004820152602b60248201527f496e697469616c697a61626c653a20636f6e7472616374206973206e6f74206960448201527f6e697469616c697a696e670000000000000000000000000000000000000000006064820152fd5b15611c3957565b606460405162461bcd60e51b815260206004820152600a60248201527f6f6e6c792061646d696e000000000000000000000000000000000000000000006044820152fd5b50634e487b7160e01b600052604160045260246000fd5b6080810190811067ffffffffffffffff821117611cb057604052565b611cb8611c7d565b604052565b60a0810190811067ffffffffffffffff821117611cb057604052565b6060810190811067ffffffffffffffff821117611cb057604052565b610100810190811067ffffffffffffffff821117611cb057604052565b6040810190811067ffffffffffffffff821117611cb057604052565b90601f8019910116810190811067ffffffffffffffff821117611cb057604052565b604051906020820182811067ffffffffffffffff821117611cb057604052565b60405190610100820182811067ffffffffffffffff821117611cb057604052565b604051906080820182811067ffffffffffffffff821117611dc8575b60405260006060838181528260208201528260408201520152565b611dd0611c7d565b611dad565b60209067ffffffffffffffff8111611def575b60051b0190565b611df7611c7d565b611de8565b81601f8201121561000e57805167ffffffffffffffff8111611e4f575b60405192611e31601f8301601f191660200185611d2e565b8184526020828401011161000e576102e99160208085019101610290565b611e57611c7d565b611e19565b8015150361000e57565b600c111561000e57565b90602090818382031261000e57825167ffffffffffffffff9384821161000e57019080601f8301121561000e578151611ea881611dd5565b946040611eb781519788611d2e565b828752858088019360051b8601019484861161000e57868101935b868510611ee457505050505050505090565b845184811161000e578201608091601f19928084848b03011261000e57855190611f0d82611c94565b8b84015188811161000e5784019060a08096838d03011261000e57875194611f3486611cbd565b8d830151958a871161000e578e97611f518e8a809a880101611dfc565b82528a85015188830152606094858101518c84015284810151611f7381611e5c565b868401520151611f8281611e66565b83820152845288810151868501528281015189850152015190820152815201940193611ed2565b908060209392818452848401376000828201840152601f01601f1916010190565b91602091611fe391959495604085526040850191611fa9565b93511515910152565b506040513d6000823e3d90fd5b601b111561000e57565b51906104e782611ff9565b81601f8201121561000e5780519161202583611dd5565b926120336040519485611d2e565b808452602092838086019260051b82010192831161000e578301905b82821061205d575050505090565b8151815290830190830161204f565b9190916101008184031261000e57612082611d70565b9261208c82612003565b84526020820151602085015260408201516040850152606082015160608501526080820151608085015260a082015160a085015260c082015167ffffffffffffffff9081811161000e57826120e2918501611dfc565b60c086015260e083015190811161000e576120fd920161200e565b60e0830152565b906020808383031261000e57825167ffffffffffffffff9384821161000e57019060608284031261000e576040519361213c85611cd9565b825181811161000e57830184601f8201121561000e57805161215d81611dd5565b9161216b6040519384611d2e565b818352848084019260051b8201019187831161000e57858201905b8382106121ba575050505085528183015190811161000e576040936121ac91840161206c565b908401520151604082015290565b815186811161000e5787916121d48b84809488010161206c565b815201910190612186565b600f111561000e57565b9060208282031261000e57815167ffffffffffffffff9283821161000e570160808183031261000e576040519261221f84611c94565b815190811161000e57606092612236918301611dfc565b835260208101516020840152604081015161225081611e5c565b60408401520151612260816121df565b606082015290565b9035601e198236030181121561000e57016020813591019167ffffffffffffffff821161000e578160051b3603831361000e57565b9035601e198236030181121561000e57016020813591019167ffffffffffffffff821161000e57813603831361000e57565b9035607e198236030181121561000e570190565b906102e9906060806123066122f8868061229d565b608086526080860191611fa9565b9460208101356020850152604081013561231f81611e5c565b15156040850152013591612332836121df565b01906104e9565b9082818152602080910193818360051b82010194846000925b858410612363575050505050505090565b90919293949596858061238a600193601f198682030188526123858c886122cf565b6122e3565b990194019401929594939190612352565b91906040908181016123ad8580612268565b809285855252606083019160608160051b850101948293600093845b8486106123f757505050505050506123e98460206102e995960190612268565b916020818503910152612339565b90919293949597605f198882030184528835603e198436030181121561246a576001916124598561244c93019161243d612431848061229d565b8b84528b840191611fa9565b906020948486809601906122cf565b90848184039101526122e3565b9a01940196019493929591906123c9565b8280fd5b90916124856102e993604084526040840190610c1a565b91602081840391015261239b565b9060208282031261000e57815167ffffffffffffffff811161000e576102e99201611dfc565b602092808483018584525260409384830192858360051b820101958560009081935b8685106124ee5750505050505050505090565b909192939495969798603f1982820301895261250a8a846122cf565b8035609e19823603018112156125b55761254b600193838b94859401608091828452612536828061229d565b959060a0968786880152610120870191611fa9565b9486830135908501528b82013560c085015261258f60609383858095013561257281611e5c565b151560e0880152013561258481611e66565b6101008601906114de565b80860135848701528b8101358c85015201359101529b01990197969501939291906124db565b8580fd5b612649906040928351916125cc83611cd9565b6060835284516125db81611cf5565b6000958694828680945283602082015283838201528360608201528360808201528360a0820152606060c0820152606060e08201526020820152015261262c61032c6067546001600160a01b031690565b90604051809581948293636daa8f0f60e01b8452600484016124b9565b03915afa918215612674575b809261266057505090565b6102e992503d8091833e6104668183611d2e565b61267c611fec565b612655565b9061269681833561269181611ff9565b610b6c565b6020820135602082015260408201356040820152606082013560608201526080820135608082015260a082013560a08201526126f76126ec6126db60c085018561229d565b6101008060c0870152850191611fa9565b9260e0810190612268565b92909160e08183039101528281527f07ffffffffffffffffffffffffffffffffffffffffffffffffffffffffffffff831161000e5760209260051b809284830137010190565b903560fe198236030181121561000e570190565b6040519061275e82611cd9565b60606040838281528260208201520152565b50634e487b7160e01b600052601160045260246000fd5b6001906000198114612797570190565b61279f612770565b0190565b50634e487b7160e01b600052603260045260246000fd5b6020908051156127c8570190565b61279f6127a3565b6040908051600110156127c8570190565b60209181518110156127f6575b60051b010190565b6127fe6127a3565b6127ee565b60011981019190821161281257565b6104e7612770565b9061282482611dd5565b6128316040519182611d2e565b8281528092612842601f1991611dd5565b019060005b82811061285357505050565b806060602080938501015201612847565b9061286e82611dd5565b61287b6040519182611d2e565b828152809261288c601f1991611dd5565b0190602036910137565b906001820180921161281257565b600f8210156104f65752565b604051906040820182811067ffffffffffffffff8211176128db575b60405260606020838281520152565b6128e3611c7d565b6128cc565b604051906128f582611d12565b600c82527f65786563757465546f6b656e00000000000000000000000000000000000000006020830152565b6040519061292e82611d12565b601282527f73746174696363616c6c436f6e747261637400000000000000000000000000006020830152565b6040519061296782611d12565b600582527f50415253450000000000000000000000000000000000000000000000000000006020830152565b90602090818382031261000e57825167ffffffffffffffff9384821161000e57019060408282031261000e57604051936129cc85611d12565b825181811161000e57830182601f8201121561000e578051906129ee82611dd5565b916129fc6040519384611d2e565b808352868084019160051b8301019185831161000e5787809101915b838310612a41575050505085528383015190811161000e57612a3a920161200e565b9082015290565b81908351612a4e816101c0565b8152019101908790612a18565b60405190612a6882611d12565b600682527f50415253453200000000000000000000000000000000000000000000000000006020830152565b60405190612aa182611d12565b600d82527f50415253452064792063202564000000000000000000000000000000000000006020830152565b60405190612ada82611d12565b600d82527f50415253452064792065202564000000000000000000000000000000000000006020830152565b60405190612b1382611d12565b600982527f64792061646420257300000000000000000000000000000000000000000000006020830152565b60405190612b4c82611d12565b600a82527f64792061646472202564000000000000000000000000000000000000000000006020830152565b60405190612b8582611d12565b600b82527f64792061646472322025640000000000000000000000000000000000000000006020830152565b60405190612bbe82611d12565b600b82527f64792061646472332025640000000000000000000000000000000000000000006020830152565b60c06102e991015160208082518301019101612493565b60c0015160c08180518101031261000e5760208101519060408101519060608101519060808101519060c060a082015191612c3b83611e5c565b0151612c4681611e5c565b909192939495565b60c00151805181019060e08183031261000e5760208101519160408201519160608101519160808201519160a081015191612c8883611e5c565b60c082015191612c9783611e5c565b60e08101519167ffffffffffffffff831161000e57612cbd926020809201920101611dfc565b90919293949596565b91908251600193848201809211612d50575b612ce182611dd5565b91612cef6040519384611d2e565b808352612cfe601f1991611dd5565b013660208401378194806000905b612d1d575b5050516104fe916127e1565b8251811015612d4b5780612d34612d4592856127e1565b51612d3f82876127e1565b52612787565b81612d0c565b612d11565b612d58612770565b612cd8565b9060005b8251811015612d915781612d7582856127e1565b5114612d8957612d8490612787565b612d61565b505050600190565b505050600090565b919060009280519082518214612dae57505050565b90919350600193601f60059301831c9260005b8685821016612dd1575050505050565b80821b8381016020908101519186010151149650600101612dc1565b612e34612e426104e7926040519283917f41304fac0000000000000000000000000000000000000000000000000000000060208401526020602484015260448301906102b3565b03601f198101835282611d2e565b600080916020815191016a636f6e736f6c652e6c6f675afa50565b612e42612ea5916104e7936040519384927fb60e72cc0000000000000000000000000000000000000000000000000000000060208501526040602485015260648401906102b3565b90604483015203601f198101835282611d2e565b612e42612f09916104e7936001600160a01b036040519485937f319af3330000000000000000000000000000000000000000000000000000000060208601526040602486015260648501906102b3565b9116604483015203601f198101835282611d2e56fea26469706673582212202cedf0cf10e52d499f978edc9d2eb410f8f7a3e4aa7463590d24b7b03e52b8f464736f6c63430008110033",
  "linkReferences": {},
  "deployedLinkReferences": {}
}