{
  "_format": "hh-sol-artifact-1",
  "contractName": "JsDocParser",
  "sourceName": "contracts/JsDocParser.sol",
  "abi": [
    {
      "inputs": [
        {
          "internalType": "string",
          "name": "code",
          "type": "string"
        }
      ],
      "name": "parse",
      "outputs": [
        {
          "components": [
            {
              "internalType": "string",
              "name": "description",
              "type": "string"
            },
            {
              "components": [
                {
                  "internalType": "string",
                  "name": "rawExpression",
                  "type": "string"
                },
                {
                  "internalType": "uint256",
                  "name": "lineNum",
                  "type": "uint256"
                }
              ],
              "internalType": "struct IJsDocParser.CommentLine[]",
              "name": "lines",
              "type": "tuple[]"
            },
            {
              "components": [
                {
                  "internalType": "string",
                  "name": "tagName",
                  "type": "string"
                },
                {
                  "internalType": "string",
                  "name": "paramName",
                  "type": "string"
                },
                {
                  "internalType": "string",
                  "name": "paramDesc",
                  "type": "string"
                },
                {
                  "internalType": "string",
                  "name": "paramType",
                  "type": "string"
                },
                {
                  "internalType": "uint256",
                  "name": "lineIndex",
                  "type": "uint256"
                }
              ],
              "internalType": "struct IJsDocParser.JsDocTag[]",
              "name": "tags",
              "type": "tuple[]"
            },
            {
              "internalType": "uint256",
              "name": "sizeInBytes",
              "type": "uint256"
            }
          ],
          "internalType": "struct IJsDocParser.JsDocComment[]",
          "name": "",
          "type": "tuple[]"
        }
      ],
      "stateMutability": "pure",
      "type": "function"
    }
  ],
  "bytecode": "0x60808060405234610016576117de908161001c8239f35b600080fdfe6040608081526004908136101561001557600080fd5b600090813560e01c63bc62d8d81461002c57600080fd5b3461034857602091826003193601126103455783359367ffffffffffffffff93848611610341573660238701121561034157858201359085821161033d576024968781019088843692010111610339578492610086610420565b91878301978289528051996101608b01908b82109082111761032757819b9a999897969b52600a98898152875b61014081106103035750975b8451815111156101535788999a9b6100dc8686869c9a9b9c61050d565b9087820151511561014b57610105916100fe826100f8816104b1565b9b6104d6565b528b6104d6565b508a87061561011b575b9a99989796959a6100bf565b988051908b82018092116101395790610133916115b2565b9861010f565b8c8a60118b634e487b7160e01b835252fd5b97505061010f565b8786836101608f8d6115b2565b9080519280840191818552835180935280850182828560051b88010195019680925b85841061018f5787870388f35b909192939495603f19888203018452858951916101b5835160808352608083019061036f565b9282810151938281038484015284518082528482019085808260051b850101970192895b898382106102be57945050505050810151938281038684015284518082528482019085808260051b850101970192895b89838210610238575050505050509282916001946060809101519101529a019401940192979594939190610182565b9784969798869a6080806102a56102928697999b6001999b601f198d88030190525195610280610270885160a0808a5289019061036f565b898901518882038b8a015261036f565b9080880151908783039088015261036f565b606080870151908683039087015261036f565b930151910152990195019101918c969594939192610209565b9760019294969798869a82806102ea8196989a601f198b8603018d52519485519080865285019061036f565b930151910152990195019101918c9695949391926101d9565b86906103149d98999a9b9c9d61047b565b828285010152019b9a999897969b6100b3565b8b8960418a634e487b7160e01b835252fd5b8480fd5b8380fd5b8280fd5b80fd5b5080fd5b60005b83811061035f5750506000910152565b818101518382015260200161034f565b906020916103888151809281855285808601910161034c565b601f01601f1916010190565b60a0810190811067ffffffffffffffff8211176103b057604052565b634e487b7160e01b600052604160045260246000fd5b6040810190811067ffffffffffffffff8211176103b057604052565b6020810190811067ffffffffffffffff8211176103b057604052565b90601f8019910116810190811067ffffffffffffffff8211176103b057604052565b6040519060c0820182811067ffffffffffffffff8211176103b0576040528160a06000918281528260208201528260408201528260608201528260808201520152565b67ffffffffffffffff81116103b05760051b60200190565b604051906080820182811067ffffffffffffffff8211176103b05760405260006060838181528160208201528160408201520152565b60001981146104c05760010190565b634e487b7160e01b600052601160045260246000fd5b80518210156104ea5760209160051b010190565b634e487b7160e01b600052603260045260246000fd5b919082018092116104c057565b61051561047b565b5061051e61047b565b835161053260408601918251908686611429565b809181875251111561062b5761054b602f918585611634565b5103610615578351600181018091116104c05761056b602a918585611634565b51036105ff578351600281018091116104c05761058b602a918585611634565b51036105e9578351600381018091116104c0576105ab602a918585611634565b51146105d357506105bd918391610661565b906105cd60608301518251610500565b90525b90565b92915050805190600482018092116104c0575290565b92915050805190600382018092116104c0575290565b92915050805190600282018092116104c0575290565b92915050805190600182018092116104c0575290565b509250505090565b6040519061064082610394565b60006080836060815260606020820152606060408201526060808201520152565b9092919261066d61047b565b91610676610420565b94805160608701528051600381018091116104c05760406106ae92828952602081015160208a01520151908160408901528484611429565b85526000936106bb610633565b945b86516040880151811015610f6a57600181018082116104c0578486916106e293611499565b610ed6576106f287518585611634565b90600b811015610ec0578061081157508051602a810361073057505061072486518060808901528060a08901526104b1565b86526002905b906106bd565b61073981611728565b1561075857506020610750910151848489886113e2565b60019061072a565b604014159050610801578551600181018091116104c05761077c6020918585611634565b511480156107d5575b156107aa5761079a86518060808901526104b1565b80875260a087015260029061072a565b6107b486516104b1565b808752806080880152600181018091116104c05760a087015260049061072a565b508551600181018091116104c0578651600281018091116104c0578385916107fc93611499565b610785565b61079a86518060808901526104b1565b919060018303610950578051602a81036108855750509050610859838361084b61083b8a516104b1565b808b5260408b0151908484611429565b808a5260408a0151906114d0565b15610870576108688585610fc8565b60039061072a565b855180608088015260a087015260029061072a565b61088e81611728565b156108f257506108d5906108ba86866108af60208d51950194855190610500565b60408d015190611567565b6108da575b6108cb86868b8a611299565b5185858a896113e2565b61072a565b80516108eb60a08b01918251610500565b90526108bf565b919250506040036108015761090786516104b1565b808752600181018091116104c0576109226020918585611634565b51036109305760029061072a565b8551806080880152600181018091116104c05760a087015260049061072a565b600283036109ef578051602a810361097b57505061096e87516104b1565b80885260a088015261072a565b61098490611728565b156109e4576107509192506109b185856109a660208c51950194855190610500565b60408c015190611567565b6109cc575b6109c285858a89611299565b51848489886113e2565b80516109dd60a08a01918251610500565b90526109b6565b5061096e87516104b1565b84848960038603610a54575050508051610a0881611728565b15610a1f575060206108d591015185858a896113e2565b91925050604003610a34576107b486516104b1565b610a4486518060808901526104b1565b80875260a087015260019061072a565b909192939460048114600014610ada578451610a6f81611728565b15610a9b575092610a939492610a88926020958c6111db565b0151848489886113e2565b60099061072a565b90959450602003610acd57610ab19394896111db565b610ac386516040880151908585611429565b865260059061072a565b905061096e9150516104b1565b60058103610b68578451610aed81611728565b15610b06575092610a939492610a88926020958c6111db565b607b14159450610b48935050505057610b32610b2287516104b1565b8088526040880151908585611429565b80875280608088015260a087015260069061072a565b610b5886518060808901526104b1565b80875260a087015260089061072a565b9493925060068503610c2d579086918351610b8281611728565b15610bb85750602092610ba69492610b9b92888d6111db565b015185858a896113e2565b865180608089015260a088015261072a565b9293509091607d90818103610beb575050610bd49394896111db565b610be1610b2287516104b1565b865260079061072a565b9150925060209150146000146109e457610c0d885160408a0151908787611429565b90610c19828787611634565b51036109e457875160a0890152875261072a565b919092938660078214600014610c7157610c478351611728565b15610c5d57610a9394602094610a88938c6111db565b505050610b589150518060808901526104b1565b919391929060088103610cdb578451610c8981611728565b15610ca2575092610a939492610a88926020958c6111db565b90959450602003610acd57610cbf9394815160a0830152896111db565b610cd186516040880151908585611429565b865260099061072a565b939250505060098203610dd557805191602a928381148015610dcb575b15610d525750505114610d41575b610d1d838361084b895160408b0151908484611429565b15610d2c576108688585610fc8565b855180608088015260a0870152600a9061072a565b610d4b86516104b1565b8652610d06565b610d5e91949350611728565b15610da8576108d590610d7e86866108af60208d51950194855190610500565b610d90575b6108cb86868b878c6111db565b8051610da160a08b01918251610500565b9052610d83565b509050610dbb86518060808901526104b1565b80875260a0870152600a9061072a565b5060408114610cf8565b600a82939214610de6575b5061072a565b8484898351610df481611728565b15610e5457509081610e329596610e278584610e1c60206109c29998519a01998a5190610500565b604086015190611567565b610e3c575b8b6111db565b6009905b38610de0565b8551610e4d60a08401918251610500565b9052610e2c565b602014159350610eb69250505057610e7487516040890151908686611429565b600181018082116104c0578585610e8b9284611499565b15610e9e57875160a08901528752610e36565b50610ea987516104b1565b80885260a0880152610e36565b610ea987516104b1565b634e487b7160e01b600052602160045260246000fd5b869196959495516002908181018091116104c05780610f0591855260608501519060208601519188888c6112c8565b50600b8210159081610ec0578215918215610f5c575b8215610f4c575b505015610f3557506105d0935084611299565b91849391610f46936105d0966111db565b82610fc8565b909150610ec05781143880610f22565b506001831491506000610f1b565b60646040517f08c379a000000000000000000000000000000000000000000000000000000000815260206004820152601260248201527f636f6d6d656e74206e6f7420636c6f73656400000000000000000000000000006044820152fd5b815151611024575b50604051610fdd816103e2565b600081528152604051610fef816103e2565b600081526020820152604051611004816103e2565b60008152604082015260606040519161101c836103e2565b600083520152565b6040018051519060018083018093116104c05761104083610463565b9261104e60405194856103fe565b80845261105d601f1991610463565b0160005b81811061111d575050806000905b6110dc575b50508251602084015160408501516060860151906080870151926040519461109b86610394565b85526020850152604084015260608301526080820152825160001981019081116104c0576110d4916110cd82866104d6565b52836104d6565b505238610fd0565b8251908151811015611117576110f581611111936104d6565b5161110082876104d6565b5261110b81866104d6565b506104b1565b8161106f565b50611074565b602090611128610633565b82828801015201611061565b9093929384831161114c57841161114c578101920390565b600080fd5b92919267ffffffffffffffff82116103b0576040519161117b601f8201601f1916602001846103fe565b82948184528183011161114c578281602093846000960137010152565b60206111d99193929360405194816111b9879351809286808701910161034c565b82016111cd8251809386808501910161034c565b010380855201836103fe565b565b929391909160a08201946080865193019283518082111561128f5761120a9361120393611134565b3691611151565b93519052600b811015610ec0576004810361123057509061122c908251611198565b9052565b600681036112485750606061122c9101918251611198565b600881036112605750602061122c9101918251611198565b600a8114908115611284575b50611275575050565b604061122c9101918251611198565b60099150143861126c565b5050505050505050565b9092916112ba6112036112c192608087019660a08851910196875192611134565b8251611198565b9052519052565b939291909594956112d761047b565b9660209485870194855151946001948587018097116104c0576112f987610463565b95604097611309895198896103fe565b808852611318601f1991610463565b018a60005b8281106113bf57505050806000905b611384575b505091611342939161120393611134565b92519461134e866103c6565b83865285015280516000198101939084116104c0576113778461122c966110cd606097866104d6565b5052519201918251610500565b895180518210156113b9579061139d816113b3936104d6565b516113a8828b6104d6565b5261110b818a6104d6565b8161132c565b50611331565b8a516113ca816103c6565b6060815260008382015282828c010152018b9061131d565b90939261141c61122c946060870193611408855191895160208b0193878a8651946112c8565b5061141381516104b1565b90528651610500565b8092818752526040850151925b9091925b80841061143b575b50505090565b909192611449818585611634565b80519060209182811490811561148d575b8115611482575b501561147a57015161147291610500565b92919061142d565b505092611435565b600991501438611461565b61c2a08114915061145a565b6114a9602a919493948486611634565b511491826114b9575b5050905090565b6114c69250602f93611634565b51148038806114b2565b816114dc918585611429565b906114e8828585611634565b516040811461154e57602a14611502575b50505050600090565b600182018092116104c057611518918484611429565b6040611525828585611634565b511461153157806114f9565b600181018091116104c05760209261154892611634565b51141590565b5050600181018091116104c05760209261154892611634565b8161157791949392948484611429565b92600184018085116104c057838361158f9287611499565b15938461159e575b5050505090565b6115a894506114d0565b1538808080611597565b9190916115be83610463565b916115cc60405193846103fe565b838352601f196115db85610463565b0160005b81811061161d57505060005b8251811080611614575b1561160d57806110f561160892856104d6565b6115eb565b5092505090565b508481106115f5565b60209061162861047b565b828288010152016115df565b909160006020604051611646816103c6565b8281520152906000925b8083106116c7575b5050506000602060405161166b816103c6565b8281520152808061c2a0146116bf578062e280a8146116b7578062e280a9146116b75761c2a5146116b05760015b604051916116a6836103c6565b8252602082015290565b6002611699565b506003611699565b506002611699565b8183013560f81c846116fa576116dc81611777565b6116e7575b50611650565b9350916116f3906104b1565b91386116e1565b61170681939293611777565b156117115750611658565b6117229192939460081b17936104b1565b91611650565b600a811490811561176c575b811561175f575b8115611752575b501561174d57600190565b600090565b62e280a991501438611742565b62e280a88114915061173b565b600d81149150611734565b600f9060041c16600781119081159161178e575090565b809150600c1115908161179f575090565b600f915011159056fea26469706673582212203bbb290e9558a96600333b2ec6f942f6ab50414a09a3bffe5dcf964224c5b13564736f6c63430008120033",
  "linkReferences": {},
  "deployedLinkReferences": {}
}