{
  "_format": "hh-sol-artifact-1",
  "contractName": "ExeToken",
  "sourceName": "contracts/token/ExeToken.sol",
  "abi": [
    {
      "anonymous": false,
      "inputs": [
        {
          "indexed": true,
          "internalType": "address",
          "name": "owner",
          "type": "address"
        },
        {
          "indexed": true,
          "internalType": "address",
          "name": "approved",
          "type": "address"
        },
        {
          "indexed": true,
          "internalType": "uint256",
          "name": "tokenId",
          "type": "uint256"
        }
      ],
      "name": "Approval",
      "type": "event"
    },
    {
      "anonymous": false,
      "inputs": [
        {
          "indexed": true,
          "internalType": "address",
          "name": "owner",
          "type": "address"
        },
        {
          "indexed": true,
          "internalType": "address",
          "name": "operator",
          "type": "address"
        },
        {
          "indexed": false,
          "internalType": "bool",
          "name": "approved",
          "type": "bool"
        }
      ],
      "name": "ApprovalForAll",
      "type": "event"
    },
    {
      "anonymous": false,
      "inputs": [
        {
          "indexed": false,
          "internalType": "uint8",
          "name": "version",
          "type": "uint8"
        }
      ],
      "name": "Initialized",
      "type": "event"
    },
    {
      "anonymous": false,
      "inputs": [
        {
          "indexed": true,
          "internalType": "address",
          "name": "creator",
          "type": "address"
        },
        {
          "indexed": true,
          "internalType": "uint256",
          "name": "tokenId",
          "type": "uint256"
        },
        {
          "indexed": true,
          "internalType": "string",
          "name": "lang",
          "type": "string"
        }
      ],
      "name": "Minted",
      "type": "event"
    },
    {
      "anonymous": false,
      "inputs": [
        {
          "indexed": true,
          "internalType": "address",
          "name": "previousOwner",
          "type": "address"
        },
        {
          "indexed": true,
          "internalType": "address",
          "name": "newOwner",
          "type": "address"
        }
      ],
      "name": "OwnershipTransferred",
      "type": "event"
    },
    {
      "anonymous": false,
      "inputs": [
        {
          "indexed": true,
          "internalType": "address",
          "name": "from",
          "type": "address"
        },
        {
          "indexed": true,
          "internalType": "address",
          "name": "to",
          "type": "address"
        },
        {
          "indexed": true,
          "internalType": "uint256",
          "name": "tokenId",
          "type": "uint256"
        }
      ],
      "name": "Transfer",
      "type": "event"
    },
    {
      "inputs": [],
      "name": "admin",
      "outputs": [
        {
          "internalType": "address",
          "name": "",
          "type": "address"
        }
      ],
      "stateMutability": "view",
      "type": "function"
    },
    {
      "inputs": [
        {
          "internalType": "address",
          "name": "to",
          "type": "address"
        },
        {
          "internalType": "uint256",
          "name": "tokenId",
          "type": "uint256"
        }
      ],
      "name": "approve",
      "outputs": [],
      "stateMutability": "nonpayable",
      "type": "function"
    },
    {
      "inputs": [
        {
          "internalType": "address",
          "name": "owner",
          "type": "address"
        }
      ],
      "name": "balanceOf",
      "outputs": [
        {
          "internalType": "uint256",
          "name": "",
          "type": "uint256"
        }
      ],
      "stateMutability": "view",
      "type": "function"
    },
    {
      "inputs": [
        {
          "internalType": "uint256",
          "name": "tokenId",
          "type": "uint256"
        },
        {
          "components": [
            {
              "internalType": "bytes",
              "name": "value",
              "type": "bytes"
            },
            {
              "internalType": "uint256",
              "name": "identifierIndex",
              "type": "uint256"
            },
            {
              "internalType": "bool",
              "name": "numberSign",
              "type": "bool"
            },
            {
              "internalType": "enum IJSInterpreter.JSValueType",
              "name": "valueType",
              "type": "uint8"
            }
          ],
          "internalType": "struct IJSInterpreter.JSValue[]",
          "name": "args",
          "type": "tuple[]"
        }
      ],
      "name": "execute",
      "outputs": [
        {
          "components": [
            {
              "internalType": "bytes",
              "name": "value",
              "type": "bytes"
            },
            {
              "internalType": "uint256",
              "name": "identifierIndex",
              "type": "uint256"
            },
            {
              "internalType": "bool",
              "name": "numberSign",
              "type": "bool"
            },
            {
              "internalType": "enum IJSInterpreter.JSValueType",
              "name": "valueType",
              "type": "uint8"
            }
          ],
          "internalType": "struct IJSInterpreter.JSValue",
          "name": "",
          "type": "tuple"
        }
      ],
      "stateMutability": "view",
      "type": "function"
    },
    {
      "inputs": [
        {
          "internalType": "uint256",
          "name": "tokenId",
          "type": "uint256"
        },
        {
          "components": [
            {
              "internalType": "bytes",
              "name": "value",
              "type": "bytes"
            },
            {
              "internalType": "uint256",
              "name": "identifierIndex",
              "type": "uint256"
            },
            {
              "internalType": "bool",
              "name": "numberSign",
              "type": "bool"
            },
            {
              "internalType": "enum IJSInterpreter.JSValueType",
              "name": "valueType",
              "type": "uint8"
            }
          ],
          "internalType": "struct IJSInterpreter.JSValue[]",
          "name": "args",
          "type": "tuple[]"
        }
      ],
      "name": "executeToString",
      "outputs": [
        {
          "internalType": "string",
          "name": "",
          "type": "string"
        }
      ],
      "stateMutability": "view",
      "type": "function"
    },
    {
      "inputs": [
        {
          "internalType": "uint256",
          "name": "tokenId",
          "type": "uint256"
        }
      ],
      "name": "getApproved",
      "outputs": [
        {
          "internalType": "address",
          "name": "",
          "type": "address"
        }
      ],
      "stateMutability": "view",
      "type": "function"
    },
    {
      "inputs": [],
      "name": "getBalance",
      "outputs": [
        {
          "internalType": "uint256",
          "name": "",
          "type": "uint256"
        }
      ],
      "stateMutability": "view",
      "type": "function"
    },
    {
      "inputs": [
        {
          "internalType": "uint256",
          "name": "_tokenId",
          "type": "uint256"
        }
      ],
      "name": "getOwner",
      "outputs": [
        {
          "internalType": "address",
          "name": "",
          "type": "address"
        }
      ],
      "stateMutability": "view",
      "type": "function"
    },
    {
      "inputs": [
        {
          "internalType": "uint256",
          "name": "tokenId",
          "type": "uint256"
        }
      ],
      "name": "getTokenData",
      "outputs": [
        {
          "components": [
            {
              "internalType": "address",
              "name": "creator",
              "type": "address"
            },
            {
              "internalType": "string",
              "name": "code",
              "type": "string"
            },
            {
              "internalType": "string",
              "name": "lang",
              "type": "string"
            },
            {
              "internalType": "string",
              "name": "name",
              "type": "string"
            },
            {
              "internalType": "string",
              "name": "description",
              "type": "string"
            },
            {
              "internalType": "string",
              "name": "content",
              "type": "string"
            },
            {
              "internalType": "string",
              "name": "contentColor",
              "type": "string"
            },
            {
              "internalType": "string",
              "name": "contentOpacity",
              "type": "string"
            },
            {
              "internalType": "string",
              "name": "backgroundColor",
              "type": "string"
            },
            {
              "internalType": "uint32",
              "name": "contentOffsetX",
              "type": "uint32"
            },
            {
              "internalType": "uint32",
              "name": "contentOffsetY",
              "type": "uint32"
            }
          ],
          "internalType": "struct IExeToken.TokenAttributes",
          "name": "",
          "type": "tuple"
        }
      ],
      "stateMutability": "view",
      "type": "function"
    },
    {
      "inputs": [
        {
          "internalType": "address",
          "name": "_creator",
          "type": "address"
        }
      ],
      "name": "getTokenIdsByCreator",
      "outputs": [
        {
          "internalType": "uint256[]",
          "name": "",
          "type": "uint256[]"
        }
      ],
      "stateMutability": "view",
      "type": "function"
    },
    {
      "inputs": [
        {
          "internalType": "address",
          "name": "_owner",
          "type": "address"
        }
      ],
      "name": "getTokenIdsByOwner",
      "outputs": [
        {
          "internalType": "uint256[]",
          "name": "",
          "type": "uint256[]"
        }
      ],
      "stateMutability": "view",
      "type": "function"
    },
    {
      "inputs": [
        {
          "internalType": "contract ISnippetJS",
          "name": "_snippetJs",
          "type": "address"
        },
        {
          "internalType": "contract IFontProvider",
          "name": "_fontProvider",
          "type": "address"
        },
        {
          "internalType": "contract ITokenCategoryStore",
          "name": "_categoryStore",
          "type": "address"
        }
      ],
      "name": "initialize",
      "outputs": [],
      "stateMutability": "nonpayable",
      "type": "function"
    },
    {
      "inputs": [
        {
          "internalType": "address",
          "name": "owner",
          "type": "address"
        },
        {
          "internalType": "address",
          "name": "operator",
          "type": "address"
        }
      ],
      "name": "isApprovedForAll",
      "outputs": [
        {
          "internalType": "bool",
          "name": "",
          "type": "bool"
        }
      ],
      "stateMutability": "view",
      "type": "function"
    },
    {
      "inputs": [
        {
          "components": [
            {
              "internalType": "address",
              "name": "creator",
              "type": "address"
            },
            {
              "internalType": "string",
              "name": "code",
              "type": "string"
            },
            {
              "internalType": "string",
              "name": "lang",
              "type": "string"
            },
            {
              "internalType": "string",
              "name": "name",
              "type": "string"
            },
            {
              "internalType": "string",
              "name": "description",
              "type": "string"
            },
            {
              "internalType": "string",
              "name": "content",
              "type": "string"
            },
            {
              "internalType": "string",
              "name": "contentColor",
              "type": "string"
            },
            {
              "internalType": "string",
              "name": "contentOpacity",
              "type": "string"
            },
            {
              "internalType": "string",
              "name": "backgroundColor",
              "type": "string"
            },
            {
              "internalType": "uint32",
              "name": "contentOffsetX",
              "type": "uint32"
            },
            {
              "internalType": "uint32",
              "name": "contentOffsetY",
              "type": "uint32"
            }
          ],
          "internalType": "struct IExeToken.TokenAttributes",
          "name": "_attrs",
          "type": "tuple"
        },
        {
          "internalType": "uint32[]",
          "name": "_categories",
          "type": "uint32[]"
        }
      ],
      "name": "mint",
      "outputs": [
        {
          "internalType": "uint256",
          "name": "",
          "type": "uint256"
        }
      ],
      "stateMutability": "nonpayable",
      "type": "function"
    },
    {
      "inputs": [],
      "name": "name",
      "outputs": [
        {
          "internalType": "string",
          "name": "",
          "type": "string"
        }
      ],
      "stateMutability": "view",
      "type": "function"
    },
    {
      "inputs": [],
      "name": "owner",
      "outputs": [
        {
          "internalType": "address",
          "name": "",
          "type": "address"
        }
      ],
      "stateMutability": "view",
      "type": "function"
    },
    {
      "inputs": [
        {
          "internalType": "uint256",
          "name": "tokenId",
          "type": "uint256"
        }
      ],
      "name": "ownerOf",
      "outputs": [
        {
          "internalType": "address",
          "name": "",
          "type": "address"
        }
      ],
      "stateMutability": "view",
      "type": "function"
    },
    {
      "inputs": [
        {
          "components": [
            {
              "internalType": "address",
              "name": "creator",
              "type": "address"
            },
            {
              "internalType": "string",
              "name": "code",
              "type": "string"
            },
            {
              "internalType": "string",
              "name": "lang",
              "type": "string"
            },
            {
              "internalType": "string",
              "name": "name",
              "type": "string"
            },
            {
              "internalType": "string",
              "name": "description",
              "type": "string"
            },
            {
              "internalType": "string",
              "name": "content",
              "type": "string"
            },
            {
              "internalType": "string",
              "name": "contentColor",
              "type": "string"
            },
            {
              "internalType": "string",
              "name": "contentOpacity",
              "type": "string"
            },
            {
              "internalType": "string",
              "name": "backgroundColor",
              "type": "string"
            },
            {
              "internalType": "uint32",
              "name": "contentOffsetX",
              "type": "uint32"
            },
            {
              "internalType": "uint32",
              "name": "contentOffsetY",
              "type": "uint32"
            }
          ],
          "internalType": "struct IExeToken.TokenAttributes",
          "name": "_attrs",
          "type": "tuple"
        },
        {
          "components": [
            {
              "internalType": "bytes",
              "name": "value",
              "type": "bytes"
            },
            {
              "internalType": "uint256",
              "name": "identifierIndex",
              "type": "uint256"
            },
            {
              "internalType": "bool",
              "name": "numberSign",
              "type": "bool"
            },
            {
              "internalType": "enum IJSInterpreter.JSValueType",
              "name": "valueType",
              "type": "uint8"
            }
          ],
          "internalType": "struct IJSInterpreter.JSValue[]",
          "name": "args",
          "type": "tuple[]"
        }
      ],
      "name": "preview",
      "outputs": [
        {
          "internalType": "string",
          "name": "",
          "type": "string"
        }
      ],
      "stateMutability": "view",
      "type": "function"
    },
    {
      "inputs": [],
      "name": "renounceOwnership",
      "outputs": [],
      "stateMutability": "nonpayable",
      "type": "function"
    },
    {
      "inputs": [
        {
          "internalType": "address",
          "name": "from",
          "type": "address"
        },
        {
          "internalType": "address",
          "name": "to",
          "type": "address"
        },
        {
          "internalType": "uint256",
          "name": "tokenId",
          "type": "uint256"
        }
      ],
      "name": "safeTransferFrom",
      "outputs": [],
      "stateMutability": "nonpayable",
      "type": "function"
    },
    {
      "inputs": [
        {
          "internalType": "address",
          "name": "from",
          "type": "address"
        },
        {
          "internalType": "address",
          "name": "to",
          "type": "address"
        },
        {
          "internalType": "uint256",
          "name": "tokenId",
          "type": "uint256"
        },
        {
          "internalType": "bytes",
          "name": "data",
          "type": "bytes"
        }
      ],
      "name": "safeTransferFrom",
      "outputs": [],
      "stateMutability": "nonpayable",
      "type": "function"
    },
    {
      "inputs": [
        {
          "internalType": "address",
          "name": "_admin",
          "type": "address"
        }
      ],
      "name": "setAdmin",
      "outputs": [],
      "stateMutability": "nonpayable",
      "type": "function"
    },
    {
      "inputs": [
        {
          "internalType": "address",
          "name": "operator",
          "type": "address"
        },
        {
          "internalType": "bool",
          "name": "approved",
          "type": "bool"
        }
      ],
      "name": "setApprovalForAll",
      "outputs": [],
      "stateMutability": "nonpayable",
      "type": "function"
    },
    {
      "inputs": [
        {
          "internalType": "contract IFontProvider",
          "name": "_fontProvider",
          "type": "address"
        }
      ],
      "name": "setFontProvider",
      "outputs": [],
      "stateMutability": "nonpayable",
      "type": "function"
    },
    {
      "inputs": [
        {
          "internalType": "contract ISnippetJS",
          "name": "_snippetJs",
          "type": "address"
        }
      ],
      "name": "setSnippetJs",
      "outputs": [],
      "stateMutability": "nonpayable",
      "type": "function"
    },
    {
      "inputs": [
        {
          "internalType": "bytes4",
          "name": "interfaceId",
          "type": "bytes4"
        }
      ],
      "name": "supportsInterface",
      "outputs": [
        {
          "internalType": "bool",
          "name": "",
          "type": "bool"
        }
      ],
      "stateMutability": "view",
      "type": "function"
    },
    {
      "inputs": [],
      "name": "symbol",
      "outputs": [
        {
          "internalType": "string",
          "name": "",
          "type": "string"
        }
      ],
      "stateMutability": "view",
      "type": "function"
    },
    {
      "inputs": [
        {
          "internalType": "string",
          "name": "code",
          "type": "string"
        },
        {
          "components": [
            {
              "internalType": "bytes",
              "name": "value",
              "type": "bytes"
            },
            {
              "internalType": "uint256",
              "name": "identifierIndex",
              "type": "uint256"
            },
            {
              "internalType": "bool",
              "name": "numberSign",
              "type": "bool"
            },
            {
              "internalType": "enum IJSInterpreter.JSValueType",
              "name": "valueType",
              "type": "uint8"
            }
          ],
          "internalType": "struct IJSInterpreter.JSValue[]",
          "name": "args",
          "type": "tuple[]"
        }
      ],
      "name": "test",
      "outputs": [
        {
          "internalType": "string",
          "name": "",
          "type": "string"
        }
      ],
      "stateMutability": "view",
      "type": "function"
    },
    {
      "inputs": [
        {
          "internalType": "uint256",
          "name": "index",
          "type": "uint256"
        }
      ],
      "name": "tokenByIndex",
      "outputs": [
        {
          "internalType": "uint256",
          "name": "",
          "type": "uint256"
        }
      ],
      "stateMutability": "view",
      "type": "function"
    },
    {
      "inputs": [
        {
          "internalType": "address",
          "name": "owner",
          "type": "address"
        },
        {
          "internalType": "uint256",
          "name": "index",
          "type": "uint256"
        }
      ],
      "name": "tokenOfOwnerByIndex",
      "outputs": [
        {
          "internalType": "uint256",
          "name": "",
          "type": "uint256"
        }
      ],
      "stateMutability": "view",
      "type": "function"
    },
    {
      "inputs": [
        {
          "internalType": "uint256",
          "name": "tokenId",
          "type": "uint256"
        }
      ],
      "name": "tokenURI",
      "outputs": [
        {
          "internalType": "string",
          "name": "",
          "type": "string"
        }
      ],
      "stateMutability": "view",
      "type": "function"
    },
    {
      "inputs": [],
      "name": "totalSupply",
      "outputs": [
        {
          "internalType": "uint256",
          "name": "",
          "type": "uint256"
        }
      ],
      "stateMutability": "view",
      "type": "function"
    },
    {
      "inputs": [
        {
          "internalType": "address",
          "name": "from",
          "type": "address"
        },
        {
          "internalType": "address",
          "name": "to",
          "type": "address"
        },
        {
          "internalType": "uint256",
          "name": "tokenId",
          "type": "uint256"
        }
      ],
      "name": "transferFrom",
      "outputs": [],
      "stateMutability": "nonpayable",
      "type": "function"
    },
    {
      "inputs": [
        {
          "internalType": "address",
          "name": "newOwner",
          "type": "address"
        }
      ],
      "name": "transferOwnership",
      "outputs": [],
      "stateMutability": "nonpayable",
      "type": "function"
    }
  ],
  "bytecode": "0x6080806040523461001657614c3f908161001c8239f35b600080fdfe60806040526004361015610013575b600080fd5b60003560e01c806301ffc9a7146102b257806306fdde03146102a9578063081812fc146102a0578063095ea7b31461029757806312065fe01461028e57806318160ddd146102855780631fd19eba1461027c57806323b872dd146102735780632f745c591461026a57806342842e0e146102615780634f6ccce7146102585780636352211e146101c85780636970bb0a1461024f578063704b6c021461024657806370a082311461023d578063715018a6146102345780637b12246b1461022b57806382801191146102225780638da5cb5b1461021957806395d89b4114610210578063997c96c414610207578063a22cb465146101fe578063a498f4f4146101f5578063b09afec1146101ec578063b0ec0c02146101e3578063b88d4fde146101da578063c0c53b8b146101d1578063c41a360a146101c8578063c87b56dd146101bf578063ca7e89dc146101b6578063cdf41680146101ad578063e985e9c5146101a4578063f2fde38b1461019b5763f851a4401461019357600080fd5b61000e611c6e565b5061000e611bc6565b5061000e611b5b565b5061000e611abc565b5061000e611a5a565b5061000e6118d1565b5061000e610ec7565b5061000e6117ca565b5061000e611772565b5061000e61170f565b5061000e6115cc565b5061000e6114e9565b5061000e611388565b5061000e6112ca565b5061000e611222565b5061000e6111fa565b5061000e611133565b5061000e61107a565b5061000e61101d565b5061000e610ff5565b5061000e610fb0565b5061000e610f21565b5061000e610e0b565b5061000e610dc3565b5061000e610d8f565b5061000e610d65565b5061000e610aa5565b5061000e6106b7565b5061000e61069a565b5061000e610586565b5061000e610538565b5061000e610452565b5061000e6102e5565b7fffffffff0000000000000000000000000000000000000000000000000000000081160361000e57565b503461000e57602036600319011261000e5760207fffffffff00000000000000000000000000000000000000000000000000000000600435610326816102bb565b167f780e9d6300000000000000000000000000000000000000000000000000000000811490811561035d575b506040519015158152f35b7f80ac58cd000000000000000000000000000000000000000000000000000000008114915081156103c1575b8115610397575b5038610352565b7f01ffc9a70000000000000000000000000000000000000000000000000000000091501438610390565b7f5b5e139f0000000000000000000000000000000000000000000000000000000081149150610389565b600091031261000e57565b60005b8381106104095750506000910152565b81810151838201526020016103f9565b90602091610432815180928185528580860191016103f6565b601f01601f1916010190565b90602061044f928181520190610419565b90565b503461000e5760008060031936011261053557604051908060975461047681611e2d565b8085529160019180831690811561050b57506001146104b0575b6104ac856104a081870382610762565b6040519182918261043e565b0390f35b9250609783527f354a83ed9988f79f6038d4c7a7dadbad8af32f4ad6df893e0e5807a1b1944ff95b8284106104f35750505081016020016104a0826104ac610490565b805460208587018101919091529093019281016104d8565b8695506104ac969350602092506104a094915060ff191682840152151560051b8201019293610490565b80fd5b503461000e57602036600319011261000e576020610557600435611f7c565b6001600160a01b0360405191168152f35b6001600160a01b0381160361000e57565b359061058482610568565b565b503461000e57604036600319011261000e576004356105a481610568565b6024356105b081611e0b565b916001600160a01b038084168091831614610630576105e2936105dd9133149081156105e4575b50611f0b565b612375565b005b61062a91506106239061060b33916001600160a01b0316600052609c602052604060002090565b906001600160a01b0316600052602052604060002090565b5460ff1690565b386105d7565b608460405162461bcd60e51b815260206004820152602160248201527f4552433732313a20617070726f76616c20746f2063757272656e74206f776e6560448201527f72000000000000000000000000000000000000000000000000000000000000006064820152fd5b503461000e57600036600319011261000e57602047604051908152f35b503461000e57600036600319011261000e57602060cb54604051908152f35b50634e487b7160e01b600052604160045260246000fd5b6080810190811067ffffffffffffffff82111761070957604052565b6107116106d6565b604052565b67ffffffffffffffff811161070957604052565b6040810190811067ffffffffffffffff82111761070957604052565b6060810190811067ffffffffffffffff82111761070957604052565b90601f8019910116810190811067ffffffffffffffff82111761070957604052565b60405190610160820182811067ffffffffffffffff82111761070957604052565b60405190610120820182811067ffffffffffffffff82111761070957604052565b604051906105848261072a565b60209067ffffffffffffffff81116107f1575b601f01601f19160190565b6107f96106d6565b6107e6565b81601f8201121561000e57803590610815826107d3565b926108236040519485610762565b8284526020838301011161000e57816000926020809301838601378301015290565b359063ffffffff8216820361000e57565b9190916101608184031261000e5761086c610784565b9261087682610579565b845267ffffffffffffffff602083013581811161000e57826108999185016107fe565b6020860152604083013581811161000e57826108b69185016107fe565b6040860152606083013581811161000e57826108d39185016107fe565b6060860152608083013581811161000e57826108f09185016107fe565b608086015260a083013581811161000e578261090d9185016107fe565b60a086015260c083013581811161000e578261092a9185016107fe565b60c086015260e083013581811161000e57826109479185016107fe565b60e0860152610100918284013591821161000e576109669184016107fe565b90840152610120610978818301610845565b9084015261098a610140809201610845565b90830152565b60209067ffffffffffffffff81116109aa575b60051b0190565b6109b26106d6565b6109a3565b8015150361000e57565b600e111561000e57565b81601f8201121561000e5780356109e181610990565b926040916109f183519586610762565b808552602093848087019260051b8201019383851161000e57858201925b858410610a20575050505050505090565b67ffffffffffffffff843581811161000e5784019160809283601f19828a03011261000e57845190610a51826106ed565b8a81013593841161000e578a94610a6d8a8780978501016107fe565b8352868201358584015260609182810135610a87816109b7565b88850152013590610a97826109c1565b820152815201930192610a0f565b503461000e57604036600319011261000e5767ffffffffffffffff60043581811161000e57610ad8903690600401610856565b9060243590811161000e57610af19036906004016109cb565b338252610afe9082614457565b6060820151906080830151926040810151906020810151610b1e90613e35565b9051610b32906001600160a01b0316613d5b565b90610b3b613cc6565b604051683d913730b6b2911d1160b91b602082015296879691949160298801610b6391613356565b7f222c226465736372697074696f6e223a220000000000000000000000000000008152601101610b9291613356565b7f222c2261747472696275746573223a5b0000000000000000000000000000000081526010017f7b2274726169745f74797065223a20226c616e67222c2276616c7565223a22008152601f01610be791613356565b7f227d2c7b2274726169745f74797065223a2022636f6465222c2276616c7565228152611d1160f11b6020820152602201610c2191613356565b7f227d2c7b2274726169745f74797065223a202263726561746f72222c2276616c8152643ab2911d1160d91b6020820152602501610c5e91613356565b7f227d2c7b2274726169745f74797065223a20226f776e6572222c2276616c7565815262111d1160e91b6020820152602301610c9991613356565b6c113eae961134b6b0b3b2911d1160991b8152600d01610cb891613356565b61227d60f01b81526002010390601f19918281018252610cd89082610762565b610ce190613e35565b6040517f646174613a6170706c69636174696f6e2f6a736f6e3b6261736536342c000000602082015291908290603d8201610d1b91613356565b039081018252610d2b9082610762565b6040516104ac81928261043e565b606090600319011261000e57600435610d5181610568565b90602435610d5e81610568565b9060443590565b503461000e576105e2610d7736610d39565b91610d8a610d8584336120f7565b611fbe565b6121e9565b503461000e57604036600319011261000e576020610dbb600435610db281610568565b602435906125a6565b604051908152f35b503461000e576105e2610dd536610d39565b90604051926020840184811067ffffffffffffffff821117610dfe575b60405260008452612061565b610e066106d6565b610df2565b503461000e57602036600319011261000e5760043560cb54811015610e5d5760cb6000527fa7ce836d032b2bf62b7e2097a8e0a6d8aeb35405ad15271e96d3b0188a1d06fb0154604051908152602090f35b608460405162461bcd60e51b815260206004820152602c60248201527f455243373231456e756d657261626c653a20676c6f62616c20696e646578206f60448201527f7574206f6620626f756e647300000000000000000000000000000000000000006064820152fd5b503461000e57602036600319011261000e576020610557600435611e0b565b6020908160408183019282815285518094520193019160005b828110610f0d575050505090565b835185529381019392810192600101610eff565b503461000e57602036600319011261000e57600435610f3f81610568565b610f4881611d36565b610f5181610990565b91610f5f6040519384610762565b818352601f19610f6e83610990565b0136602085013760005b828110610f8d57604051806104ac8682610ee6565b80610f9b610fab92846125a6565b610fa58287613078565b52613024565b610f78565b503461000e57602036600319011261000e576001600160a01b03600435610fd681610568565b610fde611c96565b166001600160a01b031960fb54161760fb55600080f35b503461000e57602036600319011261000e576020610dbb60043561101881610568565b611d36565b503461000e5760008060031936011261053557611038611c96565b806001600160a01b036033546001600160a01b03198116603355167f8be0079c531659141344cd1fd0a4f28419497f9722a3daafe3b4186f6b6457e08280a380f35b503461000e5760208060031936011261000e576001600160a01b036004356110a181610568565b1660005260fd8152604060002090604051908181845491828152019360005281600020916000905b8282106110ec576104ac856110e081890382610762565b60405191829182610ee6565b8354865294850194600193840193909101906110c9565b90604060031983011261000e57600435916024359067ffffffffffffffff821161000e5761044f916004016109cb565b503461000e576104ac6111ab600061115d61114d36611103565b919061115761309a565b50614a31565b611165613614565b9161116e613671565b8352611179836147a4565b602083015260206001600160a01b0360ff5416910151604051809581948293635a5c64ef60e11b8452600484016137d2565b03915afa9081156111ed575b6000916111cc575b506040519182918261043e565b6111e7913d8091833e6111df8183610762565b810190613746565b386111bf565b6111f5612423565b6111b7565b503461000e57600036600319011261000e5760206001600160a01b0360335416604051908152f35b503461000e5760008060031936011261053557604051908060985461124681611e2d565b8085529160019180831690811561050b575060011461126f576104ac856104a081870382610762565b9250609883527f2237a976fa961f5921fd19f2b03c925c725d77b20ce8f790c19709c03de4d8145b8284106112b25750505081016020016104a0826104ac610490565b80546020858701810191909152909301928101611297565b503461000e57604036600319011261000e5767ffffffffffffffff60043581811161000e576112fd903690600401610856565b60243591821161000e573660238301121561000e57816004013561132081610990565b9261132e6040519485610762565b81845260209160248386019160051b8301019136831161000e57602401905b828210611371576104ac6113618787613389565b6040519081529081906020820190565b83809161137d84610845565b81520191019061134d565b503461000e57604036600319011261000e576004356113a681610568565b6024356113b2816109b7565b6001600160a01b0382169182331461143557816113f26114039233600052609c6020526040600020906001600160a01b0316600052602052604060002090565b9060ff801983541691151516179055565b604051901515815233907f17307eab39ab6107e8899845ad3d59bd9653f200f220920489ca2b5937696c3190602090a3005b606460405162461bcd60e51b815260206004820152601960248201527f4552433732313a20617070726f766520746f2063616c6c6572000000000000006044820152fd5b90600e8210156114865752565b634e487b7160e01b600052602160045260246000fd5b9061044f906060806114b78551608085526080850190610419565b94602081015160208501526040810151151560408501520151910190611479565b90602061044f92818152019061149c565b503461000e576104ac61157d600061151661150336611103565b919061150d61362d565b5061115761309a565b61151e613614565b91611527613671565b8352611532836147a4565b602083015260206001600160a01b0360ff54169101516040518095819482937f72dcce11000000000000000000000000000000000000000000000000000000008452600484016137d2565b03915afa9081156115bf575b60009161159e575b50604051918291826114d8565b6115b9913d8091833e6115b18183610762565b810190613896565b38611591565b6115c7612423565b611589565b503461000e57602036600319011261000e576115e661309a565b506115ef61309a565b506115fb600435614a31565b60405180916020825261161a6020830182516001600160a01b03169052565b6104ac602082015161163a61016091826040870152610180860190610419565b926116e76116b76116a361168f61167b611667604087015199601f199a8c60608d82850301910152610419565b60608701518a8c83030160808d0152610419565b6080860151898b83030160a08c0152610419565b60a0850151888a83030160c08b0152610419565b60c0840151878983030160e08a0152610419565b6116d260e08401519161010092888a830301848b0152610419565b90830151610120968883030187890152610419565b9381015190611701610140928388019063ffffffff169052565b015163ffffffff1690840152565b503461000e57602036600319011261000e5760043561172d81610568565b6001600160a01b03806033541633148015611765575b61174c90612fbe565b61010091166001600160a01b0319825416179055600080f35b5060fb5481163314611743565b503461000e57608036600319011261000e5760043561179081610568565b60243561179c81610568565b6064359167ffffffffffffffff831161000e576117c06105e29336906004016107fe565b9160443591612061565b503461000e57606036600319011261000e576004356117e881610568565b6118456024356117f781610568565b6044359061180482610568565b6000549361182960ff8660081c1615809681976118c3575b81156118a3575b506129b2565b8461183c600160ff196000541617600055565b61188a57612a23565b61184b57005b61185b61ff001960005416600055565b604051600181527f7f26b83ff96e1f2b6a682f133852f6798a09c465da95921460cefb384740249890602090a1005b61189e61010061ff00196000541617600055565b612a23565b303b159150816118b5575b5038611823565b6001915060ff1614386118ae565b600160ff821610915061181c565b503461000e57602036600319011261000e576004356118ee61309a565b508060fe5411156119f0576104a0816119ea61190c6104ac94613157565b50916119e5600961191b610784565b9461193d61193082546001600160a01b031690565b6001600160a01b03168752565b61194960018201611e67565b602087015261195a60028201611e67565b604087015261196b60038201611e67565b606087015261197c60048201611e67565b608087015261198d60058201611e67565b60a087015261199e60068201611e67565b60c08701526119af60078201611e67565b60e08701526119c060088201611e67565b610100870152015463ffffffff80821661012087015260209190911c16610140850152565b611e0b565b90613924565b608460405162461bcd60e51b815260206004820152603560248201527f546f6b656e4174747269627574657352656769737472792e617373657445786960448201527f7374733a206174747273206e6f742065786973747300000000000000000000006064820152fd5b503461000e57602036600319011261000e57600435611a7881610568565b6001600160a01b0390816033541633148015611aaf575b611a9890612fbe565b166001600160a01b031960ff54161760ff55600080f35b5060fb5482163314611a8f565b503461000e57604036600319011261000e5767ffffffffffffffff60043581811161000e57611aef9036906004016107fe565b60243591821161000e5760006111ab91611b106104ac9436906004016109cb565b90611b19613614565b91611b22613671565b8352611b2d836147a4565b60208301526001600160a01b0360ff541690604051809581948293635a5c64ef60e11b8452600484016137d2565b503461000e57604036600319011261000e57602060ff611bba600435611b8081610568565b6001600160a01b0360243591611b9583610568565b16600052609c84526040600020906001600160a01b0316600052602052604060002090565b54166040519015158152f35b503461000e57602036600319011261000e57600435611be481610568565b611bec611c96565b6001600160a01b03811615611c04576105e290611cee565b608460405162461bcd60e51b815260206004820152602660248201527f4f776e61626c653a206e6577206f776e657220697320746865207a65726f206160448201527f64647265737300000000000000000000000000000000000000000000000000006064820152fd5b503461000e57600036600319011261000e5760206001600160a01b0360fb5416604051908152f35b6001600160a01b03603354163303611caa57565b606460405162461bcd60e51b815260206004820152602060248201527f4f776e61626c653a2063616c6c6572206973206e6f7420746865206f776e65726044820152fd5b603354906001600160a01b0380911691826001600160a01b0319821617603355167f8be0079c531659141344cd1fd0a4f28419497f9722a3daafe3b4186f6b6457e0600080a3565b6001600160a01b03168015611d5657600052609a60205260406000205490565b608460405162461bcd60e51b815260206004820152602960248201527f4552433732313a2061646472657373207a65726f206973206e6f74206120766160448201527f6c6964206f776e657200000000000000000000000000000000000000000000006064820152fd5b15611dc757565b606460405162461bcd60e51b815260206004820152601860248201527f4552433732313a20696e76616c696420746f6b656e20494400000000000000006044820152fd5b60005260996020526001600160a01b036040600020541661044f811515611dc0565b90600182811c92168015611e5d575b6020831014611e4757565b634e487b7160e01b600052602260045260246000fd5b91607f1691611e3c565b9060405191826000825492611e7b84611e2d565b908184526001948581169081600014611ee85750600114611ea5575b505061058492500383610762565b9093915060005260209081600020936000915b818310611ed057505061058493508201013880611e97565b85548884018501529485019487945091830191611eb8565b91505061058494506020925060ff191682840152151560051b8201013880611e97565b15611f1257565b608460405162461bcd60e51b815260206004820152603d60248201527f4552433732313a20617070726f76652063616c6c6572206973206e6f7420746f60448201527f6b656e206f776e6572206f7220617070726f76656420666f7220616c6c0000006064820152fd5b611fa4611f9f8260005260996020526001600160a01b0360406000205416151590565b611dc0565b600052609b6020526001600160a01b036040600020541690565b15611fc557565b608460405162461bcd60e51b815260206004820152602d60248201527f4552433732313a2063616c6c6572206973206e6f7420746f6b656e206f776e6560448201527f72206f7220617070726f766564000000000000000000000000000000000000006064820152fd5b604051906020820182811067ffffffffffffffff821117612054575b60405260008252565b61205c6106d6565b61204b565b90612085939291612075610d8584336120f7565b6120808383836121e9565b612460565b1561208c57565b60405162461bcd60e51b815260206004820152603260248201527f4552433732313a207472616e7366657220746f206e6f6e20455243373231526560448201527f63656976657220696d706c656d656e74657200000000000000000000000000006064820152608490fd5b6001600160a01b038061210984611e0b565b16928183169284841494851561213f575b50508315612129575b50505090565b61213591929350611f7c565b1614388080612123565b60ff9295509061216e91600052609c6020526040600020906001600160a01b0316600052602052604060002090565b541692388061211a565b1561217f57565b608460405162461bcd60e51b815260206004820152602560248201527f4552433732313a207472616e736665722066726f6d20696e636f72726563742060448201527f6f776e65720000000000000000000000000000000000000000000000000000006064820152fd5b61220d906121f684611e0b565b6001600160a01b0382811693909182168414612178565b831692831561230c5761228a8261222887846122e59661265d565b61224a856122446122388a611e0b565b6001600160a01b031690565b14612178565b61227161226188600052609b602052604060002090565b6001600160a01b03198154169055565b6001600160a01b0316600052609a602052604060002090565b60001981540190556122af816001600160a01b0316600052609a602052604060002090565b600181540190556122ca856000526099602052604060002090565b906001600160a01b03166001600160a01b0319825416179055565b7fddf252ad1be2c89b69c2b068fc378daa952ba7f163c4a11628f55a4df523b3ef600080a4565b608460405162461bcd60e51b8152602060048201526024808201527f4552433732313a207472616e7366657220746f20746865207a65726f2061646460448201527f72657373000000000000000000000000000000000000000000000000000000006064820152fd5b81600052609b6020526123a2816040600020906001600160a01b03166001600160a01b0319825416179055565b6001600160a01b03806123b484611e0b565b169116907f8c5be1e5ebec7d5bd14f71427d1e84f3dd0314c0f7b2291e5b200ac8c7c3b925600080a4565b9081602091031261000e575161044f816102bb565b909261044f94936080936001600160a01b03809216845216602083015260408201528160608201520190610419565b506040513d6000823e3d90fd5b3d1561245b573d90612441826107d3565b9161244f6040519384610762565b82523d6000602084013e565b606090565b92909190823b1561259d576124b49260209260006001600160a01b036040518097819682957f150b7a02000000000000000000000000000000000000000000000000000000009b8c855233600486016123f4565b0393165af16000918161256d575b50612547576124cf612430565b805190816125425760405162461bcd60e51b815260206004820152603260248201527f4552433732313a207472616e7366657220746f206e6f6e20455243373231526560448201527f63656976657220696d706c656d656e74657200000000000000000000000000006064820152608490fd5b602001fd5b7fffffffff00000000000000000000000000000000000000000000000000000000161490565b61258f91925060203d8111612596575b6125878183610762565b8101906123df565b90386124c2565b503d61257d565b50505050600190565b6125af81611d36565b8210156125dc576001600160a01b031660005260c960205260406000209060005260205260406000205490565b608460405162461bcd60e51b815260206004820152602b60248201527f455243373231456e756d657261626c653a206f776e657220696e646578206f7560448201527f74206f6620626f756e64730000000000000000000000000000000000000000006064820152fd5b50634e487b7160e01b600052603260045260246000fd5b9091906001600160a01b0380821691826126a0575061267b8361280c565b83168061268e575050610584915061289c565b03612697575050565b61058491612789565b81851683036126b0575b5061267b565b6126b981611d36565b600019810190811161277c575b61271160009286845260ca6020526040842054838103612722575b50836126f78860005260ca602052604060002090565b556001600160a01b031660005260c9602052604060002090565b9082526020526040812055386126aa565b86855260c9602052604085208486526020526127756040862054612759846001600160a01b031660005260c9602052604060002090565b83885260205280604088205560005260ca602052604060002090565b55386126e1565b612784612885565b6126c6565b60409061279581611d36565b926001600160a01b0360009216825260c96020528282208483526020528083832055815260ca6020522055565b805490680100000000000000008210156127ff575b600182018082558210156127f2575b60005260206000200155565b6127fa612646565b6127e6565b6128076106d6565b6127d7565b60cb548160005260cc6020528060406000205568010000000000000000811015612878575b600181018060cb5581101561286b575b60cb6000527fa7ce836d032b2bf62b7e2097a8e0a6d8aeb35405ad15271e96d3b0188a1d06fb0155565b612873612646565b612841565b6128806106d6565b612831565b50634e487b7160e01b600052601160045260246000fd5b60cb805460001992908381018181116129a5575b61294c600093849281845260cc602052846040852054911015612998575b86845261293b7fa7ce836d032b2bf62b7e2097a8e0a6d8aeb35405ad15271e96d3b0188a1d06fa95868101549083101561298b575b88865280837fa7ce836d032b2bf62b7e2097a8e0a6d8aeb35405ad15271e96d3b0188a1d06fb015560005260cc602052604060002090565b5560005260cc602052604060002090565b558254938415612977578401938085101561296a575b838352015555565b612972612646565b612962565b602483634e487b7160e01b81526031600452fd5b612993612646565b612903565b6129a0612646565b6128ce565b6129ad612885565b6128b0565b156129b957565b608460405162461bcd60e51b815260206004820152602e60248201527f496e697469616c697a61626c653a20636f6e747261637420697320616c72656160448201527f647920696e697469616c697a65640000000000000000000000000000000000006064820152fd5b906001600160a01b0390816001600160a01b031993168360ff54161760ff5581610100911683825416179055610101921690825416179055612a7560ff60005460081c16612a7081612b24565b612b24565b612a7e33611cee565b612af3604051612a8d8161072a565b600881527f457865546f6b656e000000000000000000000000000000000000000000000000602082015260405190612ac48261072a565b600382527f43535400000000000000000000000000000000000000000000000000000000006020830152612b95565b610584612b086033546001600160a01b031690565b6001600160a01b03166001600160a01b031960fb54161760fb55565b15612b2b57565b608460405162461bcd60e51b815260206004820152602b60248201527f496e697469616c697a61626c653a20636f6e7472616374206973206e6f74206960448201527f6e697469616c697a696e670000000000000000000000000000000000000000006064820152fd5b90612bab60ff60005460081c16612a7081612b24565b815167ffffffffffffffff8111612ca6575b612bd181612bcc609754611e2d565b612cb3565b602080601f8311600114612c135750819061058494600092612c08575b50508160011b916000199060031b1c191617609755612de9565b015190503880612bee565b919293601f198416612c4760976000527f354a83ed9988f79f6038d4c7a7dadbad8af32f4ad6df893e0e5807a1b1944ff990565b936000905b828210612c8e57505091600193918561058497969410612c75575b505050811b01609755612de9565b015160001960f88460031b161c19169055388080612c67565b80600186978294978701518155019601940190612c4c565b612cae6106d6565b612bbd565b601f8111612cbf575050565b600090609782527f354a83ed9988f79f6038d4c7a7dadbad8af32f4ad6df893e0e5807a1b1944ff9906020601f850160051c83019410612d1a575b601f0160051c01915b828110612d0f57505050565b818155600101612d03565b9092508290612cfa565b601f8111612d30575050565b600090609882527f2237a976fa961f5921fd19f2b03c925c725d77b20ce8f790c19709c03de4d814906020601f850160051c83019410612d8b575b601f0160051c01915b828110612d8057505050565b818155600101612d74565b9092508290612d6b565b90601f8111612da357505050565b600091825260208220906020601f850160051c83019410612ddf575b601f0160051c01915b828110612dd457505050565b818155600101612dc8565b9092508290612dbf565b90815167ffffffffffffffff8111612ed4575b612e1081612e0b609854611e2d565b612d24565b602080601f8311600114612e4c5750819293600092612e41575b50508160011b916000199060031b1c191617609855565b015190503880612e2a565b90601f19831694612e7f60986000527f2237a976fa961f5921fd19f2b03c925c725d77b20ce8f790c19709c03de4d81490565b926000905b878210612ebc575050836001959610612ea3575b505050811b01609855565b015160001960f88460031b161c19169055388080612e98565b80600185968294968601518155019501930190612e84565b612edc6106d6565b612dfc565b919091825167ffffffffffffffff8111612fb1575b612f0a81612f048454611e2d565b84612d95565b602080601f8311600114612f46575081929394600092612f3b575b50508160011b916000199060031b1c1916179055565b015190503880612f25565b90601f19831695612f5c85600052602060002090565b926000905b888210612f9957505083600195969710612f80575b505050811b019055565b015160001960f88460031b161c19169055388080612f76565b80600185968294968601518155019501930190612f61565b612fb96106d6565b612ef6565b15612fc557565b606460405162461bcd60e51b815260206004820152600a60248201527f6f6e6c792061646d696e000000000000000000000000000000000000000000006044820152fd5b6040519061301682610746565b600282526040366020840137565b6001906000198114613034570190565b61303c612885565b0190565b60209080511561304e570190565b61303c612646565b60409080516001101561304e570190565b60609080516002101561304e570190565b602091815181101561308d575b60051b010190565b613095612646565b613085565b60405190610160820182811067ffffffffffffffff8211176130ff575b604052600061014083828152606080602083015280604083015280808301528060808301528060a08301528060c08301528060e0830152610100820152826101208201520152565b6131076106d6565b6130b7565b1561311357565b606460405162461bcd60e51b815260206004820152601260248201527f746f6b656e20616c6561647920657869737400000000000000000000000000006044820152fd5b600a9060fe54811015613193575b60fe600052027f54075df80ec1ae6ac9100e1fd0ebf3246c17f5c933137af392011f4c5f61513a0190600090565b61319b612646565b613165565b6131c460fe54680100000000000000008110156132ff575b6001810160fe55613157565b9190916132e9576132c86101406009610584946132076131eb86516001600160a01b031690565b82906001600160a01b03166001600160a01b0319825416179055565b613218602086015160018301612ee1565b613229604086015160028301612ee1565b61323a606086015160038301612ee1565b61324b608086015160048301612ee1565b61325c60a086015160058301612ee1565b61326d60c086015160068301612ee1565b61327e60e086015160078301612ee1565b61329061010086015160088301612ee1565b01926132bd6132a761012083015163ffffffff1690565b855463ffffffff191663ffffffff909116178555565b015163ffffffff1690565b67ffffffff0000000082549160201b169067ffffffff000000001916179055565b634e487b7160e01b600052600060045260246000fd5b6133076106d6565b6131b8565b9060609160408101918152602092816040858094015285518094520193019160005b82811061333c575050505090565b835163ffffffff168552938101939281019260010161332e565b9061303c602092828151948592016103f6565b613381906020604051928284809451938492016103f6565b810103902090565b9060fc549161339f61339a84613024565b60fc55565b6133a983336134fc565b3381526133ba8360fe54101561310c565b6133c3816131a0565b6133e9836133e4336001600160a01b031660005260fd602052604060002090565b6127c2565b6133ff612238610101546001600160a01b031690565b90813b1561000e576000806134496040946134619686519485809481937fc5f4121e0000000000000000000000000000000000000000000000000000000083528c6004840161330c565b03925af180156134a4575b61348b575b500151613369565b81337fe7cd4ce7f2a465edc730269a1305e8a48bad821e8fb7e152ec413829c01a53c4600080a490565b8061349861349e92610716565b806103eb565b38613459565b6134ac612423565b613454565b156134b857565b606460405162461bcd60e51b815260206004820152601c60248201527f4552433732313a20746f6b656e20616c7265616479206d696e746564000000006044820152fd5b6001600160a01b0381169081156135d0576135a89061353a6135348560005260996020526001600160a01b0360406000205416151590565b156134b1565b6135438461280c565b61354d8482612789565b6135706135348560005260996020526001600160a01b0360406000205416151590565b61358d816001600160a01b0316600052609a602052604060002090565b600181540190556122ca846000526099602052604060002090565b60007fddf252ad1be2c89b69c2b068fc378daa952ba7f163c4a11628f55a4df523b3ef8180a4565b606460405162461bcd60e51b815260206004820152602060248201527f4552433732313a206d696e7420746f20746865207a65726f20616464726573736044820152fd5b604051906136218261072a565b60606020838281520152565b604051906080820182811067ffffffffffffffff821117613664575b60405260006060838181528260208201528260408201520152565b61366c6106d6565b613649565b604090815161367f8161072a565b60018152809160005b6020808210156136bc578551602092916136a18261072a565b606082526136ad61362d565b81830152828601015201613688565b505091925050565b6040908151916136d383610746565b600283528260005b8281106136e757505050565b60209083516136f58161072a565b6060815261370161362d565b81840152838201830152016136db565b9092919261371e816107d3565b9161372c6040519384610762565b82948284528282011161000e5760206105849301906103f6565b60208183031261000e5780519067ffffffffffffffff821161000e57019080601f8301121561000e57815161044f92602001613711565b90815180825260208092019182818360051b85019501936000915b8483106137a85750505050505090565b90919293949584806137c283856001950387528a5161149c565b9801930193019194939290613798565b9291926137e760409283835283830190610419565b6020918281830391015282810192855193818352845180915260608301918460608360051b8601019601926000915b8383106138365750505050508161044f949501519181840391015261377d565b90919293968680613871600193605f198a82030187528b519083613861835189845289840190610419565b920151908481840391015261149c565b99019301930191939290613816565b5190610584826109b7565b5190610584826109c1565b9060208282031261000e57815167ffffffffffffffff9283821161000e57019060808282031261000e57604051926138cd846106ed565b825190811161000e5782019181601f8401121561000e576138f960609284602061391c96519101613711565b84526020810151602085015261391160408201613880565b60408501520161388b565b606082015290565b61392d816141d3565b606082015191608081015193604082015191602081015161394d90613e35565b9051613961906001600160a01b0316613d5b565b916001600160a01b031661397490613d5b565b604051683d913730b6b2911d1160b91b60208201529687969194916029880161399c91613356565b7f222c226465736372697074696f6e223a2200000000000000000000000000000081526011016139cb91613356565b7f222c2261747472696275746573223a5b0000000000000000000000000000000081526010017f7b2274726169745f74797065223a20226c616e67222c2276616c7565223a22008152601f01613a2091613356565b7f227d2c7b2274726169745f74797065223a2022636f6465222c2276616c7565228152611d1160f11b6020820152602201613a5a91613356565b7f227d2c7b2274726169745f74797065223a202263726561746f72222c2276616c8152643ab2911d1160d91b6020820152602501613a9791613356565b7f227d2c7b2274726169745f74797065223a20226f776e6572222c2276616c7565815262111d1160e91b6020820152602301613ad291613356565b6c113eae961134b6b0b3b2911d1160991b8152600d01613af191613356565b61227d60f01b81526002010390601f19918281018252613b119082610762565b613b1a90613e35565b6040517f646174613a6170706c69636174696f6e2f6a736f6e3b6261736536342c000000602082015291908290603d8201613b5491613356565b03908101825261044f9082610762565b908160021b917f3fffffffffffffffffffffffffffffffffffffffffffffffffffffffffffffff811603613b9457565b610584612885565b90670de0b6b3a764000091828102928184041490151715613b9457565b9060028201809211613b9457565b9060018201809211613b9457565b9060208201809211613b9457565b60405190613bf082610746565b602a82526040366020840137565b90613c08826107d3565b613c156040519182610762565b8281528092613c26601f19916107d3565b0190602036910137565b60219080516001101561304e570190565b906020918051821015613c5357010190565b613c5b612646565b010190565b8015613c6e575b6000190190565b613c76612885565b613c67565b15613c8257565b606460405162461bcd60e51b815260206004820152602060248201527f537472696e67733a20686578206c656e67746820696e73756666696369656e746044820152fd5b6000613cd0613be3565b906030613cdc83613040565b536078613ce883613c30565b536029905b60018211613d005761044f915015613c7b565b807f3031323334353637383961626364656600000000000000000000000000000000600f613d4893166010811015613d4e575b1a613d3e8486613c41565b5360041c91613c60565b90613ced565b613d56612646565b613d33565b613d63613be3565b906030613d6f83613040565b536078613d7b83613c30565b536029905b60018211613d935761044f915015613c7b565b807f3031323334353637383961626364656600000000000000000000000000000000600f613dd093166010811015613d4e571a613d3e8486613c41565b90613d80565b60405190613de382610746565b604082527f6768696a6b6c6d6e6f707172737475767778797a303132333435363738392b2f6040837f4142434445464748494a4b4c4d4e4f505152535455565758595a61626364656660208201520152565b805115613f5457613e44613dd6565b613e60613e5b613e548451613bb9565b6003900490565b613b64565b91613e72613e6d84613bd5565b613bfe565b92835280815182019060208501935b828210613ef857505050600390510680600114613ecd57600214613ea3575090565b7f3d0000000000000000000000000000000000000000000000000000000000000090600019015290565b507f3d3d00000000000000000000000000000000000000000000000000000000000090600119015290565b90919360049060038094019384516001603f81818460121c16880101519260f893841b8652828282600c1c1689010151841b8387015282828260061c1689010151841b60028701521686010151901b9082015201939190613e81565b5061044f61202f565b60405190613f6a8261072a565b600a82527f646174613a696d616765000000000000000000000000000000000000000000006020830152565b60405190613fa38261072a565b600482527f6e616d65000000000000000000000000000000000000000000000000000000006020830152565b60405190613fdc8261072a565b600b82527f6465736372697074696f6e0000000000000000000000000000000000000000006020830152565b604051906140158261072a565b600482527f636f6465000000000000000000000000000000000000000000000000000000006020830152565b6040519061404e8261072a565b600682527f726573756c7400000000000000000000000000000000000000000000000000006020830152565b6000915b6002831061408b57505050565b60019063ffffffff8351168152602080910192019201919061407e565b929160606105849261015e8087526020870152608060408701526140da815161014060808901526101c0880190610419565b61413d614127614114614100602086015194607f19958c60a08882850301910152610419565b6040860151858c83030160c08d0152610419565b85850151848b83030160e08c0152610419565b6080840151610100938a830301848b0152610419565b9161415160a08201516101208a019061407a565b60c081015161016089015260e081015161018089015201516101a08701529401906001600160a01b03169052565b90610584603a60405180947f646174613a696d6167652f7376672b786d6c3b6261736536342c00000000000060208301526141c381518092602086860191016103f6565b810103601a810185520183610762565b60a08101906141f36141e58351614b1c565b6141ed613f5d565b90614b9c565b156141fd57505190565b6142fb600061044f9361432a9360609061421a83516141ed613f96565b8414614355576142c691506060810151925b519060c08101519160e08201516101009384840151926142806142736101406142536107c6565b976132bd61426961012083015163ffffffff1690565b63ffffffff168a52565b63ffffffff166020870152565b6142886107a5565b978852602088015260408701526060860152608085015260a084015261015e8060c085015260e084015261020081840152546001600160a01b031690565b9060405193849283927f58c92ec0000000000000000000000000000000000000000000000000000000008452600484016140a8565b038173__$5b562c355aff420f155d99b44c1e69fd68$__5af4908115614348575b60009161432f575b50613e35565b61417f565b614342913d8091833e6111df8183610762565b38614324565b614350612423565b61431c565b61436283516141ed613fcf565b8414614378576142c6915060808101519261422c565b61438583516141ed614008565b841461439b576142c6915060208101519261422c565b6143a883516141ed614041565b6143b7575b6142c6919261422c565b614416846142c6936143c7613614565b9060208201526143d56136c4565b81526143e08161498c565b6143f561223860ff546001600160a01b031690565b6020850151604051809581948293635a5c64ef60e11b8452600484016137d2565b03915afa90811561444a575b8591614431575b5091506143ad565b614444913d8091833e6111df8183610762565b38614429565b614452612423565b614422565b9060a082019161446a6141e58451614b1c565b156144755750505190565b600061044f9361432a936142fb9360609161449384516141ed613f96565b85146144cc57506142c69150606081015192519060c08101519160e08201516101009384840151926142806142736101406142536107c6565b6144d984516141ed613fcf565b85146144f057506142c6915060808101519261422c565b6144fd84516141ed614008565b851461451457506142c6915060208101519261422c565b61452184516141ed614041565b614531575b506142c6919261422c565b6142c6925084614543916143c7613614565b03915afa908115614576575b859161455d575b5091614526565b614570913d8091833e6111df8183610762565b38614556565b61457e612423565b61454f565b6040519060a0820182811067ffffffffffffffff8211176145c2575b604052600060808360608152606060208201528260408201528260608201520152565b6145ca6106d6565b61459f565b604051906145dc8261072a565b600b82527f626c6f636b4e756d6265720000000000000000000000000000000000000000006020830152565b604051906146158261072a565b600982527f74696d657374616d7000000000000000000000000000000000000000000000006020830152565b6040519061464e8261072a565b6000602083606081520152565b604051906080820182811067ffffffffffffffff8211176146a5575b604052600382528160005b6060811061468e575050565b602090614699614583565b82828501015201614682565b6146ad6106d6565b614677565b602091828252606092838301918051946040938484870152865180915260809182870185848460051b8a01019901936000925b8484106146fa57505050505050015191015290565b90919293949987808a61475b6001948f8f89918291607f19908503018c525161473e61472e825160a0808852870190610419565b888301518682038a880152610419565b9580820151908501528981015115158a8501520151910190611479565b9c019401940192949391906146e5565b604051906147788261072a565b600c82527f6574687265756d426c6f636b00000000000000000000000000000000000000006020830152565b906147f66147b0614583565b916147b96145cf565b602090808286015281815191012090604091828601526147dc6080860160049052565b6147e543613b9c565b825182810191825294859160200190565b039361480a601f1995868101835282610762565b85526001606086015261481b614583565b95614824614608565b8083890152828151910120838801526148406080880160049052565b61486061486c61484f42613b9c565b855185810191825292839160200190565b03878101835282610762565b87526001606088015261487d614583565b600760808201529461488d613009565b9560005b87518110156148b657806148a76148b192613bc7565b610fa5828b613078565b614891565b5061493b6149879699614928879a879a6148ec61495e996148e061496a9a9c519384928301610ee6565b03888101835282610762565b85526149156148f9614641565b9561490261465b565b9081885261490f82613040565b52613040565b5084519061492282613056565b52613056565b5082519061493582613067565b52613067565b5060008782015261494a61362d565b6007606082015297519384918883016146b2565b03908101835282610762565b84526149768151613040565b5161497f61476b565b905251613040565b510152565b906149986147b0614583565b03936149ac601f1995868101835282610762565b8552600160608601526149bd614583565b956149c6614608565b8083890152828151910120838801526149e26080880160049052565b6148606149f161484f42613b9c565b875260016060880152614a02614583565b6007608082015294614a12613009565b9560005b87518110156148b657806148a7614a2c92613bc7565b614a16565b8060fe5411156119f057614a4490613157565b5061044f6009614a52610784565b92614a74614a6782546001600160a01b031690565b6001600160a01b03168552565b614a8060018201611e67565b6020850152614a9160028201611e67565b6040850152614aa260038201611e67565b6060850152614ab360048201611e67565b6080850152614ac460058201611e67565b60a0850152614ad560068201611e67565b60c0850152614ae660078201611e67565b60e0850152614af760088201611e67565b610100850152015463ffffffff80821661012085015260209190911c16610140830152565b600a80825110614b985760405191614b338361072a565b81835260203681850137600090815b838110614b50575050505090565b807fff00000000000000000000000000000000000000000000000000000000000000614b7f614b939385613c41565b5116841a614b8d8288613c41565b53613024565b614b42565b5090565b908151815181149283614baf5750505090565b614bd09350614bdd60405191828460209788968794858501988991016103f6565b8101038084520182610762565b51902091614bfd604051918281614bd081830196878151938492016103f6565b5190201438808061212356fea26469706673582212200cfbdd29af972fd1daf18b8c70abfc26f5541ca364b21e1d5fac9063448d6d5064736f6c63430008110033",
  "linkReferences": {
    "contracts/util/TokenSvg.sol": {
      "TokenSvg": [
        {
          "length": 20,
          "start": 17179
        }
      ]
    }
  },
  "deployedLinkReferences": {
    "contracts/util/TokenSvg.sol": {
      "TokenSvg": [
        {
          "length": 20,
          "start": 17151
        }
      ]
    }
  }
}