{
  "_format": "hh-sol-artifact-1",
  "contractName": "PayoutHandler",
  "sourceName": "contracts/token/PayoutHandler.sol",
  "abi": [
    {
      "anonymous": false,
      "inputs": [
        {
          "indexed": false,
          "internalType": "uint8",
          "name": "version",
          "type": "uint8"
        }
      ],
      "name": "Initialized",
      "type": "event"
    },
    {
      "anonymous": false,
      "inputs": [
        {
          "indexed": true,
          "internalType": "address",
          "name": "previousOwner",
          "type": "address"
        },
        {
          "indexed": true,
          "internalType": "address",
          "name": "newOwner",
          "type": "address"
        }
      ],
      "name": "OwnershipTransferred",
      "type": "event"
    },
    {
      "anonymous": false,
      "inputs": [
        {
          "indexed": true,
          "internalType": "address",
          "name": "from",
          "type": "address"
        },
        {
          "indexed": true,
          "internalType": "address",
          "name": "to",
          "type": "address"
        },
        {
          "indexed": true,
          "internalType": "uint256",
          "name": "tokenId",
          "type": "uint256"
        },
        {
          "indexed": false,
          "internalType": "uint256",
          "name": "amount",
          "type": "uint256"
        },
        {
          "indexed": false,
          "internalType": "uint256",
          "name": "dependee",
          "type": "uint256"
        },
        {
          "indexed": false,
          "internalType": "uint256",
          "name": "timestamp",
          "type": "uint256"
        },
        {
          "indexed": false,
          "internalType": "enum IPayoutHandler.Contribution",
          "name": "contribution",
          "type": "uint8"
        },
        {
          "indexed": false,
          "internalType": "enum IPayoutHandler.PayoutType",
          "name": "payoutType",
          "type": "uint8"
        }
      ],
      "name": "Received",
      "type": "event"
    },
    {
      "anonymous": false,
      "inputs": [
        {
          "indexed": true,
          "internalType": "address",
          "name": "recipient",
          "type": "address"
        },
        {
          "indexed": true,
          "internalType": "uint256",
          "name": "amount",
          "type": "uint256"
        },
        {
          "indexed": true,
          "internalType": "uint256",
          "name": "timestamp",
          "type": "uint256"
        }
      ],
      "name": "Withdrawn",
      "type": "event"
    },
    {
      "inputs": [],
      "name": "admin",
      "outputs": [
        {
          "internalType": "address",
          "name": "",
          "type": "address"
        }
      ],
      "stateMutability": "view",
      "type": "function"
    },
    {
      "inputs": [
        {
          "internalType": "uint256",
          "name": "tokenId",
          "type": "uint256"
        }
      ],
      "name": "calcShares",
      "outputs": [
        {
          "components": [
            {
              "internalType": "address",
              "name": "recipient",
              "type": "address"
            },
            {
              "internalType": "enum IPayoutHandler.Contribution",
              "name": "contribution",
              "type": "uint8"
            },
            {
              "internalType": "uint256",
              "name": "share",
              "type": "uint256"
            },
            {
              "internalType": "address",
              "name": "contractAddress",
              "type": "address"
            },
            {
              "internalType": "uint256",
              "name": "tokenId",
              "type": "uint256"
            }
          ],
          "internalType": "struct IPayoutHandler.Share[]",
          "name": "shares",
          "type": "tuple[]"
        }
      ],
      "stateMutability": "view",
      "type": "function"
    },
    {
      "inputs": [],
      "name": "creatorShare",
      "outputs": [
        {
          "internalType": "uint8",
          "name": "",
          "type": "uint8"
        }
      ],
      "stateMutability": "view",
      "type": "function"
    },
    {
      "inputs": [],
      "name": "exeToken",
      "outputs": [
        {
          "internalType": "contract IExeToken",
          "name": "",
          "type": "address"
        }
      ],
      "stateMutability": "view",
      "type": "function"
    },
    {
      "inputs": [],
      "name": "getBalanceToWithdraw",
      "outputs": [
        {
          "internalType": "uint256",
          "name": "",
          "type": "uint256"
        }
      ],
      "stateMutability": "view",
      "type": "function"
    },
    {
      "inputs": [
        {
          "internalType": "contract ISnippetJS",
          "name": "_snippetJs",
          "type": "address"
        },
        {
          "internalType": "contract IExeToken",
          "name": "_exeToken",
          "type": "address"
        }
      ],
      "name": "initialize",
      "outputs": [],
      "stateMutability": "nonpayable",
      "type": "function"
    },
    {
      "inputs": [],
      "name": "owner",
      "outputs": [
        {
          "internalType": "address",
          "name": "",
          "type": "address"
        }
      ],
      "stateMutability": "view",
      "type": "function"
    },
    {
      "inputs": [],
      "name": "ownerShare",
      "outputs": [
        {
          "internalType": "uint8",
          "name": "",
          "type": "uint8"
        }
      ],
      "stateMutability": "view",
      "type": "function"
    },
    {
      "inputs": [
        {
          "internalType": "uint256",
          "name": "tokenId",
          "type": "uint256"
        },
        {
          "internalType": "enum IPayoutHandler.PayoutType",
          "name": "payoutType",
          "type": "uint8"
        }
      ],
      "name": "payout",
      "outputs": [],
      "stateMutability": "payable",
      "type": "function"
    },
    {
      "inputs": [],
      "name": "renounceOwnership",
      "outputs": [],
      "stateMutability": "nonpayable",
      "type": "function"
    },
    {
      "inputs": [
        {
          "internalType": "address",
          "name": "_admin",
          "type": "address"
        }
      ],
      "name": "setAdmin",
      "outputs": [],
      "stateMutability": "nonpayable",
      "type": "function"
    },
    {
      "inputs": [
        {
          "internalType": "uint8",
          "name": "share",
          "type": "uint8"
        }
      ],
      "name": "setCreatorShare",
      "outputs": [],
      "stateMutability": "nonpayable",
      "type": "function"
    },
    {
      "inputs": [
        {
          "internalType": "uint256",
          "name": "tokenId",
          "type": "uint256"
        },
        {
          "components": [
            {
              "internalType": "address[]",
              "name": "contractAddresses",
              "type": "address[]"
            },
            {
              "internalType": "uint256[]",
              "name": "exeTokenIds",
              "type": "uint256[]"
            }
          ],
          "internalType": "struct IExeToken.Dependencies",
          "name": "dependencies",
          "type": "tuple"
        }
      ],
      "name": "setDependencies",
      "outputs": [],
      "stateMutability": "nonpayable",
      "type": "function"
    },
    {
      "inputs": [
        {
          "internalType": "contract IExeToken",
          "name": "_exeToken",
          "type": "address"
        }
      ],
      "name": "setExeToken",
      "outputs": [],
      "stateMutability": "nonpayable",
      "type": "function"
    },
    {
      "inputs": [
        {
          "internalType": "uint8",
          "name": "share",
          "type": "uint8"
        }
      ],
      "name": "setOwnerShare",
      "outputs": [],
      "stateMutability": "nonpayable",
      "type": "function"
    },
    {
      "inputs": [
        {
          "internalType": "contract ISnippetJS",
          "name": "_snippetJs",
          "type": "address"
        }
      ],
      "name": "setSnippetJs",
      "outputs": [],
      "stateMutability": "nonpayable",
      "type": "function"
    },
    {
      "inputs": [],
      "name": "snippetJs",
      "outputs": [
        {
          "internalType": "contract ISnippetJS",
          "name": "",
          "type": "address"
        }
      ],
      "stateMutability": "view",
      "type": "function"
    },
    {
      "inputs": [
        {
          "internalType": "address",
          "name": "newOwner",
          "type": "address"
        }
      ],
      "name": "transferOwnership",
      "outputs": [],
      "stateMutability": "nonpayable",
      "type": "function"
    },
    {
      "inputs": [],
      "name": "withdraw",
      "outputs": [],
      "stateMutability": "nonpayable",
      "type": "function"
    }
  ],
  "bytecode": "0x6080806040523461001657611be3908161001c8239f35b600080fdfe60806040526004361015610013575b600080fd5b60003560e01c8063251c6ab31461018f5780633935f7bf146101865780633ccfd60b1461017d57806342e9cb8814610174578063485cc9551461016b5780634f5975971461016257806350418cab14610159578063505a009914610150578063704b6c0214610147578063715018a61461013e57806383cfc939146101355780638da5cb5b1461012c5780638f1c315114610123578063ca7e89dc1461011a578063cc87adea14610111578063e1678d2114610108578063ea84bbaf146100ff578063f2fde38b146100f65763f851a440146100ee57600080fd5b61000e610dc3565b5061000e610ce6565b5061000e610cbe565b5061000e610c93565b5061000e610bf7565b5061000e610b52565b5061000e610b2d565b5061000e610b05565b5061000e610aa3565b5061000e610a46565b5061000e610a01565b5061000e6109d9565b5061000e610961565b5061000e6108f4565b5061000e610742565b5061000e610632565b5061000e6105af565b5061000e6101b4565b503461000e57600036600319011261000e57602060ff60675460a01c16604051908152f35b5060408060031936011261000e576004359060243560028082101561000e576101f46101e86067546001600160a01b031690565b6001600160a01b031690565b91835163ad25ca2960e01b815261023860209182818061021c8b600483019190602083019252565b0381895afa9081156105a2575b600091610575575b5015610f86565b61024182610fd1565b61025960019485841490811591610562575b50610fdb565b61026286611589565b938434918060009687925b610332575b5050509261031c859361031561030f856001600160a01b03986102fb6102f36102da6102cc6102c67fe7dd501b603303a874fc56ca69c5ba02a91632e8627c021ea5d5177deea528759f9c61032d9d61111a565b94611070565b51516001600160a01b031690565b6001600160a01b0316600052606a602052604060002090565b91825461111a565b90556103096102cc8c611070565b9761111a565b98611070565b51016110f4565b965193849316963396429085611172565b0390a4005b919396909280518510156105585761035a8a6103518761036194611097565b510151346110b9565b6064900490565b80881015610552575086905b8a8a8a8661037f8a6103158b85611097565b61038881610bcb565b036103b8575050506103a9826103a38695946103af9461111a565b99611165565b9461103d565b9190889361026d565b996103a992879695928b8a8c6103af989f6001600160a01b0391826103e06102cc8685611097565b166103f2575b50505050505050611165565b6104026102da6102cc8685611097565b61040d8a825461111a565b905560008c610420836103158887611097565b61042981610bcb565b036104b6575083946104956104a7926103156104806101e86101e860606104717fe7dd501b603303a874fc56ca69c5ba02a91632e8627c021ea5d5177deea528759c8b611097565b5101516001600160a01b031690565b985b61048f6102cc8289611097565b96611097565b96519384931696339642908c86611134565b0390a48d8d8b8a8f808e6103e6565b9360036104c7836103158487611097565b6104d081610bcb565b14610509575b946104956104a7926103157fe7dd501b603303a874fc56ca69c5ba02a91632e8627c021ea5d5177deea528759798610482565b947fe7dd501b603303a874fc56ca69c5ba02a91632e8627c021ea5d5177deea5287594506104956104a79261031560806105438a88611097565b510151975050925050946104d6565b9061036d565b9281979450610272565b6001600160a01b03915016331438610253565b6105959150833d851161059b575b61058d8183610f3f565b810190610f61565b38610231565b503d610583565b6105aa610f79565b610229565b503461000e5760008060031936011261062f57338152606a60205260408120548160408120558180828015610625575b8280929181923390f115610618575b4290337f92ccf450a286a957af52509bc1c9939d1a6a481783e142e41e2499f0bb66ebc68480a480f35b610620610f79565b6105ee565b6108fc91506105df565b80fd5b503461000e5760031960403682011261000e57600435906024359067ffffffffffffffff821161000e57604090823603011261000e576001600160a01b036067541633036106ed57816106ce6106de926106b26106ad6106a96106a26106eb986000526069602052604060002090565b5460ff1690565b1590565b61119c565b6004016106c9836000526068602052604060002090565b611251565b6000526069602052604060002090565b805460ff19166001179055565b005b606460405162461bcd60e51b815260206004820152601160248201527f6f6e6c792076696120457865546f6b656e0000000000000000000000000000006044820152fd5b6001600160a01b0381160361000e57565b503461000e57604036600319011261000e5760043561076081610731565b6107fe60243561076f81610731565b6000549261079460ff8560081c1615809581966108ca575b81156108aa575b50610e43565b836107a7600160ff196000541617600055565b61084357600560a21b60ff60a81b1991600f60aa1b936001600160a01b038092166001600160a01b031960665416176066551674ffffffffffffffffffffffffffffffffffffffffff196067541617171617606755565b61080457005b61081461ff001960005416600055565b604051600181527f7f26b83ff96e1f2b6a682f133852f6798a09c465da95921460cefb384740249890602090a1005b61085761010061ff00196000541617600055565b600560a21b60ff60a81b1991600f60aa1b936001600160a01b038092166001600160a01b031960665416176066551674ffffffffffffffffffffffffffffffffffffffffff196067541617171617606755565b303b159150816108bc575b503861078e565b6001915060ff1614386108b5565b600160ff8216109150610787565b602090600319011261000e5760043560ff8116810361000e5790565b503461000e57610903366108d8565b6109236001600160a01b0380603354163314908115610953575b50610eb4565b60ff60a81b1975ff0000000000000000000000000000000000000000006067549260a81b16911617606755600080f35b60655416331490503861091d565b503461000e57610970366108d8565b61098f6001600160a01b03806033541633149081156109535750610eb4565b7fffffffffffffffffffffff00ffffffffffffffffffffffffffffffffffffffff74ff00000000000000000000000000000000000000006067549260a01b16911617606755600080f35b503461000e57600036600319011261000e5760206001600160a01b0360675416604051908152f35b503461000e57602036600319011261000e576001600160a01b03600435610a2781610731565b610a2f610deb565b166001600160a01b03196065541617606555600080f35b503461000e5760008060031936011261062f57610a61610deb565b806001600160a01b036033546001600160a01b03198116603355167f8be0079c531659141344cd1fd0a4f28419497f9722a3daafe3b4186f6b6457e08280a380f35b503461000e57602036600319011261000e57600435610ac181610731565b6001600160a01b0390816033541633148015610af8575b610ae190610eb4565b166001600160a01b03196067541617606755600080f35b5060655482163314610ad8565b503461000e57600036600319011261000e5760206001600160a01b0360335416604051908152f35b503461000e57600036600319011261000e57602060ff60675460a81c16604051908152f35b503461000e57602036600319011261000e57600435610b7081610731565b6001600160a01b0390816033541633148015610ba7575b610b9090610eb4565b166001600160a01b03196066541617606655600080f35b5060655482163314610b87565b50634e487b7160e01b600052602160045260246000fd5b60041115610bd557565b610bdd610bb4565b565b906004821015610bec5752565b610bf4610bb4565b52565b503461000e5760208060031936011261000e57610c15600435611589565b9060409182519180830181845282518091528185850193019160005b828110610c3e5785850386f35b909192938260a060019287516001600160a01b03808251168352610c688583015186850190610bdf565b818c0151838d0152606080830151909116908301526080908101519082015201950193929101610c31565b503461000e57600036600319011261000e5733600052606a6020526020604060002054604051908152f35b503461000e57600036600319011261000e5760206001600160a01b0360665416604051908152f35b503461000e57602036600319011261000e57600435610d0481610731565b610d0c610deb565b6001600160a01b03809116908115610d5957603354826001600160a01b0319821617603355167f8be0079c531659141344cd1fd0a4f28419497f9722a3daafe3b4186f6b6457e0600080a3005b608460405162461bcd60e51b815260206004820152602660248201527f4f776e61626c653a206e6577206f776e657220697320746865207a65726f206160448201527f64647265737300000000000000000000000000000000000000000000000000006064820152fd5b503461000e57600036600319011261000e5760206001600160a01b0360655416604051908152f35b6001600160a01b03603354163303610dff57565b606460405162461bcd60e51b815260206004820152602060248201527f4f776e61626c653a2063616c6c6572206973206e6f7420746865206f776e65726044820152fd5b15610e4a57565b608460405162461bcd60e51b815260206004820152602e60248201527f496e697469616c697a61626c653a20636f6e747261637420697320616c72656160448201527f647920696e697469616c697a65640000000000000000000000000000000000006064820152fd5b15610ebb57565b606460405162461bcd60e51b815260206004820152600a60248201527f6f6e6c792061646d696e000000000000000000000000000000000000000000006044820152fd5b50634e487b7160e01b600052604160045260246000fd5b6040810190811067ffffffffffffffff821117610f3257604052565b610f3a610eff565b604052565b90601f8019910116810190811067ffffffffffffffff821117610f3257604052565b9081602091031261000e5751801515810361000e5790565b506040513d6000823e3d90fd5b15610f8d57565b606460405162461bcd60e51b815260206004820152600e60248201527f746f6b656e2064697361626c65640000000000000000000000000000000000006044820152fd5b60021115610bd557565b15610fe257565b606460405162461bcd60e51b815260206004820152600e60248201527f696e76616c6964207061796f75740000000000000000000000000000000000006044820152fd5b50634e487b7160e01b600052601160045260246000fd5b600190600019811461104d570190565b611055611026565b0190565b50634e487b7160e01b600052603260045260246000fd5b604090805160011015611081570190565b611055611059565b602090805115611081570190565b60209181518110156110ac575b60051b010190565b6110b4611059565b6110a4565b818102929181159184041417156110cc57565b610bdd611026565b81156110de570490565b634e487b7160e01b600052601260045260246000fd5b5160048110156111015790565b611109610bb4565b90565b90600282018092116110cc57565b919082018092116110cc57565b906002821015610bec5752565b90959492610bdd9461115e9160809460a08501998552602085015260408401526060830190610bdf565b0190611127565b919082039182116110cc57565b61115e610bdd9460809397969460a084019884526000602085015260408401526060830190610bdf565b156111a357565b606460405162461bcd60e51b815260206004820152600b60248201527f616c7265616479207365740000000000000000000000000000000000000000006044820152fd5b903590601e198136030182121561000e570180359067ffffffffffffffff821161000e57602001918160051b3603831361000e57565b909182811061122b57505050565b60009182526020822092830192015b82811061124657505050565b81815560010161123a565b9061125c81806111e7565b67ffffffffffffffff929192808211611349575b680100000000000000009384831161133c575b6112928387548189558861121d565b90600092868452602092838520855b83811061132057505050506112be600180970194838101906111e7565b9590918611611313575b8511611306575b6112de8585548187558661121d565b928252808220915b8481106112f557505050505050565b8335838201559281019285016112e6565b61130e610eff565b6112cf565b61131b610eff565b6112c8565b60019086843561132f81610731565b94019381840155016112a1565b611344610eff565b611283565b611351610eff565b611270565b9060405191828154918282526020928383019160005283600020936000905b82821061138b57505050610bdd92500383610f3f565b855484526001958601958895509381019390910190611375565b906040516040810181811067ffffffffffffffff82111761142e575b8060405281938054918281526060840182600052602093846000209060005b8682821061141157505050509160019161140461140c9487603f1991030182610f3f565b855201611356565b910152565b83546001600160a01b0316855290930192600192830192016113e0565b611436610eff565b6113c1565b60209067ffffffffffffffff8111611455575b60051b0190565b61145d610eff565b61144e565b9061146c8261143b565b60409061147b82519182610f3f565b838152809361148c601f199161143b565b019160005b83811061149e5750505050565b602090825160a0810181811067ffffffffffffffff8211176114e7575b845260008152826000818301526000858301526000606083015260006080830152828601015201611491565b6114ef610eff565b6114bb565b9081602091031261000e575161110981610731565b9081519160005b838110611521575050016000815290565b8060208092840101518185015201611510565b610bdd9061155661155094936040519586936020850190611509565b90611509565b03601f198101845283610f3f565b60ff166064039060ff82116110cc57565b9060ff8091169116039060ff82116110cc57565b906115a66115a1836000526068602052604060002090565b6113a5565b908151516020916115bd838501928351519061111a565b906115cf6115ca8361110c565b611462565b936040968751947f6352211e000000000000000000000000000000000000000000000000000000008387015260049081875261160a87610f16565b606754906001600160a01b0395868316928c517fd48e638a0000000000000000000000000000000000000000000000000000000081528781806116548a8a83019190602083019252565b0381885afa908115611b0d575b600091611ae0575b506116738c611089565b516001600160a01b0390911690528661168b8c611089565b5101600090528c8b878c8460a01c60ff169283856116a883611089565b510152608095869284846116bb85611089565b51015286518e81019d8e529c8d9003808e52601f199d906116df9060200182610f3f565b6116e891611534565b6116f2908b611b1a565b6116fb83611070565b516001600160a01b0390911690528c61171383611070565b51600191015260a81c60ff16809561172a83611070565b51015261173690611070565b51015261174290611564565b9061174c91611575565b60ff16988015611ac057611760908a6110d4565b9160005b84515181101561193c578b8f8e8d8c8c818d8d868a8f8f8f90878d6117888661110c565b9c8d938082101561191757509f6118076118519c6118319961182b976117d7611812986117c561180c995b6117bd8387611097565b510160039052565b6117d08d8d51611097565b5193611097565b5101528c6117fb6117e98b8b51611097565b51955195869283019190602083019252565b03908101845283610f3f565b611534565b86611b1a565b61181c8b8d611097565b51906001600160a01b03169052565b51611097565b5191885180958194829363ad25ca2960e01b845283019190602083019252565b03915afa91821561190a575b6000926118ed575b505015611895575061189093929161187f61188992611070565b510191825161111a565b905261103d565b611764565b928092611890959f928f956118d6966118b16102cc8385611097565b166118dc57506118c2919250611070565b51016118cf83825161111a565b9052611165565b9a61103d565b6118e591611097565b510152611165565b6119039250803d1061059b5761058d8183610f3f565b388e611865565b611912610f79565b61185d565b90509f6118076118519c6118319961182b976117d7611812986117c561180c996117b3565b509b9a969550509a9550919650508351957f8da5cb5b0000000000000000000000000000000000000000000000000000000083880152865261197d86610f16565b6000945b875151861015611ab55787878792878d88886119a76119a28a51518a61111a565b61110c565b8093808710600014611a8757508596611a7099611a6a9989611a6598606097611a18611a5598611a06611a4e9961181c6119ff6119ed9b5b6119fa6119ed8d8d51611097565b516001600160a01b031690565b611b1a565b9186611097565b611a108c84611097565b510160029052565b89611a296101e86102cc8385611097565b611a765750611a39919250611070565b5101611a468b825161111a565b905251611097565b928b611097565b5101906001600160a01b03169052565b611165565b9561103d565b94611981565b611a7f91611097565b51015261182b565b96611a7099611a6a9989611a6598606097611a18611a5598611a06611a4e9961181c6119ff6119ed9b6119df565b505050955050505050565b50509a96989950505050505050611adb915061187f84611070565b905290565b611b009150883d8a11611b06575b611af88183610f3f565b8101906114f4565b38611669565b503d611aee565b611b15610f79565b611661565b6000918291602082519201905afa3d15611ba5573d9067ffffffffffffffff8211611b98575b60405191611b58601f8201601f191660200184610f3f565b82523d6000602084013e5b158015611b8c575b15611b765750600090565b60200151611109906001600160a01b03166101e8565b50602081511415611b6b565b611ba0610eff565b611b40565b606090611b6356fea2646970667358221220783b67357119d6ee82424bf80aa0a28e5b3c64a5b64058aa0b557d7c21f3279064736f6c63430008110033",
  "linkReferences": {},
  "deployedLinkReferences": {}
}