{
  "_format": "hh-sol-artifact-1",
  "contractName": "TokenCategoryStore",
  "sourceName": "contracts/token/TokenCategoryStore.sol",
  "abi": [
    {
      "anonymous": false,
      "inputs": [
        {
          "indexed": true,
          "internalType": "uint32",
          "name": "categoryId",
          "type": "uint32"
        },
        {
          "indexed": true,
          "internalType": "string",
          "name": "name",
          "type": "string"
        }
      ],
      "name": "CategoryCreated",
      "type": "event"
    },
    {
      "anonymous": false,
      "inputs": [
        {
          "indexed": true,
          "internalType": "uint32",
          "name": "categoryId",
          "type": "uint32"
        },
        {
          "indexed": true,
          "internalType": "bool",
          "name": "disabled",
          "type": "bool"
        }
      ],
      "name": "CategoryDisabled",
      "type": "event"
    },
    {
      "anonymous": false,
      "inputs": [
        {
          "indexed": false,
          "internalType": "uint8",
          "name": "version",
          "type": "uint8"
        }
      ],
      "name": "Initialized",
      "type": "event"
    },
    {
      "anonymous": false,
      "inputs": [
        {
          "indexed": true,
          "internalType": "address",
          "name": "previousOwner",
          "type": "address"
        },
        {
          "indexed": true,
          "internalType": "address",
          "name": "newOwner",
          "type": "address"
        }
      ],
      "name": "OwnershipTransferred",
      "type": "event"
    },
    {
      "anonymous": false,
      "inputs": [
        {
          "indexed": true,
          "internalType": "uint256",
          "name": "tokenId",
          "type": "uint256"
        },
        {
          "indexed": true,
          "internalType": "uint32",
          "name": "categoryId",
          "type": "uint32"
        }
      ],
      "name": "TokenAdded",
      "type": "event"
    },
    {
      "inputs": [],
      "name": "admin",
      "outputs": [
        {
          "internalType": "address",
          "name": "",
          "type": "address"
        }
      ],
      "stateMutability": "view",
      "type": "function"
    },
    {
      "inputs": [],
      "name": "categoryCount",
      "outputs": [
        {
          "internalType": "uint32",
          "name": "",
          "type": "uint32"
        }
      ],
      "stateMutability": "view",
      "type": "function"
    },
    {
      "inputs": [
        {
          "internalType": "string",
          "name": "name",
          "type": "string"
        }
      ],
      "name": "createCategory",
      "outputs": [
        {
          "internalType": "uint32",
          "name": "",
          "type": "uint32"
        }
      ],
      "stateMutability": "nonpayable",
      "type": "function"
    },
    {
      "inputs": [],
      "name": "exeToken",
      "outputs": [
        {
          "internalType": "contract IERC721Upgradeable",
          "name": "",
          "type": "address"
        }
      ],
      "stateMutability": "view",
      "type": "function"
    },
    {
      "inputs": [],
      "name": "getCategories",
      "outputs": [
        {
          "components": [
            {
              "internalType": "string",
              "name": "name",
              "type": "string"
            },
            {
              "internalType": "uint32",
              "name": "id",
              "type": "uint32"
            },
            {
              "internalType": "bool",
              "name": "disabled",
              "type": "bool"
            }
          ],
          "internalType": "struct ITokenCategoryStore.TokenCategory[]",
          "name": "",
          "type": "tuple[]"
        }
      ],
      "stateMutability": "view",
      "type": "function"
    },
    {
      "inputs": [
        {
          "internalType": "uint32",
          "name": "categoryId",
          "type": "uint32"
        }
      ],
      "name": "getName",
      "outputs": [
        {
          "internalType": "string",
          "name": "",
          "type": "string"
        }
      ],
      "stateMutability": "view",
      "type": "function"
    },
    {
      "inputs": [
        {
          "internalType": "uint256",
          "name": "tokenId",
          "type": "uint256"
        }
      ],
      "name": "getTokenCategories",
      "outputs": [
        {
          "components": [
            {
              "internalType": "string",
              "name": "name",
              "type": "string"
            },
            {
              "internalType": "uint32",
              "name": "id",
              "type": "uint32"
            },
            {
              "internalType": "bool",
              "name": "disabled",
              "type": "bool"
            }
          ],
          "internalType": "struct ITokenCategoryStore.TokenCategory[]",
          "name": "",
          "type": "tuple[]"
        }
      ],
      "stateMutability": "view",
      "type": "function"
    },
    {
      "inputs": [
        {
          "internalType": "uint32",
          "name": "categoryId",
          "type": "uint32"
        }
      ],
      "name": "getTokens",
      "outputs": [
        {
          "internalType": "uint256[]",
          "name": "",
          "type": "uint256[]"
        }
      ],
      "stateMutability": "view",
      "type": "function"
    },
    {
      "inputs": [
        {
          "internalType": "string[]",
          "name": "names",
          "type": "string[]"
        },
        {
          "internalType": "contract IERC721Upgradeable",
          "name": "_exeToken",
          "type": "address"
        }
      ],
      "name": "initialize",
      "outputs": [],
      "stateMutability": "nonpayable",
      "type": "function"
    },
    {
      "inputs": [],
      "name": "owner",
      "outputs": [
        {
          "internalType": "address",
          "name": "",
          "type": "address"
        }
      ],
      "stateMutability": "view",
      "type": "function"
    },
    {
      "inputs": [],
      "name": "renounceOwnership",
      "outputs": [],
      "stateMutability": "nonpayable",
      "type": "function"
    },
    {
      "inputs": [
        {
          "internalType": "address",
          "name": "_admin",
          "type": "address"
        }
      ],
      "name": "setAdmin",
      "outputs": [],
      "stateMutability": "nonpayable",
      "type": "function"
    },
    {
      "inputs": [
        {
          "internalType": "uint32",
          "name": "categoryId",
          "type": "uint32"
        },
        {
          "internalType": "bool",
          "name": "disabled",
          "type": "bool"
        }
      ],
      "name": "setDisabled",
      "outputs": [],
      "stateMutability": "nonpayable",
      "type": "function"
    },
    {
      "inputs": [
        {
          "internalType": "contract IERC721Upgradeable",
          "name": "_exeToken",
          "type": "address"
        }
      ],
      "name": "setExeToken",
      "outputs": [],
      "stateMutability": "nonpayable",
      "type": "function"
    },
    {
      "inputs": [
        {
          "internalType": "uint256",
          "name": "tokenId",
          "type": "uint256"
        },
        {
          "internalType": "uint32[]",
          "name": "categoryIds",
          "type": "uint32[]"
        }
      ],
      "name": "setTokenCategories",
      "outputs": [],
      "stateMutability": "nonpayable",
      "type": "function"
    },
    {
      "inputs": [
        {
          "internalType": "address",
          "name": "newOwner",
          "type": "address"
        }
      ],
      "name": "transferOwnership",
      "outputs": [],
      "stateMutability": "nonpayable",
      "type": "function"
    }
  ],
  "bytecode": "0x6080806040523461001657611ca8908161001c8239f35b600080fdfe604060808152600436101561001357600080fd5b60e0600035811c9081632be32dbb1461131a5781632f602ff4146112545781634db0412c14611178578163505a00991461114f578163564eb313146110b2578163704b6c0214611062578163715018a614610ffa57816383cfc93914610f615781638da5cb5b14610f39578163aff47c8f14610c4f57508063c5f4121e14610884578063dc2986821461062f578063e5600481146105c6578063f2fde38b1461051e578063f5e03257146100fc5763f851a440146100d057600080fd5b346100f75760003660031901126100f7576020906001600160a01b03606554169051908152f35b600080fd5b50346100f757806003193601126100f7576004359067ffffffffffffffff82116100f757366023830112156100f757816004013561013981611465565b9261014683519485611443565b8184526024602085019260051b820101903682116100f75760248101925b8284106104ee5785856001600160a01b0360243516602435036100f7576000549060ff8260081c1615918280936104e1575b80156104ca575b156104615760ff1981166001176000558261044f575b5060005b835163ffffffff8216908110156103795761021c6101d4836115ac565b9163ffffffff6101fc60206101e9848b6115c1565b5181895193828580945193849201611357565b810160678152030190209316928363ffffffff19825416179055866115c1565b51906000526066602052826000209080519067ffffffffffffffff82116103635761024783546115eb565b90601f91828111610329575b5060209183116001146102ba576102aa94939291600091836102af575b50508160011b916000199060031b1c19161790555b606b805463ffffffff610299818316611581565b169063ffffffff1916179055611581565b6101b7565b015190508880610270565b908360005260206000209160005b601f198516811061031157509183916001936102aa979695601f198116106102f8575b505050811b019055610285565b015160001960f88460031b161c191690558880806102eb565b919260206001819286850151815501940192016102c8565b610354908560005260206000208480870160051c8201926020881061035a575b0160051c0190611625565b88610253565b92508192610349565b634e487b7160e01b600052604160045260246000fd5b828461039560ff60005460081c166103908161163c565b61163c565b61039e3361152c565b6001600160a01b036033541673ffffffffffffffffffffffffffffffffffffffff196065541617606555606b547fffffffffffffffff0000000000000000000000000000000000000000ffffffff77ffffffffffffffffffffffffffffffffffffffff0000000060243560201b16911617606b5561041857005b60207f7f26b83ff96e1f2b6a682f133852f6798a09c465da95921460cefb38474024989161ff0019600054166000555160018152a1005b61ffff191661010117600055836101b3565b6084825162461bcd60e51b815260206004820152602e60248201527f496e697469616c697a61626c653a20636f6e747261637420697320616c72656160448201527f647920696e697469616c697a65640000000000000000000000000000000000006064820152fd5b50303b15801561019d5750600160ff82161461019d565b50600160ff821610610196565b833567ffffffffffffffff81116100f75760209161051383926024369187010161147d565b815201930192610164565b50346100f75760203660031901126100f757600435906001600160a01b0382168083036100f75761054d6114d4565b1561055d5761055b8261152c565b005b6084905162461bcd60e51b815260206004820152602660248201527f4f776e61626c653a206e6577206f776e657220697320746865207a65726f206160448201527f64647265737300000000000000000000000000000000000000000000000000006064820152fd5b50346100f75760203660031901126100f75761062b9063ffffffff6105e9611344565b1680600052606860205261060460ff8360002054161561185f565b6000526066602052610618816000206117aa565b905191829160208352602083019061137a565b0390f35b50346100f757602090816003193601126100f75767ffffffffffffffff906004358281116100f75761066590369060040161147d565b8151908051908581019161067a818585611357565b830160678152838763ffffffff958693030190205416610841576106a56106a0826118aa565b6116f8565b6106b283606b54166115ac565b92808551888185516106c581838a611357565b8101606781520301902094169363ffffffff1990858282541617905584600052606688528560002083519788116103635761070081546115eb565b601f8111610806575b5088601f891160011461079d579780610760979899600091610792575b508160011b916000199060031b1c19161790555b606b5491610749818416611581565b16911617606b558451928392839251928391611357565b8101039020915191817f20b2fdcf0ac07f05d4797370201eafc34bd164c8ef2d82b5ac4eef21c46ce2a7600080a38152f35b905085015138610726565b601f19891690826000528a6000209160005b8c8282106107f0575050918a91610760999a9b600194106107d7575b5050811b01905561073a565b87015160001960f88460031b161c1916905538806107cb565b600184958293958b0151815501940192016107af565b61083190826000528a600020601f8b0160051c8101918c8c10610837575b601f0160051c0190611625565b38610709565b9091508190610824565b60648685519062461bcd60e51b82526004820152600c60248201527f6475702063617465676f727900000000000000000000000000000000000000006044820152fd5b50346100f757806003193601126100f75760043590602491823567ffffffffffffffff928382116100f757366023830112156100f7578160040135936108c985611465565b6108d583519182611443565b85815260209384820188819860051b830101913683116100f7578901905b828210610c33575050506001600160a01b0391606b92808454871c16908987833314938415610ba0575b5050505015610b5e5760005b82518110156109fa5763ffffffff8061094283866115c1565b5116818654161015806109d6575b610959906116f8565b61096382856115c1565b5116600052606a86528460002090815491680100000000000000008310156109c157600183018082558310156109ac576109a7928991600052886000200155611850565b610929565b8a634e487b7160e01b60005260326004526000fd5b8a634e487b7160e01b60005260416004526000fd5b50806109e283866115c1565b51166000908152606888528690205460ff1615610950565b50849087898689600052606985526000209451928311610b4a57680100000000000000008311610b4a57508354828555808310610afa575b509260005281600020908060031c9260005b848110610aac575060071982169091039081610a5c57005b939060009460005b828110610a7357505050500155005b9091929582610aa160019263ffffffff8a5116908560021b60031b63ffffffff811b9283911b169119161790565b970193929101610a64565b6000805b60088110610ac5575084820155600101610a44565b969083610af160019263ffffffff855116908b60021b60031b63ffffffff811b9283911b169119161790565b92019701610ab0565b610b2a908560005284600020600780860160031c820192601c8760021b1680610b30575b500160031c0190611625565b84610a32565b60001990818601918254918b0360031b1c16905589610b1e565b634e487b7160e01b60005260416004526000fd5b606485600a8a87519262461bcd60e51b845260048401528201527f6f776e6572206f6e6c79000000000000000000000000000000000000000000006044820152fd5b90919293508751928380927f6352211e0000000000000000000000000000000000000000000000000000000082528c60048301525afa908115610c2857600091610bf2575b501633143889878261091d565b90508681813d8311610c21575b610c098183611443565b810103126100f7575181811681036100f75738610be5565b503d610bff565b86513d6000823e3d90fd5b813563ffffffff811681036100f75781529086019086016108f3565b82346100f757602090816003193601126100f7576004356000526069825280600020928151838195869282825491828152019160005282600020946000915b806007840110610eca57610ce996549285828210610eb4575b828210610e9c575b828210610e84575b828210610e6b575b828210610e52575b828210610e39575b828210610e20575b5010610e13575b505090500384611443565b60009060005b845163ffffffff9081831690811015610d4657610d0c90876115c1565b51166000526068845260ff82600020541615610d31575b610d2c90611581565b610cef565b91610d3e610d2c91611581565b929050610d23565b8663ffffffff8786610d59838a16611743565b60009160005b8651811015610e065785610d7382896115c1565b511680600052606880875260ff918285600020541615610d9f575b505050610d9a90611850565b610d5f565b91869183610dfd948a610db6610d9a989b8b6115c1565b5101528060005260668a5286600020610dd9610dd2868b6115c1565b51916117aa565b9052600052885284600020541684610df183886115c1565b51019015159052611850565b93908880610d8e565b81518061062b858261139f565b1c81520184908780610cde565b6001919563ffffffff8660c01c16815201940185610cd7565b6001919563ffffffff8660a01c16815201940185610ccf565b6001919563ffffffff8660801c16815201940185610cc7565b6001919563ffffffff8660601c16815201940185610cbf565b6001919563ffffffff868c1c16815201940185610cb7565b6001919563ffffffff86831c16815201940185610caf565b6001919563ffffffff8616815201940185610ca7565b926008929550600191945061010090875463ffffffff808216835280828d1c168c84015280828c1c168b84015260608183821c169084015260808183821c169084015260a08183821c169084015260c09082821c1690830152861c868201520195019301869288949592610c8e565b82346100f75760003660031901126100f7576020906001600160a01b03603354169051908152f35b346100f75760203660031901126100f7576004356001600160a01b0380821682036100f75780610f9f91603354163314908115610fec575b506116ad565b7fffffffffffffffff0000000000000000000000000000000000000000ffffffff77ffffffffffffffffffffffffffffffffffffffff00000000606b549260201b16911617606b55600080f35b606554163314905083610f99565b346100f75760003660031901126100f7576110136114d4565b60006001600160a01b0360335473ffffffffffffffffffffffffffffffffffffffff198116603355167f8be0079c531659141344cd1fd0a4f28419497f9722a3daafe3b4186f6b6457e08280a3005b346100f75760203660031901126100f7576004356001600160a01b0381168091036100f75761108f6114d4565b73ffffffffffffffffffffffffffffffffffffffff196065541617606555600080f35b82346100f757806003193601126100f7576110cb611344565b90602435918215158093036100f75763ffffffff906110ff6001600160a01b038060335416331490811561114157506116ad565b169081600052606860205260002060ff1981541660ff84161790557f9b66bf63905d3173e4ee4122b2a075af6a8fbe7b7f2ff030a396613ba5146717600080a3005b606554163314905086610f99565b82346100f75760003660031901126100f757606b549051602091821c6001600160a01b03168152f35b82346100f75760003660031901126100f75763ffffffff906111a28261119c611c08565b16611743565b9060009260019384918281606b5416965b6111c5575b84518061062b888261139f565b81811687811161124e57806000526020906068825260ff876000205416156111f9575b50506111f390611581565b836111b3565b81946112469160666111f3959452611213896000206117aa565b9689519761122089611427565b885287015260008887015261123481611850565b9561123f828b6115c1565b52886115c1565b5090886111e8565b506111b8565b82346100f7576020806003193601126100f7579063ffffffff611275611344565b16806000526068835261128f60ff8360002054161561185f565b600052606a825280600020815192838183549182815201908193600052826000209060005b81811061130657505050846112ca910385611443565b8251818152935181850181905284938401929160005b8281106112ef57505050500390f35b8351855286955093810193928101926001016112e0565b8254845292840192600192830192016112b4565b82346100f75760003660031901126100f75760209063ffffffff61133c611c08565b915191168152f35b6004359063ffffffff821682036100f757565b60005b83811061136a5750506000910152565b818101518382015260200161135a565b9060209161139381518092818552858086019101611357565b601f01601f1916010190565b602080820190808352835180925260409283810182858560051b8401019601946000925b8584106113d4575050505050505090565b909192939495968580600192603f198582030187528a519086806114008451606080865285019061137a565b9363ffffffff868201511686850152015115159101529901940194019295949391906113c3565b6060810190811067ffffffffffffffff82111761036357604052565b90601f8019910116810190811067ffffffffffffffff82111761036357604052565b67ffffffffffffffff81116103635760051b60200190565b81601f820112156100f75780359067ffffffffffffffff821161036357604051926114b2601f8401601f191660200185611443565b828452602083830101116100f757816000926020809301838601378301015290565b6001600160a01b036033541633036114e857565b606460405162461bcd60e51b815260206004820152602060248201527f4f776e61626c653a2063616c6c6572206973206e6f7420746865206f776e65726044820152fd5b603354906001600160a01b03809116918273ffffffffffffffffffffffffffffffffffffffff19821617603355167f8be0079c531659141344cd1fd0a4f28419497f9722a3daafe3b4186f6b6457e0600080a3565b63ffffffff8091169081146115965760010190565b634e487b7160e01b600052601160045260246000fd5b90600163ffffffff8093160191821161159657565b80518210156115d55760209160051b010190565b634e487b7160e01b600052603260045260246000fd5b90600182811c9216801561161b575b602083101461160557565b634e487b7160e01b600052602260045260246000fd5b91607f16916115fa565b818110611630575050565b60008155600101611625565b1561164357565b608460405162461bcd60e51b815260206004820152602b60248201527f496e697469616c697a61626c653a20636f6e7472616374206973206e6f74206960448201527f6e697469616c697a696e670000000000000000000000000000000000000000006064820152fd5b156116b457565b606460405162461bcd60e51b815260206004820152600a60248201527f6f6e6c792061646d696e000000000000000000000000000000000000000000006044820152fd5b156116ff57565b606460405162461bcd60e51b815260206004820152601060248201527f696e76616c69642063617465676f7279000000000000000000000000000000006044820152fd5b9061174d82611465565b60409061175c82519182611443565b838152809361176d601f1991611465565b0191600091825b848110611782575050505050565b602090835161179081611427565b606081528286818301528686830152828501015201611774565b90604051918260008254926117be846115eb565b90818452600194858116908160001461182d57506001146117ea575b50506117e892500383611443565b565b9093915060005260209081600020936000915b8183106118155750506117e8935082010138806117da565b855488840185015294850194879450918301916117fd565b9150506117e894506020925060ff191682840152151560051b82010138806117da565b60001981146115965760010190565b1561186657565b606460405162461bcd60e51b815260206004820152601160248201527f63617465676f72792064697361626c65640000000000000000000000000000006044820152fd5b6000805b8251811015611c00577fff0000000000000000000000000000000000000000000000000000000000000060208285010151167f30000000000000000000000000000000000000000000000000000000000000008110159081611bd5575b8115611b79575b8115611b1d575b8115611af3575b8115611ac9575b8115611a9f575b8115611a75575b8115611a4b575b8115611a21575b81156119f7575b81156119cd575b81156119a3575b8115611979575b50156119735761196e90611850565b6118ae565b50905090565b7f2e000000000000000000000000000000000000000000000000000000000000009150143861195f565b7f2d0000000000000000000000000000000000000000000000000000000000000081149150611958565b7f2c0000000000000000000000000000000000000000000000000000000000000081149150611951565b7f29000000000000000000000000000000000000000000000000000000000000008114915061194a565b7f280000000000000000000000000000000000000000000000000000000000000081149150611943565b7f26000000000000000000000000000000000000000000000000000000000000008114915061193c565b7f240000000000000000000000000000000000000000000000000000000000000081149150611935565b7f23000000000000000000000000000000000000000000000000000000000000008114915061192e565b7f210000000000000000000000000000000000000000000000000000000000000081149150611927565b7f200000000000000000000000000000000000000000000000000000000000000081149150611920565b90507f610000000000000000000000000000000000000000000000000000000000000081101580611b4f575b90611919565b507f7a00000000000000000000000000000000000000000000000000000000000000811115611b49565b90507f410000000000000000000000000000000000000000000000000000000000000081101580611bab575b90611912565b507f5a00000000000000000000000000000000000000000000000000000000000000811115611ba5565b7f3900000000000000000000000000000000000000000000000000000000000000811115915061190b565b505050600190565b6000806001808063ffffffff9081606b5416925b611c29575b505050505090565b818116838111611c6c578552606860205260ff60408620541615611c57575b611c5190611581565b83611c1c565b94611c64611c5191611581565b959050611c48565b50611c2156fea26469706673582212205946fc0a46c577991c0320183ae91c7a9e63a44590e96e17055350a82e6ceedf64736f6c63430008110033",
  "linkReferences": {},
  "deployedLinkReferences": {}
}